{
	"contracts/TipJar.sol": {
		"TipJar": {
			"abi": [
				{
					"inputs": [],
					"stateMutability": "nonpayable",
					"type": "constructor"
				},
				{
					"inputs": [],
					"name": "getBalance",
					"outputs": [
						{
							"internalType": "uint256",
							"name": "",
							"type": "uint256"
						}
					],
					"stateMutability": "view",
					"type": "function"
				},
				{
					"inputs": [],
					"name": "owner",
					"outputs": [
						{
							"internalType": "address",
							"name": "",
							"type": "address"
						}
					],
					"stateMutability": "view",
					"type": "function"
				},
				{
					"inputs": [],
					"name": "tip",
					"outputs": [],
					"stateMutability": "payable",
					"type": "function"
				},
				{
					"inputs": [],
					"name": "withdraw",
					"outputs": [],
					"stateMutability": "nonpayable",
					"type": "function"
				}
			],
			"devdoc": {
				"kind": "dev",
				"methods": {},
				"version": 1
			},
			"evm": {
				"assembly": "    /* \"contracts/TipJar.sol\":61:972  contract TipJar {... */\n  mstore(0x40, 0x80)\n    /* \"contracts/TipJar.sol\":113:236  constructor() { // 合约初始化部署时调用constructor()... */\n  callvalue\n  dup1\n  iszero\n  tag_1\n  jumpi\n  revert(0x00, 0x00)\ntag_1:\n  pop\n    /* \"contracts/TipJar.sol\":193:203  msg.sender */\n  caller\n    /* \"contracts/TipJar.sol\":185:190  owner */\n  0x00\n  0x00\n    /* \"contracts/TipJar.sol\":185:203  owner = msg.sender */\n  0x0100\n  exp\n  dup2\n  sload\n  dup2\n  0xffffffffffffffffffffffffffffffffffffffff\n  mul\n  not\n  and\n  swap1\n  dup4\n  0xffffffffffffffffffffffffffffffffffffffff\n  and\n  mul\n  or\n  swap1\n  sstore\n  pop\n    /* \"contracts/TipJar.sol\":61:972  contract TipJar {... */\n  dataSize(sub_0)\n  dup1\n  dataOffset(sub_0)\n  0x00\n  codecopy\n  0x00\n  return\nstop\n\nsub_0: assembly {\n        /* \"contracts/TipJar.sol\":61:972  contract TipJar {... */\n      mstore(0x40, 0x80)\n      jumpi(tag_1, lt(calldatasize, 0x04))\n      shr(0xe0, calldataload(0x00))\n      dup1\n      0x12065fe0\n      eq\n      tag_2\n      jumpi\n      dup1\n      0x2755cd2d\n      eq\n      tag_3\n      jumpi\n      dup1\n      0x3ccfd60b\n      eq\n      tag_4\n      jumpi\n      dup1\n      0x8da5cb5b\n      eq\n      tag_5\n      jumpi\n    tag_1:\n      revert(0x00, 0x00)\n        /* \"contracts/TipJar.sol\":861:969  function getBalance() public onlyOwner view returns(uint256) {... */\n    tag_2:\n      callvalue\n      dup1\n      iszero\n      tag_6\n      jumpi\n      revert(0x00, 0x00)\n    tag_6:\n      pop\n      tag_7\n      tag_8\n      jump\t// in\n    tag_7:\n      mload(0x40)\n      tag_9\n      swap2\n      swap1\n      tag_10\n      jump\t// in\n    tag_9:\n      mload(0x40)\n      dup1\n      swap2\n      sub\n      swap1\n      return\n        /* \"contracts/TipJar.sol\":397:570  function tip() public payable { // payable关键字，代表此函数可以接受转账... */\n    tag_3:\n      tag_11\n      tag_12\n      jump\t// in\n    tag_11:\n      stop\n        /* \"contracts/TipJar.sol\":578:853  function withdraw() public onlyOwner {... */\n    tag_4:\n      callvalue\n      dup1\n      iszero\n      tag_13\n      jumpi\n      revert(0x00, 0x00)\n    tag_13:\n      pop\n      tag_14\n      tag_15\n      jump\t// in\n    tag_14:\n      stop\n        /* \"contracts/TipJar.sol\":84:104  address public owner */\n    tag_5:\n      callvalue\n      dup1\n      iszero\n      tag_16\n      jumpi\n      revert(0x00, 0x00)\n    tag_16:\n      pop\n      tag_17\n      tag_18\n      jump\t// in\n    tag_17:\n      mload(0x40)\n      tag_19\n      swap2\n      swap1\n      tag_20\n      jump\t// in\n    tag_19:\n      mload(0x40)\n      dup1\n      swap2\n      sub\n      swap1\n      return\n        /* \"contracts/TipJar.sol\":861:969  function getBalance() public onlyOwner view returns(uint256) {... */\n    tag_8:\n        /* \"contracts/TipJar.sol\":913:920  uint256 */\n      0x00\n        /* \"contracts/TipJar.sol\":341:346  owner */\n      0x00\n      0x00\n      swap1\n      sload\n      swap1\n      0x0100\n      exp\n      swap1\n      div\n      0xffffffffffffffffffffffffffffffffffffffff\n      and\n        /* \"contracts/TipJar.sol\":327:346  msg.sender == owner */\n      0xffffffffffffffffffffffffffffffffffffffff\n      and\n        /* \"contracts/TipJar.sol\":327:337  msg.sender */\n      caller\n        /* \"contracts/TipJar.sol\":327:346  msg.sender == owner */\n      0xffffffffffffffffffffffffffffffffffffffff\n      and\n      eq\n        /* \"contracts/TipJar.sol\":319:369  require(msg.sender == owner, \"You are not owner.\") */\n      tag_22\n      jumpi\n      mload(0x40)\n      0x08c379a000000000000000000000000000000000000000000000000000000000\n      dup2\n      mstore\n      0x04\n      add\n      tag_23\n      swap1\n      tag_24\n      jump\t// in\n    tag_23:\n      mload(0x40)\n      dup1\n      swap2\n      sub\n      swap1\n      revert\n    tag_22:\n        /* \"contracts/TipJar.sol\":940:961  address(this).balance */\n      selfbalance\n        /* \"contracts/TipJar.sol\":933:961  return address(this).balance */\n      swap1\n      pop\n        /* \"contracts/TipJar.sol\":861:969  function getBalance() public onlyOwner view returns(uint256) {... */\n      swap1\n      jump\t// out\n        /* \"contracts/TipJar.sol\":397:570  function tip() public payable { // payable关键字，代表此函数可以接受转账... */\n    tag_12:\n        /* \"contracts/TipJar.sol\":514:515  0 */\n      0x00\n        /* \"contracts/TipJar.sol\":502:511  msg.value */\n      callvalue\n        /* \"contracts/TipJar.sol\":502:515  msg.value > 0 */\n      gt\n        /* \"contracts/TipJar.sol\":494:562  require(msg.value > 0, \"You should send a tip to use this function\") */\n      tag_27\n      jumpi\n      mload(0x40)\n      0x08c379a000000000000000000000000000000000000000000000000000000000\n      dup2\n      mstore\n      0x04\n      add\n      tag_28\n      swap1\n      tag_29\n      jump\t// in\n    tag_28:\n      mload(0x40)\n      dup1\n      swap2\n      sub\n      swap1\n      revert\n    tag_27:\n        /* \"contracts/TipJar.sol\":397:570  function tip() public payable { // payable关键字，代表此函数可以接受转账... */\n      jump\t// out\n        /* \"contracts/TipJar.sol\":578:853  function withdraw() public onlyOwner {... */\n    tag_15:\n        /* \"contracts/TipJar.sol\":341:346  owner */\n      0x00\n      0x00\n      swap1\n      sload\n      swap1\n      0x0100\n      exp\n      swap1\n      div\n      0xffffffffffffffffffffffffffffffffffffffff\n      and\n        /* \"contracts/TipJar.sol\":327:346  msg.sender == owner */\n      0xffffffffffffffffffffffffffffffffffffffff\n      and\n        /* \"contracts/TipJar.sol\":327:337  msg.sender */\n      caller\n        /* \"contracts/TipJar.sol\":327:346  msg.sender == owner */\n      0xffffffffffffffffffffffffffffffffffffffff\n      and\n      eq\n        /* \"contracts/TipJar.sol\":319:369  require(msg.sender == owner, \"You are not owner.\") */\n      tag_31\n      jumpi\n      mload(0x40)\n      0x08c379a000000000000000000000000000000000000000000000000000000000\n      dup2\n      mstore\n      0x04\n      add\n      tag_32\n      swap1\n      tag_24\n      jump\t// in\n    tag_32:\n      mload(0x40)\n      dup1\n      swap2\n      sub\n      swap1\n      revert\n    tag_31:\n        /* \"contracts/TipJar.sol\":626:649  uint256 contractBalance */\n      0x00\n        /* \"contracts/TipJar.sol\":652:673  address(this).balance */\n      selfbalance\n        /* \"contracts/TipJar.sol\":626:673  uint256 contractBalance = address(this).balance */\n      swap1\n      pop\n        /* \"contracts/TipJar.sol\":729:730  0 */\n      0x00\n        /* \"contracts/TipJar.sol\":711:726  contractBalance */\n      dup2\n        /* \"contracts/TipJar.sol\":711:730  contractBalance > 0 */\n      gt\n        /* \"contracts/TipJar.sol\":703:765  require(contractBalance > 0, \"There are no tips to withdraw.\") */\n      tag_34\n      jumpi\n      mload(0x40)\n      0x08c379a000000000000000000000000000000000000000000000000000000000\n      dup2\n      mstore\n      0x04\n      add\n      tag_35\n      swap1\n      tag_36\n      jump\t// in\n    tag_35:\n      mload(0x40)\n      dup1\n      swap2\n      sub\n      swap1\n      revert\n    tag_34:\n        /* \"contracts/TipJar.sol\":786:791  owner */\n      0x00\n      0x00\n      swap1\n      sload\n      swap1\n      0x0100\n      exp\n      swap1\n      div\n      0xffffffffffffffffffffffffffffffffffffffff\n      and\n        /* \"contracts/TipJar.sol\":778:801  payable(owner).transfer */\n      0xffffffffffffffffffffffffffffffffffffffff\n      and\n        /* \"contracts/TipJar.sol\":778:818  payable(owner).transfer(contractBalance) */\n      0x08fc\n        /* \"contracts/TipJar.sol\":802:817  contractBalance */\n      dup3\n        /* \"contracts/TipJar.sol\":778:818  payable(owner).transfer(contractBalance) */\n      swap1\n      dup2\n      iszero\n      mul\n      swap1\n      mload(0x40)\n      0x00\n      mload(0x40)\n      dup1\n      dup4\n      sub\n      dup2\n      dup6\n      dup9\n      dup9\n      call\n      swap4\n      pop\n      pop\n      pop\n      pop\n      iszero\n      dup1\n      iszero\n      tag_38\n      jumpi\n      returndatacopy(0x00, 0x00, returndatasize)\n      revert(0x00, returndatasize)\n    tag_38:\n      pop\n        /* \"contracts/TipJar.sol\":615:853  {... */\n      pop\n        /* \"contracts/TipJar.sol\":578:853  function withdraw() public onlyOwner {... */\n      jump\t// out\n        /* \"contracts/TipJar.sol\":84:104  address public owner */\n    tag_18:\n      0x00\n      0x00\n      swap1\n      sload\n      swap1\n      0x0100\n      exp\n      swap1\n      div\n      0xffffffffffffffffffffffffffffffffffffffff\n      and\n      dup2\n      jump\t// out\n        /* \"#utility.yul\":7:84   */\n    tag_39:\n        /* \"#utility.yul\":44:51   */\n      0x00\n        /* \"#utility.yul\":73:78   */\n      dup2\n        /* \"#utility.yul\":62:78   */\n      swap1\n      pop\n        /* \"#utility.yul\":7:84   */\n      swap2\n      swap1\n      pop\n      jump\t// out\n        /* \"#utility.yul\":90:208   */\n    tag_40:\n        /* \"#utility.yul\":177:201   */\n      tag_54\n        /* \"#utility.yul\":195:200   */\n      dup2\n        /* \"#utility.yul\":177:201   */\n      tag_39\n      jump\t// in\n    tag_54:\n        /* \"#utility.yul\":172:175   */\n      dup3\n        /* \"#utility.yul\":165:202   */\n      mstore\n        /* \"#utility.yul\":90:208   */\n      pop\n      pop\n      jump\t// out\n        /* \"#utility.yul\":214:436   */\n    tag_10:\n        /* \"#utility.yul\":307:311   */\n      0x00\n        /* \"#utility.yul\":345:347   */\n      0x20\n        /* \"#utility.yul\":334:343   */\n      dup3\n        /* \"#utility.yul\":330:348   */\n      add\n        /* \"#utility.yul\":322:348   */\n      swap1\n      pop\n        /* \"#utility.yul\":358:429   */\n      tag_56\n        /* \"#utility.yul\":426:427   */\n      0x00\n        /* \"#utility.yul\":415:424   */\n      dup4\n        /* \"#utility.yul\":411:428   */\n      add\n        /* \"#utility.yul\":402:408   */\n      dup5\n        /* \"#utility.yul\":358:429   */\n      tag_40\n      jump\t// in\n    tag_56:\n        /* \"#utility.yul\":214:436   */\n      swap3\n      swap2\n      pop\n      pop\n      jump\t// out\n        /* \"#utility.yul\":442:568   */\n    tag_41:\n        /* \"#utility.yul\":479:486   */\n      0x00\n        /* \"#utility.yul\":519:561   */\n      0xffffffffffffffffffffffffffffffffffffffff\n        /* \"#utility.yul\":512:517   */\n      dup3\n        /* \"#utility.yul\":508:562   */\n      and\n        /* \"#utility.yul\":497:562   */\n      swap1\n      pop\n        /* \"#utility.yul\":442:568   */\n      swap2\n      swap1\n      pop\n      jump\t// out\n        /* \"#utility.yul\":574:670   */\n    tag_42:\n        /* \"#utility.yul\":611:618   */\n      0x00\n        /* \"#utility.yul\":640:664   */\n      tag_59\n        /* \"#utility.yul\":658:663   */\n      dup3\n        /* \"#utility.yul\":640:664   */\n      tag_41\n      jump\t// in\n    tag_59:\n        /* \"#utility.yul\":629:664   */\n      swap1\n      pop\n        /* \"#utility.yul\":574:670   */\n      swap2\n      swap1\n      pop\n      jump\t// out\n        /* \"#utility.yul\":676:794   */\n    tag_43:\n        /* \"#utility.yul\":763:787   */\n      tag_61\n        /* \"#utility.yul\":781:786   */\n      dup2\n        /* \"#utility.yul\":763:787   */\n      tag_42\n      jump\t// in\n    tag_61:\n        /* \"#utility.yul\":758:761   */\n      dup3\n        /* \"#utility.yul\":751:788   */\n      mstore\n        /* \"#utility.yul\":676:794   */\n      pop\n      pop\n      jump\t// out\n        /* \"#utility.yul\":800:1022   */\n    tag_20:\n        /* \"#utility.yul\":893:897   */\n      0x00\n        /* \"#utility.yul\":931:933   */\n      0x20\n        /* \"#utility.yul\":920:929   */\n      dup3\n        /* \"#utility.yul\":916:934   */\n      add\n        /* \"#utility.yul\":908:934   */\n      swap1\n      pop\n        /* \"#utility.yul\":944:1015   */\n      tag_63\n        /* \"#utility.yul\":1012:1013   */\n      0x00\n        /* \"#utility.yul\":1001:1010   */\n      dup4\n        /* \"#utility.yul\":997:1014   */\n      add\n        /* \"#utility.yul\":988:994   */\n      dup5\n        /* \"#utility.yul\":944:1015   */\n      tag_43\n      jump\t// in\n    tag_63:\n        /* \"#utility.yul\":800:1022   */\n      swap3\n      swap2\n      pop\n      pop\n      jump\t// out\n        /* \"#utility.yul\":1028:1197   */\n    tag_44:\n        /* \"#utility.yul\":1112:1123   */\n      0x00\n        /* \"#utility.yul\":1146:1152   */\n      dup3\n        /* \"#utility.yul\":1141:1144   */\n      dup3\n        /* \"#utility.yul\":1134:1153   */\n      mstore\n        /* \"#utility.yul\":1186:1190   */\n      0x20\n        /* \"#utility.yul\":1181:1184   */\n      dup3\n        /* \"#utility.yul\":1177:1191   */\n      add\n        /* \"#utility.yul\":1162:1191   */\n      swap1\n      pop\n        /* \"#utility.yul\":1028:1197   */\n      swap3\n      swap2\n      pop\n      pop\n      jump\t// out\n        /* \"#utility.yul\":1203:1371   */\n    tag_45:\n        /* \"#utility.yul\":1343:1363   */\n      0x596f7520617265206e6f74206f776e65722e0000000000000000000000000000\n        /* \"#utility.yul\":1339:1340   */\n      0x00\n        /* \"#utility.yul\":1331:1337   */\n      dup3\n        /* \"#utility.yul\":1327:1341   */\n      add\n        /* \"#utility.yul\":1320:1364   */\n      mstore\n        /* \"#utility.yul\":1203:1371   */\n      pop\n      jump\t// out\n        /* \"#utility.yul\":1377:1743   */\n    tag_46:\n        /* \"#utility.yul\":1519:1522   */\n      0x00\n        /* \"#utility.yul\":1540:1607   */\n      tag_67\n        /* \"#utility.yul\":1604:1606   */\n      0x12\n        /* \"#utility.yul\":1599:1602   */\n      dup4\n        /* \"#utility.yul\":1540:1607   */\n      tag_44\n      jump\t// in\n    tag_67:\n        /* \"#utility.yul\":1533:1607   */\n      swap2\n      pop\n        /* \"#utility.yul\":1616:1709   */\n      tag_68\n        /* \"#utility.yul\":1705:1708   */\n      dup3\n        /* \"#utility.yul\":1616:1709   */\n      tag_45\n      jump\t// in\n    tag_68:\n        /* \"#utility.yul\":1734:1736   */\n      0x20\n        /* \"#utility.yul\":1729:1732   */\n      dup3\n        /* \"#utility.yul\":1725:1737   */\n      add\n        /* \"#utility.yul\":1718:1737   */\n      swap1\n      pop\n        /* \"#utility.yul\":1377:1743   */\n      swap2\n      swap1\n      pop\n      jump\t// out\n        /* \"#utility.yul\":1749:2168   */\n    tag_24:\n        /* \"#utility.yul\":1915:1919   */\n      0x00\n        /* \"#utility.yul\":1953:1955   */\n      0x20\n        /* \"#utility.yul\":1942:1951   */\n      dup3\n        /* \"#utility.yul\":1938:1956   */\n      add\n        /* \"#utility.yul\":1930:1956   */\n      swap1\n      pop\n        /* \"#utility.yul\":2002:2011   */\n      dup2\n        /* \"#utility.yul\":1996:2000   */\n      dup2\n        /* \"#utility.yul\":1992:2012   */\n      sub\n        /* \"#utility.yul\":1988:1989   */\n      0x00\n        /* \"#utility.yul\":1977:1986   */\n      dup4\n        /* \"#utility.yul\":1973:1990   */\n      add\n        /* \"#utility.yul\":1966:2013   */\n      mstore\n        /* \"#utility.yul\":2030:2161   */\n      tag_70\n        /* \"#utility.yul\":2156:2160   */\n      dup2\n        /* \"#utility.yul\":2030:2161   */\n      tag_46\n      jump\t// in\n    tag_70:\n        /* \"#utility.yul\":2022:2161   */\n      swap1\n      pop\n        /* \"#utility.yul\":1749:2168   */\n      swap2\n      swap1\n      pop\n      jump\t// out\n        /* \"#utility.yul\":2174:2403   */\n    tag_47:\n        /* \"#utility.yul\":2314:2348   */\n      0x596f752073686f756c642073656e6420612074697020746f2075736520746869\n        /* \"#utility.yul\":2310:2311   */\n      0x00\n        /* \"#utility.yul\":2302:2308   */\n      dup3\n        /* \"#utility.yul\":2298:2312   */\n      add\n        /* \"#utility.yul\":2291:2349   */\n      mstore\n        /* \"#utility.yul\":2383:2395   */\n      0x732066756e6374696f6e00000000000000000000000000000000000000000000\n        /* \"#utility.yul\":2378:2380   */\n      0x20\n        /* \"#utility.yul\":2370:2376   */\n      dup3\n        /* \"#utility.yul\":2366:2381   */\n      add\n        /* \"#utility.yul\":2359:2396   */\n      mstore\n        /* \"#utility.yul\":2174:2403   */\n      pop\n      jump\t// out\n        /* \"#utility.yul\":2409:2775   */\n    tag_48:\n        /* \"#utility.yul\":2551:2554   */\n      0x00\n        /* \"#utility.yul\":2572:2639   */\n      tag_73\n        /* \"#utility.yul\":2636:2638   */\n      0x2a\n        /* \"#utility.yul\":2631:2634   */\n      dup4\n        /* \"#utility.yul\":2572:2639   */\n      tag_44\n      jump\t// in\n    tag_73:\n        /* \"#utility.yul\":2565:2639   */\n      swap2\n      pop\n        /* \"#utility.yul\":2648:2741   */\n      tag_74\n        /* \"#utility.yul\":2737:2740   */\n      dup3\n        /* \"#utility.yul\":2648:2741   */\n      tag_47\n      jump\t// in\n    tag_74:\n        /* \"#utility.yul\":2766:2768   */\n      0x40\n        /* \"#utility.yul\":2761:2764   */\n      dup3\n        /* \"#utility.yul\":2757:2769   */\n      add\n        /* \"#utility.yul\":2750:2769   */\n      swap1\n      pop\n        /* \"#utility.yul\":2409:2775   */\n      swap2\n      swap1\n      pop\n      jump\t// out\n        /* \"#utility.yul\":2781:3200   */\n    tag_29:\n        /* \"#utility.yul\":2947:2951   */\n      0x00\n        /* \"#utility.yul\":2985:2987   */\n      0x20\n        /* \"#utility.yul\":2974:2983   */\n      dup3\n        /* \"#utility.yul\":2970:2988   */\n      add\n        /* \"#utility.yul\":2962:2988   */\n      swap1\n      pop\n        /* \"#utility.yul\":3034:3043   */\n      dup2\n        /* \"#utility.yul\":3028:3032   */\n      dup2\n        /* \"#utility.yul\":3024:3044   */\n      sub\n        /* \"#utility.yul\":3020:3021   */\n      0x00\n        /* \"#utility.yul\":3009:3018   */\n      dup4\n        /* \"#utility.yul\":3005:3022   */\n      add\n        /* \"#utility.yul\":2998:3045   */\n      mstore\n        /* \"#utility.yul\":3062:3193   */\n      tag_76\n        /* \"#utility.yul\":3188:3192   */\n      dup2\n        /* \"#utility.yul\":3062:3193   */\n      tag_48\n      jump\t// in\n    tag_76:\n        /* \"#utility.yul\":3054:3193   */\n      swap1\n      pop\n        /* \"#utility.yul\":2781:3200   */\n      swap2\n      swap1\n      pop\n      jump\t// out\n        /* \"#utility.yul\":3206:3386   */\n    tag_49:\n        /* \"#utility.yul\":3346:3378   */\n      0x546865726520617265206e6f207469707320746f2077697468647261772e0000\n        /* \"#utility.yul\":3342:3343   */\n      0x00\n        /* \"#utility.yul\":3334:3340   */\n      dup3\n        /* \"#utility.yul\":3330:3344   */\n      add\n        /* \"#utility.yul\":3323:3379   */\n      mstore\n        /* \"#utility.yul\":3206:3386   */\n      pop\n      jump\t// out\n        /* \"#utility.yul\":3392:3758   */\n    tag_50:\n        /* \"#utility.yul\":3534:3537   */\n      0x00\n        /* \"#utility.yul\":3555:3622   */\n      tag_79\n        /* \"#utility.yul\":3619:3621   */\n      0x1e\n        /* \"#utility.yul\":3614:3617   */\n      dup4\n        /* \"#utility.yul\":3555:3622   */\n      tag_44\n      jump\t// in\n    tag_79:\n        /* \"#utility.yul\":3548:3622   */\n      swap2\n      pop\n        /* \"#utility.yul\":3631:3724   */\n      tag_80\n        /* \"#utility.yul\":3720:3723   */\n      dup3\n        /* \"#utility.yul\":3631:3724   */\n      tag_49\n      jump\t// in\n    tag_80:\n        /* \"#utility.yul\":3749:3751   */\n      0x20\n        /* \"#utility.yul\":3744:3747   */\n      dup3\n        /* \"#utility.yul\":3740:3752   */\n      add\n        /* \"#utility.yul\":3733:3752   */\n      swap1\n      pop\n        /* \"#utility.yul\":3392:3758   */\n      swap2\n      swap1\n      pop\n      jump\t// out\n        /* \"#utility.yul\":3764:4183   */\n    tag_36:\n        /* \"#utility.yul\":3930:3934   */\n      0x00\n        /* \"#utility.yul\":3968:3970   */\n      0x20\n        /* \"#utility.yul\":3957:3966   */\n      dup3\n        /* \"#utility.yul\":3953:3971   */\n      add\n        /* \"#utility.yul\":3945:3971   */\n      swap1\n      pop\n        /* \"#utility.yul\":4017:4026   */\n      dup2\n        /* \"#utility.yul\":4011:4015   */\n      dup2\n        /* \"#utility.yul\":4007:4027   */\n      sub\n        /* \"#utility.yul\":4003:4004   */\n      0x00\n        /* \"#utility.yul\":3992:4001   */\n      dup4\n        /* \"#utility.yul\":3988:4005   */\n      add\n        /* \"#utility.yul\":3981:4028   */\n      mstore\n        /* \"#utility.yul\":4045:4176   */\n      tag_82\n        /* \"#utility.yul\":4171:4175   */\n      dup2\n        /* \"#utility.yul\":4045:4176   */\n      tag_50\n      jump\t// in\n    tag_82:\n        /* \"#utility.yul\":4037:4176   */\n      swap1\n      pop\n        /* \"#utility.yul\":3764:4183   */\n      swap2\n      swap1\n      pop\n      jump\t// out\n\n    auxdata: 0xa2646970667358221220041e8a939c734c2618d926e7effd9954404fbdc14c151111981faa13440fe8a864736f6c634300081e0033\n}\n",
				"bytecode": {
					"linkReferences": {},
					"object": "6080604052348015600e575f5ffd5b50335f5f6101000a81548173ffffffffffffffffffffffffffffffffffffffff021916908373ffffffffffffffffffffffffffffffffffffffff16021790555061051b8061005b5f395ff3fe60806040526004361061003e575f3560e01c806312065fe0146100425780632755cd2d1461006c5780633ccfd60b146100765780638da5cb5b1461008c575b5f5ffd5b34801561004d575f5ffd5b506100566100b6565b6040516100639190610306565b60405180910390f35b61007461014b565b005b348015610081575f5ffd5b5061008a61018f565b005b348015610097575f5ffd5b506100a06102ca565b6040516100ad919061035e565b60405180910390f35b5f5f5f9054906101000a900473ffffffffffffffffffffffffffffffffffffffff1673ffffffffffffffffffffffffffffffffffffffff163373ffffffffffffffffffffffffffffffffffffffff1614610145576040517f08c379a000000000000000000000000000000000000000000000000000000000815260040161013c906103d1565b60405180910390fd5b47905090565b5f341161018d576040517f08c379a00000000000000000000000000000000000000000000000000000000081526004016101849061045f565b60405180910390fd5b565b5f5f9054906101000a900473ffffffffffffffffffffffffffffffffffffffff1673ffffffffffffffffffffffffffffffffffffffff163373ffffffffffffffffffffffffffffffffffffffff161461021d576040517f08c379a0000000000000000000000000000000000000000000000000000000008152600401610214906103d1565b60405180910390fd5b5f4790505f8111610263576040517f08c379a000000000000000000000000000000000000000000000000000000000815260040161025a906104c7565b60405180910390fd5b5f5f9054906101000a900473ffffffffffffffffffffffffffffffffffffffff1673ffffffffffffffffffffffffffffffffffffffff166108fc8290811502906040515f60405180830381858888f193505050501580156102c6573d5f5f3e3d5ffd5b5050565b5f5f9054906101000a900473ffffffffffffffffffffffffffffffffffffffff1681565b5f819050919050565b610300816102ee565b82525050565b5f6020820190506103195f8301846102f7565b92915050565b5f73ffffffffffffffffffffffffffffffffffffffff82169050919050565b5f6103488261031f565b9050919050565b6103588161033e565b82525050565b5f6020820190506103715f83018461034f565b92915050565b5f82825260208201905092915050565b7f596f7520617265206e6f74206f776e65722e00000000000000000000000000005f82015250565b5f6103bb601283610377565b91506103c682610387565b602082019050919050565b5f6020820190508181035f8301526103e8816103af565b9050919050565b7f596f752073686f756c642073656e6420612074697020746f20757365207468695f8201527f732066756e6374696f6e00000000000000000000000000000000000000000000602082015250565b5f610449602a83610377565b9150610454826103ef565b604082019050919050565b5f6020820190508181035f8301526104768161043d565b9050919050565b7f546865726520617265206e6f207469707320746f2077697468647261772e00005f82015250565b5f6104b1601e83610377565b91506104bc8261047d565b602082019050919050565b5f6020820190508181035f8301526104de816104a5565b905091905056fea2646970667358221220041e8a939c734c2618d926e7effd9954404fbdc14c151111981faa13440fe8a864736f6c634300081e0033",
					"opcodes": "PUSH1 0x80 PUSH1 0x40 MSTORE CALLVALUE DUP1 ISZERO PUSH1 0xE JUMPI PUSH0 PUSH0 REVERT JUMPDEST POP CALLER PUSH0 PUSH0 PUSH2 0x100 EXP DUP2 SLOAD DUP2 PUSH20 0xFFFFFFFFFFFFFFFFFFFFFFFFFFFFFFFFFFFFFFFF MUL NOT AND SWAP1 DUP4 PUSH20 0xFFFFFFFFFFFFFFFFFFFFFFFFFFFFFFFFFFFFFFFF AND MUL OR SWAP1 SSTORE POP PUSH2 0x51B DUP1 PUSH2 0x5B PUSH0 CODECOPY PUSH0 RETURN INVALID PUSH1 0x80 PUSH1 0x40 MSTORE PUSH1 0x4 CALLDATASIZE LT PUSH2 0x3E JUMPI PUSH0 CALLDATALOAD PUSH1 0xE0 SHR DUP1 PUSH4 0x12065FE0 EQ PUSH2 0x42 JUMPI DUP1 PUSH4 0x2755CD2D EQ PUSH2 0x6C JUMPI DUP1 PUSH4 0x3CCFD60B EQ PUSH2 0x76 JUMPI DUP1 PUSH4 0x8DA5CB5B EQ PUSH2 0x8C JUMPI JUMPDEST PUSH0 PUSH0 REVERT JUMPDEST CALLVALUE DUP1 ISZERO PUSH2 0x4D JUMPI PUSH0 PUSH0 REVERT JUMPDEST POP PUSH2 0x56 PUSH2 0xB6 JUMP JUMPDEST PUSH1 0x40 MLOAD PUSH2 0x63 SWAP2 SWAP1 PUSH2 0x306 JUMP JUMPDEST PUSH1 0x40 MLOAD DUP1 SWAP2 SUB SWAP1 RETURN JUMPDEST PUSH2 0x74 PUSH2 0x14B JUMP JUMPDEST STOP JUMPDEST CALLVALUE DUP1 ISZERO PUSH2 0x81 JUMPI PUSH0 PUSH0 REVERT JUMPDEST POP PUSH2 0x8A PUSH2 0x18F JUMP JUMPDEST STOP JUMPDEST CALLVALUE DUP1 ISZERO PUSH2 0x97 JUMPI PUSH0 PUSH0 REVERT JUMPDEST POP PUSH2 0xA0 PUSH2 0x2CA JUMP JUMPDEST PUSH1 0x40 MLOAD PUSH2 0xAD SWAP2 SWAP1 PUSH2 0x35E JUMP JUMPDEST PUSH1 0x40 MLOAD DUP1 SWAP2 SUB SWAP1 RETURN JUMPDEST PUSH0 PUSH0 PUSH0 SWAP1 SLOAD SWAP1 PUSH2 0x100 EXP SWAP1 DIV PUSH20 0xFFFFFFFFFFFFFFFFFFFFFFFFFFFFFFFFFFFFFFFF AND PUSH20 0xFFFFFFFFFFFFFFFFFFFFFFFFFFFFFFFFFFFFFFFF AND CALLER PUSH20 0xFFFFFFFFFFFFFFFFFFFFFFFFFFFFFFFFFFFFFFFF AND EQ PUSH2 0x145 JUMPI PUSH1 0x40 MLOAD PUSH32 0x8C379A000000000000000000000000000000000000000000000000000000000 DUP2 MSTORE PUSH1 0x4 ADD PUSH2 0x13C SWAP1 PUSH2 0x3D1 JUMP JUMPDEST PUSH1 0x40 MLOAD DUP1 SWAP2 SUB SWAP1 REVERT JUMPDEST SELFBALANCE SWAP1 POP SWAP1 JUMP JUMPDEST PUSH0 CALLVALUE GT PUSH2 0x18D JUMPI PUSH1 0x40 MLOAD PUSH32 0x8C379A000000000000000000000000000000000000000000000000000000000 DUP2 MSTORE PUSH1 0x4 ADD PUSH2 0x184 SWAP1 PUSH2 0x45F JUMP JUMPDEST PUSH1 0x40 MLOAD DUP1 SWAP2 SUB SWAP1 REVERT JUMPDEST JUMP JUMPDEST PUSH0 PUSH0 SWAP1 SLOAD SWAP1 PUSH2 0x100 EXP SWAP1 DIV PUSH20 0xFFFFFFFFFFFFFFFFFFFFFFFFFFFFFFFFFFFFFFFF AND PUSH20 0xFFFFFFFFFFFFFFFFFFFFFFFFFFFFFFFFFFFFFFFF AND CALLER PUSH20 0xFFFFFFFFFFFFFFFFFFFFFFFFFFFFFFFFFFFFFFFF AND EQ PUSH2 0x21D JUMPI PUSH1 0x40 MLOAD PUSH32 0x8C379A000000000000000000000000000000000000000000000000000000000 DUP2 MSTORE PUSH1 0x4 ADD PUSH2 0x214 SWAP1 PUSH2 0x3D1 JUMP JUMPDEST PUSH1 0x40 MLOAD DUP1 SWAP2 SUB SWAP1 REVERT JUMPDEST PUSH0 SELFBALANCE SWAP1 POP PUSH0 DUP2 GT PUSH2 0x263 JUMPI PUSH1 0x40 MLOAD PUSH32 0x8C379A000000000000000000000000000000000000000000000000000000000 DUP2 MSTORE PUSH1 0x4 ADD PUSH2 0x25A SWAP1 PUSH2 0x4C7 JUMP JUMPDEST PUSH1 0x40 MLOAD DUP1 SWAP2 SUB SWAP1 REVERT JUMPDEST PUSH0 PUSH0 SWAP1 SLOAD SWAP1 PUSH2 0x100 EXP SWAP1 DIV PUSH20 0xFFFFFFFFFFFFFFFFFFFFFFFFFFFFFFFFFFFFFFFF AND PUSH20 0xFFFFFFFFFFFFFFFFFFFFFFFFFFFFFFFFFFFFFFFF AND PUSH2 0x8FC DUP3 SWAP1 DUP2 ISZERO MUL SWAP1 PUSH1 0x40 MLOAD PUSH0 PUSH1 0x40 MLOAD DUP1 DUP4 SUB DUP2 DUP6 DUP9 DUP9 CALL SWAP4 POP POP POP POP ISZERO DUP1 ISZERO PUSH2 0x2C6 JUMPI RETURNDATASIZE PUSH0 PUSH0 RETURNDATACOPY RETURNDATASIZE PUSH0 REVERT JUMPDEST POP POP JUMP JUMPDEST PUSH0 PUSH0 SWAP1 SLOAD SWAP1 PUSH2 0x100 EXP SWAP1 DIV PUSH20 0xFFFFFFFFFFFFFFFFFFFFFFFFFFFFFFFFFFFFFFFF AND DUP2 JUMP JUMPDEST PUSH0 DUP2 SWAP1 POP SWAP2 SWAP1 POP JUMP JUMPDEST PUSH2 0x300 DUP2 PUSH2 0x2EE JUMP JUMPDEST DUP3 MSTORE POP POP JUMP JUMPDEST PUSH0 PUSH1 0x20 DUP3 ADD SWAP1 POP PUSH2 0x319 PUSH0 DUP4 ADD DUP5 PUSH2 0x2F7 JUMP JUMPDEST SWAP3 SWAP2 POP POP JUMP JUMPDEST PUSH0 PUSH20 0xFFFFFFFFFFFFFFFFFFFFFFFFFFFFFFFFFFFFFFFF DUP3 AND SWAP1 POP SWAP2 SWAP1 POP JUMP JUMPDEST PUSH0 PUSH2 0x348 DUP3 PUSH2 0x31F JUMP JUMPDEST SWAP1 POP SWAP2 SWAP1 POP JUMP JUMPDEST PUSH2 0x358 DUP2 PUSH2 0x33E JUMP JUMPDEST DUP3 MSTORE POP POP JUMP JUMPDEST PUSH0 PUSH1 0x20 DUP3 ADD SWAP1 POP PUSH2 0x371 PUSH0 DUP4 ADD DUP5 PUSH2 0x34F JUMP JUMPDEST SWAP3 SWAP2 POP POP JUMP JUMPDEST PUSH0 DUP3 DUP3 MSTORE PUSH1 0x20 DUP3 ADD SWAP1 POP SWAP3 SWAP2 POP POP JUMP JUMPDEST PUSH32 0x596F7520617265206E6F74206F776E65722E0000000000000000000000000000 PUSH0 DUP3 ADD MSTORE POP JUMP JUMPDEST PUSH0 PUSH2 0x3BB PUSH1 0x12 DUP4 PUSH2 0x377 JUMP JUMPDEST SWAP2 POP PUSH2 0x3C6 DUP3 PUSH2 0x387 JUMP JUMPDEST PUSH1 0x20 DUP3 ADD SWAP1 POP SWAP2 SWAP1 POP JUMP JUMPDEST PUSH0 PUSH1 0x20 DUP3 ADD SWAP1 POP DUP2 DUP2 SUB PUSH0 DUP4 ADD MSTORE PUSH2 0x3E8 DUP2 PUSH2 0x3AF JUMP JUMPDEST SWAP1 POP SWAP2 SWAP1 POP JUMP JUMPDEST PUSH32 0x596F752073686F756C642073656E6420612074697020746F2075736520746869 PUSH0 DUP3 ADD MSTORE PUSH32 0x732066756E6374696F6E00000000000000000000000000000000000000000000 PUSH1 0x20 DUP3 ADD MSTORE POP JUMP JUMPDEST PUSH0 PUSH2 0x449 PUSH1 0x2A DUP4 PUSH2 0x377 JUMP JUMPDEST SWAP2 POP PUSH2 0x454 DUP3 PUSH2 0x3EF JUMP JUMPDEST PUSH1 0x40 DUP3 ADD SWAP1 POP SWAP2 SWAP1 POP JUMP JUMPDEST PUSH0 PUSH1 0x20 DUP3 ADD SWAP1 POP DUP2 DUP2 SUB PUSH0 DUP4 ADD MSTORE PUSH2 0x476 DUP2 PUSH2 0x43D JUMP JUMPDEST SWAP1 POP SWAP2 SWAP1 POP JUMP JUMPDEST PUSH32 0x546865726520617265206E6F207469707320746F2077697468647261772E0000 PUSH0 DUP3 ADD MSTORE POP JUMP JUMPDEST PUSH0 PUSH2 0x4B1 PUSH1 0x1E DUP4 PUSH2 0x377 JUMP JUMPDEST SWAP2 POP PUSH2 0x4BC DUP3 PUSH2 0x47D JUMP JUMPDEST PUSH1 0x20 DUP3 ADD SWAP1 POP SWAP2 SWAP1 POP JUMP JUMPDEST PUSH0 PUSH1 0x20 DUP3 ADD SWAP1 POP DUP2 DUP2 SUB PUSH0 DUP4 ADD MSTORE PUSH2 0x4DE DUP2 PUSH2 0x4A5 JUMP JUMPDEST SWAP1 POP SWAP2 SWAP1 POP JUMP INVALID LOG2 PUSH5 0x6970667358 0x22 SLT KECCAK256 DIV 0x1E DUP11 SWAP4 SWAP13 PUSH20 0x4C2618D926E7EFFD9954404FBDC14C151111981F 0xAA SGT PREVRANDAO 0xF 0xE8 0xA8 PUSH5 0x736F6C6343 STOP ADDMOD 0x1E STOP CALLER "
				},
				"gasEstimates": {
					"creation": {
						"codeDepositCost": "261400",
						"executionCost": "24562",
						"totalCost": "285962"
					},
					"external": {
						"getBalance()": "2575",
						"owner()": "2551",
						"tip()": "442",
						"withdraw()": "infinite"
					}
				},
				"methodIdentifiers": {
					"getBalance()": "12065fe0",
					"owner()": "8da5cb5b",
					"tip()": "2755cd2d",
					"withdraw()": "3ccfd60b"
				}
			},
			"storageLayout": {
				"storage": [
					{
						"astId": 3,
						"contract": "contracts/TipJar.sol:TipJar",
						"label": "owner",
						"offset": 0,
						"slot": "0",
						"type": "t_address"
					}
				],
				"types": {
					"t_address": {
						"encoding": "inplace",
						"label": "address",
						"numberOfBytes": "20"
					}
				}
			},
			"userdoc": {
				"kind": "user",
				"methods": {},
				"version": 1
			}
		}
	}
}