{
	"contracts/HandelError.sol": {
		"catchTryContract": {
			"abi": [
				{
					"inputs": [],
					"stateMutability": "nonpayable",
					"type": "constructor"
				},
				{
					"inputs": [],
					"name": "he",
					"outputs": [
						{
							"internalType": "contract HandleError",
							"name": "",
							"type": "address"
						}
					],
					"stateMutability": "view",
					"type": "function"
				},
				{
					"inputs": [
						{
							"internalType": "bool",
							"name": "condition",
							"type": "bool"
						}
					],
					"name": "trycatch",
					"outputs": [
						{
							"internalType": "string",
							"name": "",
							"type": "string"
						}
					],
					"stateMutability": "view",
					"type": "function"
				}
			],
			"devdoc": {
				"kind": "dev",
				"methods": {},
				"version": 1
			},
			"evm": {
				"assembly": "    /* \"contracts/HandelError.sol\":1066:2091  contract catchTryContract {... */\n  mstore(0x40, 0x80)\n    /* \"contracts/HandelError.sol\":1129:1184  constructor() {... */\n  callvalue\n  dup1\n  iszero\n  tag_1\n  jumpi\n  revert(0x00, 0x00)\ntag_1:\n  pop\n    /* \"contracts/HandelError.sol\":1159:1176  new HandleError() */\n  mload(0x40)\n  tag_4\n  swap1\n  tag_5\n  jump\t// in\ntag_4:\n  mload(0x40)\n  dup1\n  swap2\n  sub\n  swap1\n  0x00\n  create\n  dup1\n  iszero\n  dup1\n  iszero\n  tag_6\n  jumpi\n  returndatacopy(0x00, 0x00, returndatasize)\n  revert(0x00, returndatasize)\ntag_6:\n  pop\n    /* \"contracts/HandelError.sol\":1154:1156  he */\n  0x00\n  0x00\n    /* \"contracts/HandelError.sol\":1154:1176  he = new HandleError() */\n  0x0100\n  exp\n  dup2\n  sload\n  dup2\n  0xffffffffffffffffffffffffffffffffffffffff\n  mul\n  not\n  and\n  swap1\n  dup4\n  0xffffffffffffffffffffffffffffffffffffffff\n  and\n  mul\n  or\n  swap1\n  sstore\n  pop\n    /* \"contracts/HandelError.sol\":1066:2091  contract catchTryContract {... */\n  jump(tag_7)\ntag_5:\n  dataSize(sub_1)\n  dup1\n  dataOffset(sub_1)\n  dup4\n  codecopy\n  add\n  swap1\n  jump\t// out\ntag_7:\n  dataSize(sub_0)\n  dup1\n  dataOffset(sub_0)\n  0x00\n  codecopy\n  0x00\n  return\nstop\n\nsub_0: assembly {\n        /* \"contracts/HandelError.sol\":1066:2091  contract catchTryContract {... */\n      mstore(0x40, 0x80)\n      callvalue\n      dup1\n      iszero\n      tag_1\n      jumpi\n      revert(0x00, 0x00)\n    tag_1:\n      pop\n      jumpi(tag_2, lt(calldatasize, 0x04))\n      shr(0xe0, calldataload(0x00))\n      dup1\n      0x33f1499e\n      eq\n      tag_3\n      jumpi\n      dup1\n      0x33f747f9\n      eq\n      tag_4\n      jumpi\n    tag_2:\n      revert(0x00, 0x00)\n        /* \"contracts/HandelError.sol\":1099:1120  HandleError public he */\n    tag_3:\n      tag_5\n      tag_6\n      jump\t// in\n    tag_5:\n      mload(0x40)\n      tag_7\n      swap2\n      swap1\n      tag_8\n      jump\t// in\n    tag_7:\n      mload(0x40)\n      dup1\n      swap2\n      sub\n      swap1\n      return\n        /* \"contracts/HandelError.sol\":1192:2088  function trycatch(bool condition) public view returns (string memory) {... */\n    tag_4:\n      tag_9\n      0x04\n      dup1\n      calldatasize\n      sub\n      dup2\n      add\n      swap1\n      tag_10\n      swap2\n      swap1\n      tag_11\n      jump\t// in\n    tag_10:\n      tag_12\n      jump\t// in\n    tag_9:\n      mload(0x40)\n      tag_13\n      swap2\n      swap1\n      tag_14\n      jump\t// in\n    tag_13:\n      mload(0x40)\n      dup1\n      swap2\n      sub\n      swap1\n      return\n        /* \"contracts/HandelError.sol\":1099:1120  HandleError public he */\n    tag_6:\n      0x00\n      0x00\n      swap1\n      sload\n      swap1\n      0x0100\n      exp\n      swap1\n      div\n      0xffffffffffffffffffffffffffffffffffffffff\n      and\n      dup2\n      jump\t// out\n        /* \"contracts/HandelError.sol\":1192:2088  function trycatch(bool condition) public view returns (string memory) {... */\n    tag_12:\n        /* \"contracts/HandelError.sol\":1247:1260  string memory */\n      0x60\n        /* \"contracts/HandelError.sol\":1277:1279  he */\n      0x00\n      0x00\n      swap1\n      sload\n      swap1\n      0x0100\n      exp\n      swap1\n      div\n      0xffffffffffffffffffffffffffffffffffffffff\n      and\n        /* \"contracts/HandelError.sol\":1277:1291  he.revertError */\n      0xffffffffffffffffffffffffffffffffffffffff\n      and\n      0x779d3efc\n        /* \"contracts/HandelError.sol\":1292:1301  condition */\n      dup4\n        /* \"contracts/HandelError.sol\":1277:1302  he.revertError(condition) */\n      mload(0x40)\n      dup3\n      0xffffffff\n      and\n      0xe0\n      shl\n      dup2\n      mstore\n      0x04\n      add\n      tag_16\n      swap2\n      swap1\n      tag_17\n      jump\t// in\n    tag_16:\n      0x20\n      mload(0x40)\n      dup1\n      dup4\n      sub\n      dup2\n      dup7\n      gas\n      staticcall\n      swap3\n      pop\n      pop\n      pop\n      dup1\n      iszero\n      tag_18\n      jumpi\n      pop\n      mload(0x40)\n      returndatasize\n      not(0x1f)\n      0x1f\n      dup3\n      add\n      and\n      dup3\n      add\n      dup1\n      0x40\n      mstore\n      pop\n      dup2\n      add\n      swap1\n      tag_19\n      swap2\n      swap1\n      tag_20\n      jump\t// in\n    tag_19:\n      0x01\n    tag_18:\n        /* \"contracts/HandelError.sol\":1273:2081  try he.revertError(condition) returns (uint256) {... */\n      tag_21\n      jumpi\n      tag_25\n      tag_26\n      jump\t// in\n    tag_25:\n      dup1\n      0x08c379a0\n      sub\n      tag_24\n      jumpi\n      pop\n      tag_27\n      tag_28\n      jump\t// in\n    tag_27:\n      dup1\n      tag_29\n      jumpi\n      pop\n      jump(tag_23)\n    tag_29:\n        /* \"contracts/HandelError.sol\":1662:1668  reason */\n      dup1\n        /* \"contracts/HandelError.sol\":1634:1669  string.concat(\"reason::: \", reason) */\n      add(0x20, mload(0x40))\n      tag_30\n      swap2\n      swap1\n      tag_31\n      jump\t// in\n    tag_30:\n      mload(0x40)\n      0x20\n      dup2\n      dup4\n      sub\n      sub\n      dup2\n      mstore\n      swap1\n      0x40\n      mstore\n        /* \"contracts/HandelError.sol\":1627:1669  return string.concat(\"reason::: \", reason) */\n      swap2\n      pop\n      pop\n      jump(tag_15)\n        /* \"contracts/HandelError.sol\":1273:2081  try he.revertError(condition) returns (uint256) {... */\n    tag_24:\n      0x4e487b71\n      sub\n      tag_23\n      jumpi\n      tag_32\n      tag_33\n      jump\t// in\n    tag_32:\n      swap1\n      tag_34\n      jumpi\n      pop\n      jump(tag_23)\n    tag_34:\n        /* \"contracts/HandelError.sol\":1834:1848  return \"panic\" */\n      mload(0x40)\n      dup1\n      0x40\n      add\n      0x40\n      mstore\n      dup1\n      0x05\n      dup2\n      mstore\n      0x20\n      add\n      0x70616e6963000000000000000000000000000000000000000000000000000000\n      dup2\n      mstore\n      pop\n      swap2\n      pop\n      pop\n      jump(tag_15)\n        /* \"contracts/HandelError.sol\":1273:2081  try he.revertError(condition) returns (uint256) {... */\n    tag_23:\n      returndatasize\n      dup1\n      0x00\n      dup2\n      eq\n      tag_36\n      jumpi\n      mload(0x40)\n      swap2\n      pop\n      and(add(returndatasize, 0x3f), not(0x1f))\n      dup3\n      add\n      0x40\n      mstore\n      returndatasize\n      dup3\n      mstore\n      returndatasize\n      0x00\n      0x20\n      dup5\n      add\n      returndatacopy\n      jump(tag_35)\n    tag_36:\n      0x60\n      swap2\n      pop\n    tag_35:\n      pop\n        /* \"contracts/HandelError.sol\":2055:2067  lowLevelData */\n      dup1\n        /* \"contracts/HandelError.sol\":2014:2069  string.concat(\"lowLevelData::: \", string(lowLevelData)) */\n      add(0x20, mload(0x40))\n      tag_37\n      swap2\n      swap1\n      tag_38\n      jump\t// in\n    tag_37:\n      mload(0x40)\n      0x20\n      dup2\n      dup4\n      sub\n      sub\n      dup2\n      mstore\n      swap1\n      0x40\n      mstore\n        /* \"contracts/HandelError.sol\":2007:2069  return string.concat(\"lowLevelData::: \", string(lowLevelData)) */\n      swap2\n      pop\n      pop\n      jump(tag_15)\n        /* \"contracts/HandelError.sol\":1273:2081  try he.revertError(condition) returns (uint256) {... */\n    tag_21:\n        /* \"contracts/HandelError.sol\":1427:1443  return \"success\" */\n      mload(0x40)\n      dup1\n      0x40\n      add\n      0x40\n      mstore\n      dup1\n      0x07\n      dup2\n      mstore\n      0x20\n      add\n      0x7375636365737300000000000000000000000000000000000000000000000000\n      dup2\n      mstore\n      pop\n      swap2\n      pop\n      pop\n        /* \"contracts/HandelError.sol\":1192:2088  function trycatch(bool condition) public view returns (string memory) {... */\n    tag_15:\n      swap2\n      swap1\n      pop\n      jump\t// out\n        /* \"#utility.yul\":7:133   */\n    tag_40:\n        /* \"#utility.yul\":44:51   */\n      0x00\n        /* \"#utility.yul\":84:126   */\n      0xffffffffffffffffffffffffffffffffffffffff\n        /* \"#utility.yul\":77:82   */\n      dup3\n        /* \"#utility.yul\":73:127   */\n      and\n        /* \"#utility.yul\":62:127   */\n      swap1\n      pop\n        /* \"#utility.yul\":7:133   */\n      swap2\n      swap1\n      pop\n      jump\t// out\n        /* \"#utility.yul\":139:199   */\n    tag_41:\n        /* \"#utility.yul\":167:170   */\n      0x00\n        /* \"#utility.yul\":188:193   */\n      dup2\n        /* \"#utility.yul\":181:193   */\n      swap1\n      pop\n        /* \"#utility.yul\":139:199   */\n      swap2\n      swap1\n      pop\n      jump\t// out\n        /* \"#utility.yul\":205:347   */\n    tag_42:\n        /* \"#utility.yul\":255:264   */\n      0x00\n        /* \"#utility.yul\":288:341   */\n      tag_72\n        /* \"#utility.yul\":306:340   */\n      tag_73\n        /* \"#utility.yul\":315:339   */\n      tag_74\n        /* \"#utility.yul\":333:338   */\n      dup5\n        /* \"#utility.yul\":315:339   */\n      tag_40\n      jump\t// in\n    tag_74:\n        /* \"#utility.yul\":306:340   */\n      tag_41\n      jump\t// in\n    tag_73:\n        /* \"#utility.yul\":288:341   */\n      tag_40\n      jump\t// in\n    tag_72:\n        /* \"#utility.yul\":275:341   */\n      swap1\n      pop\n        /* \"#utility.yul\":205:347   */\n      swap2\n      swap1\n      pop\n      jump\t// out\n        /* \"#utility.yul\":353:479   */\n    tag_43:\n        /* \"#utility.yul\":403:412   */\n      0x00\n        /* \"#utility.yul\":436:473   */\n      tag_76\n        /* \"#utility.yul\":467:472   */\n      dup3\n        /* \"#utility.yul\":436:473   */\n      tag_42\n      jump\t// in\n    tag_76:\n        /* \"#utility.yul\":423:473   */\n      swap1\n      pop\n        /* \"#utility.yul\":353:479   */\n      swap2\n      swap1\n      pop\n      jump\t// out\n        /* \"#utility.yul\":485:629   */\n    tag_44:\n        /* \"#utility.yul\":553:562   */\n      0x00\n        /* \"#utility.yul\":586:623   */\n      tag_78\n        /* \"#utility.yul\":617:622   */\n      dup3\n        /* \"#utility.yul\":586:623   */\n      tag_43\n      jump\t// in\n    tag_78:\n        /* \"#utility.yul\":573:623   */\n      swap1\n      pop\n        /* \"#utility.yul\":485:629   */\n      swap2\n      swap1\n      pop\n      jump\t// out\n        /* \"#utility.yul\":635:802   */\n    tag_45:\n        /* \"#utility.yul\":740:795   */\n      tag_80\n        /* \"#utility.yul\":789:794   */\n      dup2\n        /* \"#utility.yul\":740:795   */\n      tag_44\n      jump\t// in\n    tag_80:\n        /* \"#utility.yul\":735:738   */\n      dup3\n        /* \"#utility.yul\":728:796   */\n      mstore\n        /* \"#utility.yul\":635:802   */\n      pop\n      pop\n      jump\t// out\n        /* \"#utility.yul\":808:1066   */\n    tag_8:\n        /* \"#utility.yul\":919:923   */\n      0x00\n        /* \"#utility.yul\":957:959   */\n      0x20\n        /* \"#utility.yul\":946:955   */\n      dup3\n        /* \"#utility.yul\":942:960   */\n      add\n        /* \"#utility.yul\":934:960   */\n      swap1\n      pop\n        /* \"#utility.yul\":970:1059   */\n      tag_82\n        /* \"#utility.yul\":1056:1057   */\n      0x00\n        /* \"#utility.yul\":1045:1054   */\n      dup4\n        /* \"#utility.yul\":1041:1058   */\n      add\n        /* \"#utility.yul\":1032:1038   */\n      dup5\n        /* \"#utility.yul\":970:1059   */\n      tag_45\n      jump\t// in\n    tag_82:\n        /* \"#utility.yul\":808:1066   */\n      swap3\n      swap2\n      pop\n      pop\n      jump\t// out\n        /* \"#utility.yul\":1072:1147   */\n    tag_46:\n        /* \"#utility.yul\":1105:1111   */\n      0x00\n        /* \"#utility.yul\":1138:1140   */\n      0x40\n        /* \"#utility.yul\":1132:1141   */\n      mload\n        /* \"#utility.yul\":1122:1141   */\n      swap1\n      pop\n        /* \"#utility.yul\":1072:1147   */\n      swap1\n      jump\t// out\n        /* \"#utility.yul\":1153:1270   */\n    tag_47:\n        /* \"#utility.yul\":1262:1263   */\n      0x00\n        /* \"#utility.yul\":1259:1260   */\n      0x00\n        /* \"#utility.yul\":1252:1264   */\n      revert\n        /* \"#utility.yul\":1399:1489   */\n    tag_49:\n        /* \"#utility.yul\":1433:1440   */\n      0x00\n        /* \"#utility.yul\":1476:1481   */\n      dup2\n        /* \"#utility.yul\":1469:1482   */\n      iszero\n        /* \"#utility.yul\":1462:1483   */\n      iszero\n        /* \"#utility.yul\":1451:1483   */\n      swap1\n      pop\n        /* \"#utility.yul\":1399:1489   */\n      swap2\n      swap1\n      pop\n      jump\t// out\n        /* \"#utility.yul\":1495:1611   */\n    tag_50:\n        /* \"#utility.yul\":1565:1586   */\n      tag_88\n        /* \"#utility.yul\":1580:1585   */\n      dup2\n        /* \"#utility.yul\":1565:1586   */\n      tag_49\n      jump\t// in\n    tag_88:\n        /* \"#utility.yul\":1558:1563   */\n      dup2\n        /* \"#utility.yul\":1555:1587   */\n      eq\n        /* \"#utility.yul\":1545:1605   */\n      tag_89\n      jumpi\n        /* \"#utility.yul\":1601:1602   */\n      0x00\n        /* \"#utility.yul\":1598:1599   */\n      0x00\n        /* \"#utility.yul\":1591:1603   */\n      revert\n        /* \"#utility.yul\":1545:1605   */\n    tag_89:\n        /* \"#utility.yul\":1495:1611   */\n      pop\n      jump\t// out\n        /* \"#utility.yul\":1617:1750   */\n    tag_51:\n        /* \"#utility.yul\":1660:1665   */\n      0x00\n        /* \"#utility.yul\":1698:1704   */\n      dup2\n        /* \"#utility.yul\":1685:1705   */\n      calldataload\n        /* \"#utility.yul\":1676:1705   */\n      swap1\n      pop\n        /* \"#utility.yul\":1714:1744   */\n      tag_91\n        /* \"#utility.yul\":1738:1743   */\n      dup2\n        /* \"#utility.yul\":1714:1744   */\n      tag_50\n      jump\t// in\n    tag_91:\n        /* \"#utility.yul\":1617:1750   */\n      swap3\n      swap2\n      pop\n      pop\n      jump\t// out\n        /* \"#utility.yul\":1756:2079   */\n    tag_11:\n        /* \"#utility.yul\":1812:1818   */\n      0x00\n        /* \"#utility.yul\":1861:1863   */\n      0x20\n        /* \"#utility.yul\":1849:1858   */\n      dup3\n        /* \"#utility.yul\":1840:1847   */\n      dup5\n        /* \"#utility.yul\":1836:1859   */\n      sub\n        /* \"#utility.yul\":1832:1864   */\n      slt\n        /* \"#utility.yul\":1829:1948   */\n      iszero\n      tag_93\n      jumpi\n        /* \"#utility.yul\":1867:1946   */\n      tag_94\n      tag_47\n      jump\t// in\n    tag_94:\n        /* \"#utility.yul\":1829:1948   */\n    tag_93:\n        /* \"#utility.yul\":1987:1988   */\n      0x00\n        /* \"#utility.yul\":2012:2062   */\n      tag_95\n        /* \"#utility.yul\":2054:2061   */\n      dup5\n        /* \"#utility.yul\":2045:2051   */\n      dup3\n        /* \"#utility.yul\":2034:2043   */\n      dup6\n        /* \"#utility.yul\":2030:2052   */\n      add\n        /* \"#utility.yul\":2012:2062   */\n      tag_51\n      jump\t// in\n    tag_95:\n        /* \"#utility.yul\":2002:2062   */\n      swap2\n      pop\n        /* \"#utility.yul\":1958:2072   */\n      pop\n        /* \"#utility.yul\":1756:2079   */\n      swap3\n      swap2\n      pop\n      pop\n      jump\t// out\n        /* \"#utility.yul\":2085:2184   */\n    tag_52:\n        /* \"#utility.yul\":2137:2143   */\n      0x00\n        /* \"#utility.yul\":2171:2176   */\n      dup2\n        /* \"#utility.yul\":2165:2177   */\n      mload\n        /* \"#utility.yul\":2155:2177   */\n      swap1\n      pop\n        /* \"#utility.yul\":2085:2184   */\n      swap2\n      swap1\n      pop\n      jump\t// out\n        /* \"#utility.yul\":2190:2359   */\n    tag_53:\n        /* \"#utility.yul\":2274:2285   */\n      0x00\n        /* \"#utility.yul\":2308:2314   */\n      dup3\n        /* \"#utility.yul\":2303:2306   */\n      dup3\n        /* \"#utility.yul\":2296:2315   */\n      mstore\n        /* \"#utility.yul\":2348:2352   */\n      0x20\n        /* \"#utility.yul\":2343:2346   */\n      dup3\n        /* \"#utility.yul\":2339:2353   */\n      add\n        /* \"#utility.yul\":2324:2353   */\n      swap1\n      pop\n        /* \"#utility.yul\":2190:2359   */\n      swap3\n      swap2\n      pop\n      pop\n      jump\t// out\n        /* \"#utility.yul\":2365:2504   */\n    tag_54:\n        /* \"#utility.yul\":2454:2460   */\n      dup3\n        /* \"#utility.yul\":2449:2452   */\n      dup2\n        /* \"#utility.yul\":2444:2447   */\n      dup4\n        /* \"#utility.yul\":2438:2461   */\n      mcopy\n        /* \"#utility.yul\":2495:2496   */\n      0x00\n        /* \"#utility.yul\":2486:2492   */\n      dup4\n        /* \"#utility.yul\":2481:2484   */\n      dup4\n        /* \"#utility.yul\":2477:2493   */\n      add\n        /* \"#utility.yul\":2470:2497   */\n      mstore\n        /* \"#utility.yul\":2365:2504   */\n      pop\n      pop\n      pop\n      jump\t// out\n        /* \"#utility.yul\":2510:2612   */\n    tag_55:\n        /* \"#utility.yul\":2551:2557   */\n      0x00\n        /* \"#utility.yul\":2602:2604   */\n      0x1f\n        /* \"#utility.yul\":2598:2605   */\n      not\n        /* \"#utility.yul\":2593:2595   */\n      0x1f\n        /* \"#utility.yul\":2586:2591   */\n      dup4\n        /* \"#utility.yul\":2582:2596   */\n      add\n        /* \"#utility.yul\":2578:2606   */\n      and\n        /* \"#utility.yul\":2568:2606   */\n      swap1\n      pop\n        /* \"#utility.yul\":2510:2612   */\n      swap2\n      swap1\n      pop\n      jump\t// out\n        /* \"#utility.yul\":2618:2995   */\n    tag_56:\n        /* \"#utility.yul\":2706:2709   */\n      0x00\n        /* \"#utility.yul\":2734:2773   */\n      tag_101\n        /* \"#utility.yul\":2767:2772   */\n      dup3\n        /* \"#utility.yul\":2734:2773   */\n      tag_52\n      jump\t// in\n    tag_101:\n        /* \"#utility.yul\":2789:2860   */\n      tag_102\n        /* \"#utility.yul\":2853:2859   */\n      dup2\n        /* \"#utility.yul\":2848:2851   */\n      dup6\n        /* \"#utility.yul\":2789:2860   */\n      tag_53\n      jump\t// in\n    tag_102:\n        /* \"#utility.yul\":2782:2860   */\n      swap4\n      pop\n        /* \"#utility.yul\":2869:2934   */\n      tag_103\n        /* \"#utility.yul\":2927:2933   */\n      dup2\n        /* \"#utility.yul\":2922:2925   */\n      dup6\n        /* \"#utility.yul\":2915:2919   */\n      0x20\n        /* \"#utility.yul\":2908:2913   */\n      dup7\n        /* \"#utility.yul\":2904:2920   */\n      add\n        /* \"#utility.yul\":2869:2934   */\n      tag_54\n      jump\t// in\n    tag_103:\n        /* \"#utility.yul\":2959:2988   */\n      tag_104\n        /* \"#utility.yul\":2981:2987   */\n      dup2\n        /* \"#utility.yul\":2959:2988   */\n      tag_55\n      jump\t// in\n    tag_104:\n        /* \"#utility.yul\":2954:2957   */\n      dup5\n        /* \"#utility.yul\":2950:2989   */\n      add\n        /* \"#utility.yul\":2943:2989   */\n      swap2\n      pop\n        /* \"#utility.yul\":2710:2995   */\n      pop\n        /* \"#utility.yul\":2618:2995   */\n      swap3\n      swap2\n      pop\n      pop\n      jump\t// out\n        /* \"#utility.yul\":3001:3314   */\n    tag_14:\n        /* \"#utility.yul\":3114:3118   */\n      0x00\n        /* \"#utility.yul\":3152:3154   */\n      0x20\n        /* \"#utility.yul\":3141:3150   */\n      dup3\n        /* \"#utility.yul\":3137:3155   */\n      add\n        /* \"#utility.yul\":3129:3155   */\n      swap1\n      pop\n        /* \"#utility.yul\":3201:3210   */\n      dup2\n        /* \"#utility.yul\":3195:3199   */\n      dup2\n        /* \"#utility.yul\":3191:3211   */\n      sub\n        /* \"#utility.yul\":3187:3188   */\n      0x00\n        /* \"#utility.yul\":3176:3185   */\n      dup4\n        /* \"#utility.yul\":3172:3189   */\n      add\n        /* \"#utility.yul\":3165:3212   */\n      mstore\n        /* \"#utility.yul\":3229:3307   */\n      tag_106\n        /* \"#utility.yul\":3302:3306   */\n      dup2\n        /* \"#utility.yul\":3293:3299   */\n      dup5\n        /* \"#utility.yul\":3229:3307   */\n      tag_56\n      jump\t// in\n    tag_106:\n        /* \"#utility.yul\":3221:3307   */\n      swap1\n      pop\n        /* \"#utility.yul\":3001:3314   */\n      swap3\n      swap2\n      pop\n      pop\n      jump\t// out\n        /* \"#utility.yul\":3320:3429   */\n    tag_57:\n        /* \"#utility.yul\":3401:3422   */\n      tag_108\n        /* \"#utility.yul\":3416:3421   */\n      dup2\n        /* \"#utility.yul\":3401:3422   */\n      tag_49\n      jump\t// in\n    tag_108:\n        /* \"#utility.yul\":3396:3399   */\n      dup3\n        /* \"#utility.yul\":3389:3423   */\n      mstore\n        /* \"#utility.yul\":3320:3429   */\n      pop\n      pop\n      jump\t// out\n        /* \"#utility.yul\":3435:3645   */\n    tag_17:\n        /* \"#utility.yul\":3522:3526   */\n      0x00\n        /* \"#utility.yul\":3560:3562   */\n      0x20\n        /* \"#utility.yul\":3549:3558   */\n      dup3\n        /* \"#utility.yul\":3545:3563   */\n      add\n        /* \"#utility.yul\":3537:3563   */\n      swap1\n      pop\n        /* \"#utility.yul\":3573:3638   */\n      tag_110\n        /* \"#utility.yul\":3635:3636   */\n      0x00\n        /* \"#utility.yul\":3624:3633   */\n      dup4\n        /* \"#utility.yul\":3620:3637   */\n      add\n        /* \"#utility.yul\":3611:3617   */\n      dup5\n        /* \"#utility.yul\":3573:3638   */\n      tag_57\n      jump\t// in\n    tag_110:\n        /* \"#utility.yul\":3435:3645   */\n      swap3\n      swap2\n      pop\n      pop\n      jump\t// out\n        /* \"#utility.yul\":3651:3728   */\n    tag_58:\n        /* \"#utility.yul\":3688:3695   */\n      0x00\n        /* \"#utility.yul\":3717:3722   */\n      dup2\n        /* \"#utility.yul\":3706:3722   */\n      swap1\n      pop\n        /* \"#utility.yul\":3651:3728   */\n      swap2\n      swap1\n      pop\n      jump\t// out\n        /* \"#utility.yul\":3734:3856   */\n    tag_59:\n        /* \"#utility.yul\":3807:3831   */\n      tag_113\n        /* \"#utility.yul\":3825:3830   */\n      dup2\n        /* \"#utility.yul\":3807:3831   */\n      tag_58\n      jump\t// in\n    tag_113:\n        /* \"#utility.yul\":3800:3805   */\n      dup2\n        /* \"#utility.yul\":3797:3832   */\n      eq\n        /* \"#utility.yul\":3787:3850   */\n      tag_114\n      jumpi\n        /* \"#utility.yul\":3846:3847   */\n      0x00\n        /* \"#utility.yul\":3843:3844   */\n      0x00\n        /* \"#utility.yul\":3836:3848   */\n      revert\n        /* \"#utility.yul\":3787:3850   */\n    tag_114:\n        /* \"#utility.yul\":3734:3856   */\n      pop\n      jump\t// out\n        /* \"#utility.yul\":3862:4005   */\n    tag_60:\n        /* \"#utility.yul\":3919:3924   */\n      0x00\n        /* \"#utility.yul\":3950:3956   */\n      dup2\n        /* \"#utility.yul\":3944:3957   */\n      mload\n        /* \"#utility.yul\":3935:3957   */\n      swap1\n      pop\n        /* \"#utility.yul\":3966:3999   */\n      tag_116\n        /* \"#utility.yul\":3993:3998   */\n      dup2\n        /* \"#utility.yul\":3966:3999   */\n      tag_59\n      jump\t// in\n    tag_116:\n        /* \"#utility.yul\":3862:4005   */\n      swap3\n      swap2\n      pop\n      pop\n      jump\t// out\n        /* \"#utility.yul\":4011:4362   */\n    tag_20:\n        /* \"#utility.yul\":4081:4087   */\n      0x00\n        /* \"#utility.yul\":4130:4132   */\n      0x20\n        /* \"#utility.yul\":4118:4127   */\n      dup3\n        /* \"#utility.yul\":4109:4116   */\n      dup5\n        /* \"#utility.yul\":4105:4128   */\n      sub\n        /* \"#utility.yul\":4101:4133   */\n      slt\n        /* \"#utility.yul\":4098:4217   */\n      iszero\n      tag_118\n      jumpi\n        /* \"#utility.yul\":4136:4215   */\n      tag_119\n      tag_47\n      jump\t// in\n    tag_119:\n        /* \"#utility.yul\":4098:4217   */\n    tag_118:\n        /* \"#utility.yul\":4256:4257   */\n      0x00\n        /* \"#utility.yul\":4281:4345   */\n      tag_120\n        /* \"#utility.yul\":4337:4344   */\n      dup5\n        /* \"#utility.yul\":4328:4334   */\n      dup3\n        /* \"#utility.yul\":4317:4326   */\n      dup6\n        /* \"#utility.yul\":4313:4335   */\n      add\n        /* \"#utility.yul\":4281:4345   */\n      tag_60\n      jump\t// in\n    tag_120:\n        /* \"#utility.yul\":4271:4345   */\n      swap2\n      pop\n        /* \"#utility.yul\":4227:4355   */\n      pop\n        /* \"#utility.yul\":4011:4362   */\n      swap3\n      swap2\n      pop\n      pop\n      jump\t// out\n        /* \"#utility.yul\":4368:4474   */\n    tag_61:\n        /* \"#utility.yul\":4412:4420   */\n      0x00\n        /* \"#utility.yul\":4461:4466   */\n      dup2\n        /* \"#utility.yul\":4456:4459   */\n      0xe0\n        /* \"#utility.yul\":4452:4467   */\n      shr\n        /* \"#utility.yul\":4431:4467   */\n      swap1\n      pop\n        /* \"#utility.yul\":4368:4474   */\n      swap2\n      swap1\n      pop\n      jump\t// out\n        /* \"#utility.yul\":4480:4663   */\n    tag_26:\n        /* \"#utility.yul\":4515:4518   */\n      0x00\n        /* \"#utility.yul\":4553:4554   */\n      0x03\n        /* \"#utility.yul\":4535:4551   */\n      returndatasize\n        /* \"#utility.yul\":4532:4555   */\n      gt\n        /* \"#utility.yul\":4529:4657   */\n      iszero\n      tag_123\n      jumpi\n        /* \"#utility.yul\":4591:4592   */\n      0x04\n        /* \"#utility.yul\":4588:4589   */\n      0x00\n        /* \"#utility.yul\":4585:4586   */\n      0x00\n        /* \"#utility.yul\":4570:4593   */\n      returndatacopy\n        /* \"#utility.yul\":4613:4647   */\n      tag_124\n        /* \"#utility.yul\":4644:4645   */\n      0x00\n        /* \"#utility.yul\":4638:4646   */\n      mload\n        /* \"#utility.yul\":4613:4647   */\n      tag_61\n      jump\t// in\n    tag_124:\n        /* \"#utility.yul\":4606:4647   */\n      swap1\n      pop\n        /* \"#utility.yul\":4529:4657   */\n    tag_123:\n        /* \"#utility.yul\":4480:4663   */\n      swap1\n      jump\t// out\n        /* \"#utility.yul\":4669:4849   */\n    tag_62:\n        /* \"#utility.yul\":4717:4794   */\n      0x4e487b7100000000000000000000000000000000000000000000000000000000\n        /* \"#utility.yul\":4714:4715   */\n      0x00\n        /* \"#utility.yul\":4707:4795   */\n      mstore\n        /* \"#utility.yul\":4814:4818   */\n      0x41\n        /* \"#utility.yul\":4811:4812   */\n      0x04\n        /* \"#utility.yul\":4804:4819   */\n      mstore\n        /* \"#utility.yul\":4838:4842   */\n      0x24\n        /* \"#utility.yul\":4835:4836   */\n      0x00\n        /* \"#utility.yul\":4828:4843   */\n      revert\n        /* \"#utility.yul\":4855:5136   */\n    tag_63:\n        /* \"#utility.yul\":4938:4965   */\n      tag_127\n        /* \"#utility.yul\":4960:4964   */\n      dup3\n        /* \"#utility.yul\":4938:4965   */\n      tag_55\n      jump\t// in\n    tag_127:\n        /* \"#utility.yul\":4930:4936   */\n      dup2\n        /* \"#utility.yul\":4926:4966   */\n      add\n        /* \"#utility.yul\":5068:5074   */\n      dup2\n        /* \"#utility.yul\":5056:5066   */\n      dup2\n        /* \"#utility.yul\":5053:5075   */\n      lt\n        /* \"#utility.yul\":5032:5050   */\n      0xffffffffffffffff\n        /* \"#utility.yul\":5020:5030   */\n      dup3\n        /* \"#utility.yul\":5017:5051   */\n      gt\n        /* \"#utility.yul\":5014:5076   */\n      or\n        /* \"#utility.yul\":5011:5099   */\n      iszero\n      tag_128\n      jumpi\n        /* \"#utility.yul\":5079:5097   */\n      tag_129\n      tag_62\n      jump\t// in\n    tag_129:\n        /* \"#utility.yul\":5011:5099   */\n    tag_128:\n        /* \"#utility.yul\":5119:5129   */\n      dup1\n        /* \"#utility.yul\":5115:5117   */\n      0x40\n        /* \"#utility.yul\":5108:5130   */\n      mstore\n        /* \"#utility.yul\":4898:5136   */\n      pop\n        /* \"#utility.yul\":4855:5136   */\n      pop\n      pop\n      jump\t// out\n        /* \"#utility.yul\":5142:5853   */\n    tag_28:\n        /* \"#utility.yul\":5181:5184   */\n      0x00\n        /* \"#utility.yul\":5219:5223   */\n      0x44\n        /* \"#utility.yul\":5201:5217   */\n      returndatasize\n        /* \"#utility.yul\":5198:5224   */\n      lt\n        /* \"#utility.yul\":5227:5232   */\n      tag_130\n        /* \"#utility.yul\":5195:5234   */\n      jumpi\n        /* \"#utility.yul\":5256:5276   */\n      tag_132\n      tag_46\n      jump\t// in\n    tag_132:\n        /* \"#utility.yul\":5331:5332   */\n      0x04\n        /* \"#utility.yul\":5313:5329   */\n      returndatasize\n        /* \"#utility.yul\":5309:5333   */\n      sub\n        /* \"#utility.yul\":5306:5307   */\n      0x04\n        /* \"#utility.yul\":5300:5304   */\n      dup3\n        /* \"#utility.yul\":5285:5334   */\n      returndatacopy\n        /* \"#utility.yul\":5364:5368   */\n      dup1\n        /* \"#utility.yul\":5358:5369   */\n      mload\n        /* \"#utility.yul\":5463:5479   */\n      returndatasize\n        /* \"#utility.yul\":5456:5460   */\n      0x24\n        /* \"#utility.yul\":5448:5454   */\n      dup3\n        /* \"#utility.yul\":5444:5461   */\n      add\n        /* \"#utility.yul\":5441:5480   */\n      gt\n        /* \"#utility.yul\":5408:5426   */\n      0xffffffffffffffff\n        /* \"#utility.yul\":5400:5406   */\n      dup3\n        /* \"#utility.yul\":5397:5427   */\n      gt\n        /* \"#utility.yul\":5381:5494   */\n      or\n        /* \"#utility.yul\":5378:5524   */\n      iszero\n      tag_133\n      jumpi\n        /* \"#utility.yul\":5509:5514   */\n      pop\n      pop\n      jump(tag_130)\n        /* \"#utility.yul\":5378:5524   */\n    tag_133:\n        /* \"#utility.yul\":5555:5561   */\n      dup1\n        /* \"#utility.yul\":5549:5553   */\n      dup3\n        /* \"#utility.yul\":5545:5562   */\n      add\n        /* \"#utility.yul\":5591:5594   */\n      dup1\n        /* \"#utility.yul\":5585:5595   */\n      mload\n        /* \"#utility.yul\":5618:5636   */\n      0xffffffffffffffff\n        /* \"#utility.yul\":5610:5616   */\n      dup2\n        /* \"#utility.yul\":5607:5637   */\n      gt\n        /* \"#utility.yul\":5604:5647   */\n      iszero\n      tag_134\n      jumpi\n        /* \"#utility.yul\":5640:5645   */\n      pop\n      pop\n      pop\n      pop\n      jump(tag_130)\n        /* \"#utility.yul\":5604:5647   */\n    tag_134:\n        /* \"#utility.yul\":5688:5694   */\n      dup1\n        /* \"#utility.yul\":5681:5685   */\n      0x20\n        /* \"#utility.yul\":5676:5679   */\n      dup4\n        /* \"#utility.yul\":5672:5686   */\n      add\n        /* \"#utility.yul\":5668:5695   */\n      add\n        /* \"#utility.yul\":5747:5748   */\n      0x04\n        /* \"#utility.yul\":5729:5745   */\n      returndatasize\n        /* \"#utility.yul\":5725:5749   */\n      sub\n        /* \"#utility.yul\":5719:5723   */\n      dup6\n        /* \"#utility.yul\":5715:5750   */\n      add\n        /* \"#utility.yul\":5710:5713   */\n      dup2\n        /* \"#utility.yul\":5707:5751   */\n      gt\n        /* \"#utility.yul\":5704:5761   */\n      iszero\n      tag_135\n      jumpi\n        /* \"#utility.yul\":5754:5759   */\n      pop\n      pop\n      pop\n      pop\n      pop\n      jump(tag_130)\n        /* \"#utility.yul\":5704:5761   */\n    tag_135:\n        /* \"#utility.yul\":5771:5828   */\n      tag_136\n        /* \"#utility.yul\":5819:5825   */\n      dup3\n        /* \"#utility.yul\":5813:5817   */\n      0x20\n        /* \"#utility.yul\":5809:5826   */\n      add\n        /* \"#utility.yul\":5801:5807   */\n      dup6\n        /* \"#utility.yul\":5797:5827   */\n      add\n        /* \"#utility.yul\":5791:5795   */\n      dup7\n        /* \"#utility.yul\":5771:5828   */\n      tag_63\n      jump\t// in\n    tag_136:\n        /* \"#utility.yul\":5844:5847   */\n      dup3\n        /* \"#utility.yul\":5837:5847   */\n      swap6\n      pop\n        /* \"#utility.yul\":5185:5853   */\n      pop\n      pop\n      pop\n      pop\n      pop\n        /* \"#utility.yul\":5142:5853   */\n    tag_130:\n      swap1\n      jump\t// out\n        /* \"#utility.yul\":5859:6047   */\n    tag_64:\n        /* \"#utility.yul\":6028:6040   */\n      0x726561736f6e3a3a3a2000000000000000000000000000000000000000000000\n        /* \"#utility.yul\":6023:6026   */\n      dup2\n        /* \"#utility.yul\":6016:6041   */\n      mstore\n        /* \"#utility.yul\":5859:6047   */\n      pop\n      jump\t// out\n        /* \"#utility.yul\":6053:6201   */\n    tag_65:\n        /* \"#utility.yul\":6155:6166   */\n      0x00\n        /* \"#utility.yul\":6192:6195   */\n      dup2\n        /* \"#utility.yul\":6177:6195   */\n      swap1\n      pop\n        /* \"#utility.yul\":6053:6201   */\n      swap3\n      swap2\n      pop\n      pop\n      jump\t// out\n        /* \"#utility.yul\":6207:6597   */\n    tag_66:\n        /* \"#utility.yul\":6313:6316   */\n      0x00\n        /* \"#utility.yul\":6341:6380   */\n      tag_140\n        /* \"#utility.yul\":6374:6379   */\n      dup3\n        /* \"#utility.yul\":6341:6380   */\n      tag_52\n      jump\t// in\n    tag_140:\n        /* \"#utility.yul\":6396:6485   */\n      tag_141\n        /* \"#utility.yul\":6478:6484   */\n      dup2\n        /* \"#utility.yul\":6473:6476   */\n      dup6\n        /* \"#utility.yul\":6396:6485   */\n      tag_65\n      jump\t// in\n    tag_141:\n        /* \"#utility.yul\":6389:6485   */\n      swap4\n      pop\n        /* \"#utility.yul\":6494:6559   */\n      tag_142\n        /* \"#utility.yul\":6552:6558   */\n      dup2\n        /* \"#utility.yul\":6547:6550   */\n      dup6\n        /* \"#utility.yul\":6540:6544   */\n      0x20\n        /* \"#utility.yul\":6533:6538   */\n      dup7\n        /* \"#utility.yul\":6529:6545   */\n      add\n        /* \"#utility.yul\":6494:6559   */\n      tag_54\n      jump\t// in\n    tag_142:\n        /* \"#utility.yul\":6584:6590   */\n      dup1\n        /* \"#utility.yul\":6579:6582   */\n      dup5\n        /* \"#utility.yul\":6575:6591   */\n      add\n        /* \"#utility.yul\":6568:6591   */\n      swap2\n      pop\n        /* \"#utility.yul\":6317:6597   */\n      pop\n        /* \"#utility.yul\":6207:6597   */\n      swap3\n      swap2\n      pop\n      pop\n      jump\t// out\n        /* \"#utility.yul\":6603:7145   */\n    tag_31:\n        /* \"#utility.yul\":6826:6829   */\n      0x00\n        /* \"#utility.yul\":6841:6979   */\n      tag_144\n        /* \"#utility.yul\":6975:6978   */\n      dup3\n        /* \"#utility.yul\":6841:6979   */\n      tag_64\n      jump\t// in\n    tag_144:\n        /* \"#utility.yul\":7004:7006   */\n      0x0a\n        /* \"#utility.yul\":6999:7002   */\n      dup3\n        /* \"#utility.yul\":6995:7007   */\n      add\n        /* \"#utility.yul\":6988:7007   */\n      swap2\n      pop\n        /* \"#utility.yul\":7024:7119   */\n      tag_145\n        /* \"#utility.yul\":7115:7118   */\n      dup3\n        /* \"#utility.yul\":7106:7112   */\n      dup5\n        /* \"#utility.yul\":7024:7119   */\n      tag_66\n      jump\t// in\n    tag_145:\n        /* \"#utility.yul\":7017:7119   */\n      swap2\n      pop\n        /* \"#utility.yul\":7136:7139   */\n      dup2\n        /* \"#utility.yul\":7129:7139   */\n      swap1\n      pop\n        /* \"#utility.yul\":6603:7145   */\n      swap3\n      swap2\n      pop\n      pop\n      jump\t// out\n        /* \"#utility.yul\":7151:7351   */\n    tag_33:\n        /* \"#utility.yul\":7187:7194   */\n      0x00\n        /* \"#utility.yul\":7196:7200   */\n      0x00\n        /* \"#utility.yul\":7235:7239   */\n      0x23\n        /* \"#utility.yul\":7217:7233   */\n      returndatasize\n        /* \"#utility.yul\":7214:7240   */\n      gt\n        /* \"#utility.yul\":7211:7345   */\n      iszero\n      tag_147\n      jumpi\n        /* \"#utility.yul\":7276:7280   */\n      0x20\n        /* \"#utility.yul\":7273:7274   */\n      0x04\n        /* \"#utility.yul\":7270:7271   */\n      0x00\n        /* \"#utility.yul\":7255:7281   */\n      returndatacopy\n        /* \"#utility.yul\":7305:7306   */\n      0x01\n        /* \"#utility.yul\":7294:7306   */\n      swap2\n      pop\n        /* \"#utility.yul\":7333:7334   */\n      0x00\n        /* \"#utility.yul\":7327:7335   */\n      mload\n        /* \"#utility.yul\":7319:7335   */\n      swap1\n      pop\n        /* \"#utility.yul\":7211:7345   */\n    tag_147:\n        /* \"#utility.yul\":7151:7351   */\n      swap1\n      swap2\n      jump\t// out\n        /* \"#utility.yul\":7357:7551   */\n    tag_67:\n        /* \"#utility.yul\":7526:7544   */\n      0x6c6f774c6576656c446174613a3a3a2000000000000000000000000000000000\n        /* \"#utility.yul\":7521:7524   */\n      dup2\n        /* \"#utility.yul\":7514:7545   */\n      mstore\n        /* \"#utility.yul\":7357:7551   */\n      pop\n      jump\t// out\n        /* \"#utility.yul\":7557:8099   */\n    tag_38:\n        /* \"#utility.yul\":7780:7783   */\n      0x00\n        /* \"#utility.yul\":7795:7933   */\n      tag_150\n        /* \"#utility.yul\":7929:7932   */\n      dup3\n        /* \"#utility.yul\":7795:7933   */\n      tag_67\n      jump\t// in\n    tag_150:\n        /* \"#utility.yul\":7958:7960   */\n      0x10\n        /* \"#utility.yul\":7953:7956   */\n      dup3\n        /* \"#utility.yul\":7949:7961   */\n      add\n        /* \"#utility.yul\":7942:7961   */\n      swap2\n      pop\n        /* \"#utility.yul\":7978:8073   */\n      tag_151\n        /* \"#utility.yul\":8069:8072   */\n      dup3\n        /* \"#utility.yul\":8060:8066   */\n      dup5\n        /* \"#utility.yul\":7978:8073   */\n      tag_66\n      jump\t// in\n    tag_151:\n        /* \"#utility.yul\":7971:8073   */\n      swap2\n      pop\n        /* \"#utility.yul\":8090:8093   */\n      dup2\n        /* \"#utility.yul\":8083:8093   */\n      swap1\n      pop\n        /* \"#utility.yul\":7557:8099   */\n      swap3\n      swap2\n      pop\n      pop\n      jump\t// out\n\n    auxdata: 0xa2646970667358221220f257eeb3f1eee569e4da6b29eea82c749c09d7ebc766af204482684c43d4374b64736f6c634300081e0033\n}\n\nsub_1: assembly {\n        /* \"contracts/HandelError.sol\":61:1062  contract HandleError {... */\n      mstore(0x40, 0x80)\n      callvalue\n      dup1\n      iszero\n      tag_1\n      jumpi\n      revert(0x00, 0x00)\n    tag_1:\n      pop\n      dataSize(sub_0)\n      dup1\n      dataOffset(sub_0)\n      0x00\n      codecopy\n      0x00\n      return\n    stop\n\n    sub_0: assembly {\n            /* \"contracts/HandelError.sol\":61:1062  contract HandleError {... */\n          mstore(0x40, 0x80)\n          callvalue\n          dup1\n          iszero\n          tag_1\n          jumpi\n          revert(0x00, 0x00)\n        tag_1:\n          pop\n          jumpi(tag_2, lt(calldatasize, 0x04))\n          shr(0xe0, calldataload(0x00))\n          dup1\n          0x3c104699\n          eq\n          tag_3\n          jumpi\n          dup1\n          0x779d3efc\n          eq\n          tag_4\n          jumpi\n          dup1\n          0xf98ec922\n          eq\n          tag_5\n          jumpi\n        tag_2:\n          revert(0x00, 0x00)\n            /* \"contracts/HandelError.sol\":89:236  function requireError(bool condition) public pure returns (uint256) {... */\n        tag_3:\n          tag_6\n          0x04\n          dup1\n          calldatasize\n          sub\n          dup2\n          add\n          swap1\n          tag_7\n          swap2\n          swap1\n          tag_8\n          jump\t// in\n        tag_7:\n          tag_9\n          jump\t// in\n        tag_6:\n          mload(0x40)\n          tag_10\n          swap2\n          swap1\n          tag_11\n          jump\t// in\n        tag_10:\n          mload(0x40)\n          dup1\n          swap2\n          sub\n          swap1\n          return\n            /* \"contracts/HandelError.sol\":670:1059  function revertError(bool condition) public pure returns (uint256) {... */\n        tag_4:\n          tag_12\n          0x04\n          dup1\n          calldatasize\n          sub\n          dup2\n          add\n          swap1\n          tag_13\n          swap2\n          swap1\n          tag_8\n          jump\t// in\n        tag_13:\n          tag_14\n          jump\t// in\n        tag_12:\n          mload(0x40)\n          tag_15\n          swap2\n          swap1\n          tag_11\n          jump\t// in\n        tag_15:\n          mload(0x40)\n          dup1\n          swap2\n          sub\n          swap1\n          return\n            /* \"contracts/HandelError.sol\":244:389  function assertError(bool condition) public pure returns (uint256) {... */\n        tag_5:\n          tag_16\n          0x04\n          dup1\n          calldatasize\n          sub\n          dup2\n          add\n          swap1\n          tag_17\n          swap2\n          swap1\n          tag_8\n          jump\t// in\n        tag_17:\n          tag_18\n          jump\t// in\n        tag_16:\n          mload(0x40)\n          tag_19\n          swap2\n          swap1\n          tag_11\n          jump\t// in\n        tag_19:\n          mload(0x40)\n          dup1\n          swap2\n          sub\n          swap1\n          return\n            /* \"contracts/HandelError.sol\":89:236  function requireError(bool condition) public pure returns (uint256) {... */\n        tag_9:\n            /* \"contracts/HandelError.sol\":148:155  uint256 */\n          0x00\n            /* \"contracts/HandelError.sol\":176:185  condition */\n          dup2\n            /* \"contracts/HandelError.sol\":168:209  require(condition, \"input is not 'true'\") */\n          tag_21\n          jumpi\n          mload(0x40)\n          0x08c379a000000000000000000000000000000000000000000000000000000000\n          dup2\n          mstore\n          0x04\n          add\n          tag_22\n          swap1\n          tag_23\n          jump\t// in\n        tag_22:\n          mload(0x40)\n          dup1\n          swap2\n          sub\n          swap1\n          revert\n        tag_21:\n            /* \"contracts/HandelError.sol\":227:228  1 */\n          0x01\n            /* \"contracts/HandelError.sol\":220:228  return 1 */\n          swap1\n          pop\n            /* \"contracts/HandelError.sol\":89:236  function requireError(bool condition) public pure returns (uint256) {... */\n          swap2\n          swap1\n          pop\n          jump\t// out\n            /* \"contracts/HandelError.sol\":670:1059  function revertError(bool condition) public pure returns (uint256) {... */\n        tag_14:\n            /* \"contracts/HandelError.sol\":728:735  uint256 */\n          0x00\n            /* \"contracts/HandelError.sol\":753:762  condition */\n          dup2\n            /* \"contracts/HandelError.sol\":748:1033  if (!condition) {... */\n          tag_25\n          jumpi\n            /* \"contracts/HandelError.sol\":997:1021  revert(\"TransferFailed\") */\n          mload(0x40)\n          0x08c379a000000000000000000000000000000000000000000000000000000000\n          dup2\n          mstore\n          0x04\n          add\n          tag_26\n          swap1\n          tag_27\n          jump\t// in\n        tag_26:\n          mload(0x40)\n          dup1\n          swap2\n          sub\n          swap1\n          revert\n            /* \"contracts/HandelError.sol\":748:1033  if (!condition) {... */\n        tag_25:\n            /* \"contracts/HandelError.sol\":1050:1051  1 */\n          0x01\n            /* \"contracts/HandelError.sol\":1043:1051  return 1 */\n          swap1\n          pop\n            /* \"contracts/HandelError.sol\":670:1059  function revertError(bool condition) public pure returns (uint256) {... */\n          swap2\n          swap1\n          pop\n          jump\t// out\n            /* \"contracts/HandelError.sol\":244:389  function assertError(bool condition) public pure returns (uint256) {... */\n        tag_18:\n            /* \"contracts/HandelError.sol\":302:309  uint256 */\n          0x00\n            /* \"contracts/HandelError.sol\":329:338  condition */\n          dup2\n            /* \"contracts/HandelError.sol\":322:339  assert(condition) */\n          tag_29\n          jumpi\n          tag_30\n          tag_31\n          jump\t// in\n        tag_30:\n        tag_29:\n            /* \"contracts/HandelError.sol\":380:381  1 */\n          0x01\n            /* \"contracts/HandelError.sol\":373:381  return 1 */\n          swap1\n          pop\n            /* \"contracts/HandelError.sol\":244:389  function assertError(bool condition) public pure returns (uint256) {... */\n          swap2\n          swap1\n          pop\n          jump\t// out\n            /* \"#utility.yul\":88:205   */\n        tag_33:\n            /* \"#utility.yul\":197:198   */\n          0x00\n            /* \"#utility.yul\":194:195   */\n          0x00\n            /* \"#utility.yul\":187:199   */\n          revert\n            /* \"#utility.yul\":334:424   */\n        tag_35:\n            /* \"#utility.yul\":368:375   */\n          0x00\n            /* \"#utility.yul\":411:416   */\n          dup2\n            /* \"#utility.yul\":404:417   */\n          iszero\n            /* \"#utility.yul\":397:418   */\n          iszero\n            /* \"#utility.yul\":386:418   */\n          swap1\n          pop\n            /* \"#utility.yul\":334:424   */\n          swap2\n          swap1\n          pop\n          jump\t// out\n            /* \"#utility.yul\":430:546   */\n        tag_36:\n            /* \"#utility.yul\":500:521   */\n          tag_51\n            /* \"#utility.yul\":515:520   */\n          dup2\n            /* \"#utility.yul\":500:521   */\n          tag_35\n          jump\t// in\n        tag_51:\n            /* \"#utility.yul\":493:498   */\n          dup2\n            /* \"#utility.yul\":490:522   */\n          eq\n            /* \"#utility.yul\":480:540   */\n          tag_52\n          jumpi\n            /* \"#utility.yul\":536:537   */\n          0x00\n            /* \"#utility.yul\":533:534   */\n          0x00\n            /* \"#utility.yul\":526:538   */\n          revert\n            /* \"#utility.yul\":480:540   */\n        tag_52:\n            /* \"#utility.yul\":430:546   */\n          pop\n          jump\t// out\n            /* \"#utility.yul\":552:685   */\n        tag_37:\n            /* \"#utility.yul\":595:600   */\n          0x00\n            /* \"#utility.yul\":633:639   */\n          dup2\n            /* \"#utility.yul\":620:640   */\n          calldataload\n            /* \"#utility.yul\":611:640   */\n          swap1\n          pop\n            /* \"#utility.yul\":649:679   */\n          tag_54\n            /* \"#utility.yul\":673:678   */\n          dup2\n            /* \"#utility.yul\":649:679   */\n          tag_36\n          jump\t// in\n        tag_54:\n            /* \"#utility.yul\":552:685   */\n          swap3\n          swap2\n          pop\n          pop\n          jump\t// out\n            /* \"#utility.yul\":691:1014   */\n        tag_8:\n            /* \"#utility.yul\":747:753   */\n          0x00\n            /* \"#utility.yul\":796:798   */\n          0x20\n            /* \"#utility.yul\":784:793   */\n          dup3\n            /* \"#utility.yul\":775:782   */\n          dup5\n            /* \"#utility.yul\":771:794   */\n          sub\n            /* \"#utility.yul\":767:799   */\n          slt\n            /* \"#utility.yul\":764:883   */\n          iszero\n          tag_56\n          jumpi\n            /* \"#utility.yul\":802:881   */\n          tag_57\n          tag_33\n          jump\t// in\n        tag_57:\n            /* \"#utility.yul\":764:883   */\n        tag_56:\n            /* \"#utility.yul\":922:923   */\n          0x00\n            /* \"#utility.yul\":947:997   */\n          tag_58\n            /* \"#utility.yul\":989:996   */\n          dup5\n            /* \"#utility.yul\":980:986   */\n          dup3\n            /* \"#utility.yul\":969:978   */\n          dup6\n            /* \"#utility.yul\":965:987   */\n          add\n            /* \"#utility.yul\":947:997   */\n          tag_37\n          jump\t// in\n        tag_58:\n            /* \"#utility.yul\":937:997   */\n          swap2\n          pop\n            /* \"#utility.yul\":893:1007   */\n          pop\n            /* \"#utility.yul\":691:1014   */\n          swap3\n          swap2\n          pop\n          pop\n          jump\t// out\n            /* \"#utility.yul\":1020:1097   */\n        tag_38:\n            /* \"#utility.yul\":1057:1064   */\n          0x00\n            /* \"#utility.yul\":1086:1091   */\n          dup2\n            /* \"#utility.yul\":1075:1091   */\n          swap1\n          pop\n            /* \"#utility.yul\":1020:1097   */\n          swap2\n          swap1\n          pop\n          jump\t// out\n            /* \"#utility.yul\":1103:1221   */\n        tag_39:\n            /* \"#utility.yul\":1190:1214   */\n          tag_61\n            /* \"#utility.yul\":1208:1213   */\n          dup2\n            /* \"#utility.yul\":1190:1214   */\n          tag_38\n          jump\t// in\n        tag_61:\n            /* \"#utility.yul\":1185:1188   */\n          dup3\n            /* \"#utility.yul\":1178:1215   */\n          mstore\n            /* \"#utility.yul\":1103:1221   */\n          pop\n          pop\n          jump\t// out\n            /* \"#utility.yul\":1227:1449   */\n        tag_11:\n            /* \"#utility.yul\":1320:1324   */\n          0x00\n            /* \"#utility.yul\":1358:1360   */\n          0x20\n            /* \"#utility.yul\":1347:1356   */\n          dup3\n            /* \"#utility.yul\":1343:1361   */\n          add\n            /* \"#utility.yul\":1335:1361   */\n          swap1\n          pop\n            /* \"#utility.yul\":1371:1442   */\n          tag_63\n            /* \"#utility.yul\":1439:1440   */\n          0x00\n            /* \"#utility.yul\":1428:1437   */\n          dup4\n            /* \"#utility.yul\":1424:1441   */\n          add\n            /* \"#utility.yul\":1415:1421   */\n          dup5\n            /* \"#utility.yul\":1371:1442   */\n          tag_39\n          jump\t// in\n        tag_63:\n            /* \"#utility.yul\":1227:1449   */\n          swap3\n          swap2\n          pop\n          pop\n          jump\t// out\n            /* \"#utility.yul\":1455:1624   */\n        tag_40:\n            /* \"#utility.yul\":1539:1550   */\n          0x00\n            /* \"#utility.yul\":1573:1579   */\n          dup3\n            /* \"#utility.yul\":1568:1571   */\n          dup3\n            /* \"#utility.yul\":1561:1580   */\n          mstore\n            /* \"#utility.yul\":1613:1617   */\n          0x20\n            /* \"#utility.yul\":1608:1611   */\n          dup3\n            /* \"#utility.yul\":1604:1618   */\n          add\n            /* \"#utility.yul\":1589:1618   */\n          swap1\n          pop\n            /* \"#utility.yul\":1455:1624   */\n          swap3\n          swap2\n          pop\n          pop\n          jump\t// out\n            /* \"#utility.yul\":1630:1799   */\n        tag_41:\n            /* \"#utility.yul\":1770:1791   */\n          0x696e707574206973206e6f742027747275652700000000000000000000000000\n            /* \"#utility.yul\":1766:1767   */\n          0x00\n            /* \"#utility.yul\":1758:1764   */\n          dup3\n            /* \"#utility.yul\":1754:1768   */\n          add\n            /* \"#utility.yul\":1747:1792   */\n          mstore\n            /* \"#utility.yul\":1630:1799   */\n          pop\n          jump\t// out\n            /* \"#utility.yul\":1805:2171   */\n        tag_42:\n            /* \"#utility.yul\":1947:1950   */\n          0x00\n            /* \"#utility.yul\":1968:2035   */\n          tag_67\n            /* \"#utility.yul\":2032:2034   */\n          0x13\n            /* \"#utility.yul\":2027:2030   */\n          dup4\n            /* \"#utility.yul\":1968:2035   */\n          tag_40\n          jump\t// in\n        tag_67:\n            /* \"#utility.yul\":1961:2035   */\n          swap2\n          pop\n            /* \"#utility.yul\":2044:2137   */\n          tag_68\n            /* \"#utility.yul\":2133:2136   */\n          dup3\n            /* \"#utility.yul\":2044:2137   */\n          tag_41\n          jump\t// in\n        tag_68:\n            /* \"#utility.yul\":2162:2164   */\n          0x20\n            /* \"#utility.yul\":2157:2160   */\n          dup3\n            /* \"#utility.yul\":2153:2165   */\n          add\n            /* \"#utility.yul\":2146:2165   */\n          swap1\n          pop\n            /* \"#utility.yul\":1805:2171   */\n          swap2\n          swap1\n          pop\n          jump\t// out\n            /* \"#utility.yul\":2177:2596   */\n        tag_23:\n            /* \"#utility.yul\":2343:2347   */\n          0x00\n            /* \"#utility.yul\":2381:2383   */\n          0x20\n            /* \"#utility.yul\":2370:2379   */\n          dup3\n            /* \"#utility.yul\":2366:2384   */\n          add\n            /* \"#utility.yul\":2358:2384   */\n          swap1\n          pop\n            /* \"#utility.yul\":2430:2439   */\n          dup2\n            /* \"#utility.yul\":2424:2428   */\n          dup2\n            /* \"#utility.yul\":2420:2440   */\n          sub\n            /* \"#utility.yul\":2416:2417   */\n          0x00\n            /* \"#utility.yul\":2405:2414   */\n          dup4\n            /* \"#utility.yul\":2401:2418   */\n          add\n            /* \"#utility.yul\":2394:2441   */\n          mstore\n            /* \"#utility.yul\":2458:2589   */\n          tag_70\n            /* \"#utility.yul\":2584:2588   */\n          dup2\n            /* \"#utility.yul\":2458:2589   */\n          tag_42\n          jump\t// in\n        tag_70:\n            /* \"#utility.yul\":2450:2589   */\n          swap1\n          pop\n            /* \"#utility.yul\":2177:2596   */\n          swap2\n          swap1\n          pop\n          jump\t// out\n            /* \"#utility.yul\":2602:2766   */\n        tag_43:\n            /* \"#utility.yul\":2742:2758   */\n          0x5472616e736665724661696c6564000000000000000000000000000000000000\n            /* \"#utility.yul\":2738:2739   */\n          0x00\n            /* \"#utility.yul\":2730:2736   */\n          dup3\n            /* \"#utility.yul\":2726:2740   */\n          add\n            /* \"#utility.yul\":2719:2759   */\n          mstore\n            /* \"#utility.yul\":2602:2766   */\n          pop\n          jump\t// out\n            /* \"#utility.yul\":2772:3138   */\n        tag_44:\n            /* \"#utility.yul\":2914:2917   */\n          0x00\n            /* \"#utility.yul\":2935:3002   */\n          tag_73\n            /* \"#utility.yul\":2999:3001   */\n          0x0e\n            /* \"#utility.yul\":2994:2997   */\n          dup4\n            /* \"#utility.yul\":2935:3002   */\n          tag_40\n          jump\t// in\n        tag_73:\n            /* \"#utility.yul\":2928:3002   */\n          swap2\n          pop\n            /* \"#utility.yul\":3011:3104   */\n          tag_74\n            /* \"#utility.yul\":3100:3103   */\n          dup3\n            /* \"#utility.yul\":3011:3104   */\n          tag_43\n          jump\t// in\n        tag_74:\n            /* \"#utility.yul\":3129:3131   */\n          0x20\n            /* \"#utility.yul\":3124:3127   */\n          dup3\n            /* \"#utility.yul\":3120:3132   */\n          add\n            /* \"#utility.yul\":3113:3132   */\n          swap1\n          pop\n            /* \"#utility.yul\":2772:3138   */\n          swap2\n          swap1\n          pop\n          jump\t// out\n            /* \"#utility.yul\":3144:3563   */\n        tag_27:\n            /* \"#utility.yul\":3310:3314   */\n          0x00\n            /* \"#utility.yul\":3348:3350   */\n          0x20\n            /* \"#utility.yul\":3337:3346   */\n          dup3\n            /* \"#utility.yul\":3333:3351   */\n          add\n            /* \"#utility.yul\":3325:3351   */\n          swap1\n          pop\n            /* \"#utility.yul\":3397:3406   */\n          dup2\n            /* \"#utility.yul\":3391:3395   */\n          dup2\n            /* \"#utility.yul\":3387:3407   */\n          sub\n            /* \"#utility.yul\":3383:3384   */\n          0x00\n            /* \"#utility.yul\":3372:3381   */\n          dup4\n            /* \"#utility.yul\":3368:3385   */\n          add\n            /* \"#utility.yul\":3361:3408   */\n          mstore\n            /* \"#utility.yul\":3425:3556   */\n          tag_76\n            /* \"#utility.yul\":3551:3555   */\n          dup2\n            /* \"#utility.yul\":3425:3556   */\n          tag_44\n          jump\t// in\n        tag_76:\n            /* \"#utility.yul\":3417:3556   */\n          swap1\n          pop\n            /* \"#utility.yul\":3144:3563   */\n          swap2\n          swap1\n          pop\n          jump\t// out\n            /* \"#utility.yul\":3569:3749   */\n        tag_31:\n            /* \"#utility.yul\":3617:3694   */\n          0x4e487b7100000000000000000000000000000000000000000000000000000000\n            /* \"#utility.yul\":3614:3615   */\n          0x00\n            /* \"#utility.yul\":3607:3695   */\n          mstore\n            /* \"#utility.yul\":3714:3718   */\n          0x01\n            /* \"#utility.yul\":3711:3712   */\n          0x04\n            /* \"#utility.yul\":3704:3719   */\n          mstore\n            /* \"#utility.yul\":3738:3742   */\n          0x24\n            /* \"#utility.yul\":3735:3736   */\n          0x00\n            /* \"#utility.yul\":3728:3743   */\n          revert\n\n        auxdata: 0xa264697066735822122080359f98edcfa52dcb01e29119049efb4c9cb9e04e716ede3a072df48d9a2c4864736f6c634300081e0033\n    }\n}\n",
				"bytecode": {
					"linkReferences": {},
					"object": "6080604052348015600e575f5ffd5b506040516019906074565b604051809103905ff0801580156031573d5f5f3e3d5ffd5b505f5f6101000a81548173ffffffffffffffffffffffffffffffffffffffff021916908373ffffffffffffffffffffffffffffffffffffffff1602179055506081565b6103738061076483390190565b6106d68061008e5f395ff3fe608060405234801561000f575f5ffd5b5060043610610034575f3560e01c806333f1499e1461003857806333f747f914610056575b5f5ffd5b610040610086565b60405161004d91906102fe565b60405180910390f35b610070600480360381019061006b9190610359565b6100aa565b60405161007d91906103f4565b60405180910390f35b5f5f9054906101000a900473ffffffffffffffffffffffffffffffffffffffff1681565b60605f5f9054906101000a900473ffffffffffffffffffffffffffffffffffffffff1673ffffffffffffffffffffffffffffffffffffffff1663779d3efc836040518263ffffffff1660e01b81526004016101059190610423565b602060405180830381865afa92505050801561013f57506040513d601f19601f8201168201806040525081019061013c919061046f565b60015b6102455761014b6104a6565b806308c379a003610192575061015f610523565b8061016a57506101ed565b8060405160200161017b9190610612565b60405160208183030381529060405291505061027f565b634e487b71036101ed576101a4610637565b906101af57506101ed565b6040518060400160405280600581526020017f70616e696300000000000000000000000000000000000000000000000000000081525091505061027f565b3d805f8114610217576040519150601f19603f3d011682016040523d82523d5f602084013e61021c565b606091505b508060405160200161022e919061067b565b60405160208183030381529060405291505061027f565b6040518060400160405280600781526020017f73756363657373000000000000000000000000000000000000000000000000008152509150505b919050565b5f73ffffffffffffffffffffffffffffffffffffffff82169050919050565b5f819050919050565b5f6102c66102c16102bc84610284565b6102a3565b610284565b9050919050565b5f6102d7826102ac565b9050919050565b5f6102e8826102cd565b9050919050565b6102f8816102de565b82525050565b5f6020820190506103115f8301846102ef565b92915050565b5f604051905090565b5f5ffd5b5f8115159050919050565b61033881610324565b8114610342575f5ffd5b50565b5f813590506103538161032f565b92915050565b5f6020828403121561036e5761036d610320565b5b5f61037b84828501610345565b91505092915050565b5f81519050919050565b5f82825260208201905092915050565b8281835e5f83830152505050565b5f601f19601f8301169050919050565b5f6103c682610384565b6103d0818561038e565b93506103e081856020860161039e565b6103e9816103ac565b840191505092915050565b5f6020820190508181035f83015261040c81846103bc565b905092915050565b61041d81610324565b82525050565b5f6020820190506104365f830184610414565b92915050565b5f819050919050565b61044e8161043c565b8114610458575f5ffd5b50565b5f8151905061046981610445565b92915050565b5f6020828403121561048457610483610320565b5b5f6104918482850161045b565b91505092915050565b5f8160e01c9050919050565b5f60033d11156104c25760045f5f3e6104bf5f5161049a565b90505b90565b7f4e487b71000000000000000000000000000000000000000000000000000000005f52604160045260245ffd5b6104fb826103ac565b810181811067ffffffffffffffff8211171561051a576105196104c5565b5b80604052505050565b5f60443d106105af57610534610317565b60043d036004823e80513d602482011167ffffffffffffffff8211171561055c5750506105af565b808201805167ffffffffffffffff81111561057a57505050506105af565b80602083010160043d0385018111156105975750505050506105af565b6105a6826020018501866104f2565b82955050505050505b90565b7f726561736f6e3a3a3a2000000000000000000000000000000000000000000000815250565b5f81905092915050565b5f6105ec82610384565b6105f681856105d8565b935061060681856020860161039e565b80840191505092915050565b5f61061c826105b2565b600a8201915061062c82846105e2565b915081905092915050565b5f5f60233d111561065157602060045f3e600191505f5190505b9091565b7f6c6f774c6576656c446174613a3a3a2000000000000000000000000000000000815250565b5f61068582610655565b60108201915061069582846105e2565b91508190509291505056fea2646970667358221220f257eeb3f1eee569e4da6b29eea82c749c09d7ebc766af204482684c43d4374b64736f6c634300081e00336080604052348015600e575f5ffd5b506103578061001c5f395ff3fe608060405234801561000f575f5ffd5b506004361061003f575f3560e01c80633c10469914610043578063779d3efc14610073578063f98ec922146100a3575b5f5ffd5b61005d600480360381019061005891906101b8565b6100d3565b60405161006a91906101fb565b60405180910390f35b61008d600480360381019061008891906101b8565b61011d565b60405161009a91906101fb565b60405180910390f35b6100bd60048036038101906100b891906101b8565b610167565b6040516100ca91906101fb565b60405180910390f35b5f81610114576040517f08c379a000000000000000000000000000000000000000000000000000000000815260040161010b9061026e565b60405180910390fd5b60019050919050565b5f8161015e576040517f08c379a0000000000000000000000000000000000000000000000000000000008152600401610155906102d6565b60405180910390fd5b60019050919050565b5f81610176576101756102f4565b5b60019050919050565b5f5ffd5b5f8115159050919050565b61019781610183565b81146101a1575f5ffd5b50565b5f813590506101b28161018e565b92915050565b5f602082840312156101cd576101cc61017f565b5b5f6101da848285016101a4565b91505092915050565b5f819050919050565b6101f5816101e3565b82525050565b5f60208201905061020e5f8301846101ec565b92915050565b5f82825260208201905092915050565b7f696e707574206973206e6f7420277472756527000000000000000000000000005f82015250565b5f610258601383610214565b915061026382610224565b602082019050919050565b5f6020820190508181035f8301526102858161024c565b9050919050565b7f5472616e736665724661696c65640000000000000000000000000000000000005f82015250565b5f6102c0600e83610214565b91506102cb8261028c565b602082019050919050565b5f6020820190508181035f8301526102ed816102b4565b9050919050565b7f4e487b71000000000000000000000000000000000000000000000000000000005f52600160045260245ffdfea264697066735822122080359f98edcfa52dcb01e29119049efb4c9cb9e04e716ede3a072df48d9a2c4864736f6c634300081e0033",
					"opcodes": "PUSH1 0x80 PUSH1 0x40 MSTORE CALLVALUE DUP1 ISZERO PUSH1 0xE JUMPI PUSH0 PUSH0 REVERT JUMPDEST POP PUSH1 0x40 MLOAD PUSH1 0x19 SWAP1 PUSH1 0x74 JUMP JUMPDEST PUSH1 0x40 MLOAD DUP1 SWAP2 SUB SWAP1 PUSH0 CREATE DUP1 ISZERO DUP1 ISZERO PUSH1 0x31 JUMPI RETURNDATASIZE PUSH0 PUSH0 RETURNDATACOPY RETURNDATASIZE PUSH0 REVERT JUMPDEST POP PUSH0 PUSH0 PUSH2 0x100 EXP DUP2 SLOAD DUP2 PUSH20 0xFFFFFFFFFFFFFFFFFFFFFFFFFFFFFFFFFFFFFFFF MUL NOT AND SWAP1 DUP4 PUSH20 0xFFFFFFFFFFFFFFFFFFFFFFFFFFFFFFFFFFFFFFFF AND MUL OR SWAP1 SSTORE POP PUSH1 0x81 JUMP JUMPDEST PUSH2 0x373 DUP1 PUSH2 0x764 DUP4 CODECOPY ADD SWAP1 JUMP JUMPDEST PUSH2 0x6D6 DUP1 PUSH2 0x8E PUSH0 CODECOPY PUSH0 RETURN INVALID PUSH1 0x80 PUSH1 0x40 MSTORE CALLVALUE DUP1 ISZERO PUSH2 0xF JUMPI PUSH0 PUSH0 REVERT JUMPDEST POP PUSH1 0x4 CALLDATASIZE LT PUSH2 0x34 JUMPI PUSH0 CALLDATALOAD PUSH1 0xE0 SHR DUP1 PUSH4 0x33F1499E EQ PUSH2 0x38 JUMPI DUP1 PUSH4 0x33F747F9 EQ PUSH2 0x56 JUMPI JUMPDEST PUSH0 PUSH0 REVERT JUMPDEST PUSH2 0x40 PUSH2 0x86 JUMP JUMPDEST PUSH1 0x40 MLOAD PUSH2 0x4D SWAP2 SWAP1 PUSH2 0x2FE JUMP JUMPDEST PUSH1 0x40 MLOAD DUP1 SWAP2 SUB SWAP1 RETURN JUMPDEST PUSH2 0x70 PUSH1 0x4 DUP1 CALLDATASIZE SUB DUP2 ADD SWAP1 PUSH2 0x6B SWAP2 SWAP1 PUSH2 0x359 JUMP JUMPDEST PUSH2 0xAA JUMP JUMPDEST PUSH1 0x40 MLOAD PUSH2 0x7D SWAP2 SWAP1 PUSH2 0x3F4 JUMP JUMPDEST PUSH1 0x40 MLOAD DUP1 SWAP2 SUB SWAP1 RETURN JUMPDEST PUSH0 PUSH0 SWAP1 SLOAD SWAP1 PUSH2 0x100 EXP SWAP1 DIV PUSH20 0xFFFFFFFFFFFFFFFFFFFFFFFFFFFFFFFFFFFFFFFF AND DUP2 JUMP JUMPDEST PUSH1 0x60 PUSH0 PUSH0 SWAP1 SLOAD SWAP1 PUSH2 0x100 EXP SWAP1 DIV PUSH20 0xFFFFFFFFFFFFFFFFFFFFFFFFFFFFFFFFFFFFFFFF AND PUSH20 0xFFFFFFFFFFFFFFFFFFFFFFFFFFFFFFFFFFFFFFFF AND PUSH4 0x779D3EFC DUP4 PUSH1 0x40 MLOAD DUP3 PUSH4 0xFFFFFFFF AND PUSH1 0xE0 SHL DUP2 MSTORE PUSH1 0x4 ADD PUSH2 0x105 SWAP2 SWAP1 PUSH2 0x423 JUMP JUMPDEST PUSH1 0x20 PUSH1 0x40 MLOAD DUP1 DUP4 SUB DUP2 DUP7 GAS STATICCALL SWAP3 POP POP POP DUP1 ISZERO PUSH2 0x13F JUMPI POP PUSH1 0x40 MLOAD RETURNDATASIZE PUSH1 0x1F NOT PUSH1 0x1F DUP3 ADD AND DUP3 ADD DUP1 PUSH1 0x40 MSTORE POP DUP2 ADD SWAP1 PUSH2 0x13C SWAP2 SWAP1 PUSH2 0x46F JUMP JUMPDEST PUSH1 0x1 JUMPDEST PUSH2 0x245 JUMPI PUSH2 0x14B PUSH2 0x4A6 JUMP JUMPDEST DUP1 PUSH4 0x8C379A0 SUB PUSH2 0x192 JUMPI POP PUSH2 0x15F PUSH2 0x523 JUMP JUMPDEST DUP1 PUSH2 0x16A JUMPI POP PUSH2 0x1ED JUMP JUMPDEST DUP1 PUSH1 0x40 MLOAD PUSH1 0x20 ADD PUSH2 0x17B SWAP2 SWAP1 PUSH2 0x612 JUMP JUMPDEST PUSH1 0x40 MLOAD PUSH1 0x20 DUP2 DUP4 SUB SUB DUP2 MSTORE SWAP1 PUSH1 0x40 MSTORE SWAP2 POP POP PUSH2 0x27F JUMP JUMPDEST PUSH4 0x4E487B71 SUB PUSH2 0x1ED JUMPI PUSH2 0x1A4 PUSH2 0x637 JUMP JUMPDEST SWAP1 PUSH2 0x1AF JUMPI POP PUSH2 0x1ED JUMP JUMPDEST PUSH1 0x40 MLOAD DUP1 PUSH1 0x40 ADD PUSH1 0x40 MSTORE DUP1 PUSH1 0x5 DUP2 MSTORE PUSH1 0x20 ADD PUSH32 0x70616E6963000000000000000000000000000000000000000000000000000000 DUP2 MSTORE POP SWAP2 POP POP PUSH2 0x27F JUMP JUMPDEST RETURNDATASIZE DUP1 PUSH0 DUP2 EQ PUSH2 0x217 JUMPI PUSH1 0x40 MLOAD SWAP2 POP PUSH1 0x1F NOT PUSH1 0x3F RETURNDATASIZE ADD AND DUP3 ADD PUSH1 0x40 MSTORE RETURNDATASIZE DUP3 MSTORE RETURNDATASIZE PUSH0 PUSH1 0x20 DUP5 ADD RETURNDATACOPY PUSH2 0x21C JUMP JUMPDEST PUSH1 0x60 SWAP2 POP JUMPDEST POP DUP1 PUSH1 0x40 MLOAD PUSH1 0x20 ADD PUSH2 0x22E SWAP2 SWAP1 PUSH2 0x67B JUMP JUMPDEST PUSH1 0x40 MLOAD PUSH1 0x20 DUP2 DUP4 SUB SUB DUP2 MSTORE SWAP1 PUSH1 0x40 MSTORE SWAP2 POP POP PUSH2 0x27F JUMP JUMPDEST PUSH1 0x40 MLOAD DUP1 PUSH1 0x40 ADD PUSH1 0x40 MSTORE DUP1 PUSH1 0x7 DUP2 MSTORE PUSH1 0x20 ADD PUSH32 0x7375636365737300000000000000000000000000000000000000000000000000 DUP2 MSTORE POP SWAP2 POP POP JUMPDEST SWAP2 SWAP1 POP JUMP JUMPDEST PUSH0 PUSH20 0xFFFFFFFFFFFFFFFFFFFFFFFFFFFFFFFFFFFFFFFF DUP3 AND SWAP1 POP SWAP2 SWAP1 POP JUMP JUMPDEST PUSH0 DUP2 SWAP1 POP SWAP2 SWAP1 POP JUMP JUMPDEST PUSH0 PUSH2 0x2C6 PUSH2 0x2C1 PUSH2 0x2BC DUP5 PUSH2 0x284 JUMP JUMPDEST PUSH2 0x2A3 JUMP JUMPDEST PUSH2 0x284 JUMP JUMPDEST SWAP1 POP SWAP2 SWAP1 POP JUMP JUMPDEST PUSH0 PUSH2 0x2D7 DUP3 PUSH2 0x2AC JUMP JUMPDEST SWAP1 POP SWAP2 SWAP1 POP JUMP JUMPDEST PUSH0 PUSH2 0x2E8 DUP3 PUSH2 0x2CD JUMP JUMPDEST SWAP1 POP SWAP2 SWAP1 POP JUMP JUMPDEST PUSH2 0x2F8 DUP2 PUSH2 0x2DE JUMP JUMPDEST DUP3 MSTORE POP POP JUMP JUMPDEST PUSH0 PUSH1 0x20 DUP3 ADD SWAP1 POP PUSH2 0x311 PUSH0 DUP4 ADD DUP5 PUSH2 0x2EF JUMP JUMPDEST SWAP3 SWAP2 POP POP JUMP JUMPDEST PUSH0 PUSH1 0x40 MLOAD SWAP1 POP SWAP1 JUMP JUMPDEST PUSH0 PUSH0 REVERT JUMPDEST PUSH0 DUP2 ISZERO ISZERO SWAP1 POP SWAP2 SWAP1 POP JUMP JUMPDEST PUSH2 0x338 DUP2 PUSH2 0x324 JUMP JUMPDEST DUP2 EQ PUSH2 0x342 JUMPI PUSH0 PUSH0 REVERT JUMPDEST POP JUMP JUMPDEST PUSH0 DUP2 CALLDATALOAD SWAP1 POP PUSH2 0x353 DUP2 PUSH2 0x32F JUMP JUMPDEST SWAP3 SWAP2 POP POP JUMP JUMPDEST PUSH0 PUSH1 0x20 DUP3 DUP5 SUB SLT ISZERO PUSH2 0x36E JUMPI PUSH2 0x36D PUSH2 0x320 JUMP JUMPDEST JUMPDEST PUSH0 PUSH2 0x37B DUP5 DUP3 DUP6 ADD PUSH2 0x345 JUMP JUMPDEST SWAP2 POP POP SWAP3 SWAP2 POP POP JUMP JUMPDEST PUSH0 DUP2 MLOAD SWAP1 POP SWAP2 SWAP1 POP JUMP JUMPDEST PUSH0 DUP3 DUP3 MSTORE PUSH1 0x20 DUP3 ADD SWAP1 POP SWAP3 SWAP2 POP POP JUMP JUMPDEST DUP3 DUP2 DUP4 MCOPY PUSH0 DUP4 DUP4 ADD MSTORE POP POP POP JUMP JUMPDEST PUSH0 PUSH1 0x1F NOT PUSH1 0x1F DUP4 ADD AND SWAP1 POP SWAP2 SWAP1 POP JUMP JUMPDEST PUSH0 PUSH2 0x3C6 DUP3 PUSH2 0x384 JUMP JUMPDEST PUSH2 0x3D0 DUP2 DUP6 PUSH2 0x38E JUMP JUMPDEST SWAP4 POP PUSH2 0x3E0 DUP2 DUP6 PUSH1 0x20 DUP7 ADD PUSH2 0x39E JUMP JUMPDEST PUSH2 0x3E9 DUP2 PUSH2 0x3AC JUMP JUMPDEST DUP5 ADD SWAP2 POP POP SWAP3 SWAP2 POP POP JUMP JUMPDEST PUSH0 PUSH1 0x20 DUP3 ADD SWAP1 POP DUP2 DUP2 SUB PUSH0 DUP4 ADD MSTORE PUSH2 0x40C DUP2 DUP5 PUSH2 0x3BC JUMP JUMPDEST SWAP1 POP SWAP3 SWAP2 POP POP JUMP JUMPDEST PUSH2 0x41D DUP2 PUSH2 0x324 JUMP JUMPDEST DUP3 MSTORE POP POP JUMP JUMPDEST PUSH0 PUSH1 0x20 DUP3 ADD SWAP1 POP PUSH2 0x436 PUSH0 DUP4 ADD DUP5 PUSH2 0x414 JUMP JUMPDEST SWAP3 SWAP2 POP POP JUMP JUMPDEST PUSH0 DUP2 SWAP1 POP SWAP2 SWAP1 POP JUMP JUMPDEST PUSH2 0x44E DUP2 PUSH2 0x43C JUMP JUMPDEST DUP2 EQ PUSH2 0x458 JUMPI PUSH0 PUSH0 REVERT JUMPDEST POP JUMP JUMPDEST PUSH0 DUP2 MLOAD SWAP1 POP PUSH2 0x469 DUP2 PUSH2 0x445 JUMP JUMPDEST SWAP3 SWAP2 POP POP JUMP JUMPDEST PUSH0 PUSH1 0x20 DUP3 DUP5 SUB SLT ISZERO PUSH2 0x484 JUMPI PUSH2 0x483 PUSH2 0x320 JUMP JUMPDEST JUMPDEST PUSH0 PUSH2 0x491 DUP5 DUP3 DUP6 ADD PUSH2 0x45B JUMP JUMPDEST SWAP2 POP POP SWAP3 SWAP2 POP POP JUMP JUMPDEST PUSH0 DUP2 PUSH1 0xE0 SHR SWAP1 POP SWAP2 SWAP1 POP JUMP JUMPDEST PUSH0 PUSH1 0x3 RETURNDATASIZE GT ISZERO PUSH2 0x4C2 JUMPI PUSH1 0x4 PUSH0 PUSH0 RETURNDATACOPY PUSH2 0x4BF PUSH0 MLOAD PUSH2 0x49A JUMP JUMPDEST SWAP1 POP JUMPDEST SWAP1 JUMP JUMPDEST PUSH32 0x4E487B7100000000000000000000000000000000000000000000000000000000 PUSH0 MSTORE PUSH1 0x41 PUSH1 0x4 MSTORE PUSH1 0x24 PUSH0 REVERT JUMPDEST PUSH2 0x4FB DUP3 PUSH2 0x3AC JUMP JUMPDEST DUP2 ADD DUP2 DUP2 LT PUSH8 0xFFFFFFFFFFFFFFFF DUP3 GT OR ISZERO PUSH2 0x51A JUMPI PUSH2 0x519 PUSH2 0x4C5 JUMP JUMPDEST JUMPDEST DUP1 PUSH1 0x40 MSTORE POP POP POP JUMP JUMPDEST PUSH0 PUSH1 0x44 RETURNDATASIZE LT PUSH2 0x5AF JUMPI PUSH2 0x534 PUSH2 0x317 JUMP JUMPDEST PUSH1 0x4 RETURNDATASIZE SUB PUSH1 0x4 DUP3 RETURNDATACOPY DUP1 MLOAD RETURNDATASIZE PUSH1 0x24 DUP3 ADD GT PUSH8 0xFFFFFFFFFFFFFFFF DUP3 GT OR ISZERO PUSH2 0x55C JUMPI POP POP PUSH2 0x5AF JUMP JUMPDEST DUP1 DUP3 ADD DUP1 MLOAD PUSH8 0xFFFFFFFFFFFFFFFF DUP2 GT ISZERO PUSH2 0x57A JUMPI POP POP POP POP PUSH2 0x5AF JUMP JUMPDEST DUP1 PUSH1 0x20 DUP4 ADD ADD PUSH1 0x4 RETURNDATASIZE SUB DUP6 ADD DUP2 GT ISZERO PUSH2 0x597 JUMPI POP POP POP POP POP PUSH2 0x5AF JUMP JUMPDEST PUSH2 0x5A6 DUP3 PUSH1 0x20 ADD DUP6 ADD DUP7 PUSH2 0x4F2 JUMP JUMPDEST DUP3 SWAP6 POP POP POP POP POP POP JUMPDEST SWAP1 JUMP JUMPDEST PUSH32 0x726561736F6E3A3A3A2000000000000000000000000000000000000000000000 DUP2 MSTORE POP JUMP JUMPDEST PUSH0 DUP2 SWAP1 POP SWAP3 SWAP2 POP POP JUMP JUMPDEST PUSH0 PUSH2 0x5EC DUP3 PUSH2 0x384 JUMP JUMPDEST PUSH2 0x5F6 DUP2 DUP6 PUSH2 0x5D8 JUMP JUMPDEST SWAP4 POP PUSH2 0x606 DUP2 DUP6 PUSH1 0x20 DUP7 ADD PUSH2 0x39E JUMP JUMPDEST DUP1 DUP5 ADD SWAP2 POP POP SWAP3 SWAP2 POP POP JUMP JUMPDEST PUSH0 PUSH2 0x61C DUP3 PUSH2 0x5B2 JUMP JUMPDEST PUSH1 0xA DUP3 ADD SWAP2 POP PUSH2 0x62C DUP3 DUP5 PUSH2 0x5E2 JUMP JUMPDEST SWAP2 POP DUP2 SWAP1 POP SWAP3 SWAP2 POP POP JUMP JUMPDEST PUSH0 PUSH0 PUSH1 0x23 RETURNDATASIZE GT ISZERO PUSH2 0x651 JUMPI PUSH1 0x20 PUSH1 0x4 PUSH0 RETURNDATACOPY PUSH1 0x1 SWAP2 POP PUSH0 MLOAD SWAP1 POP JUMPDEST SWAP1 SWAP2 JUMP JUMPDEST PUSH32 0x6C6F774C6576656C446174613A3A3A2000000000000000000000000000000000 DUP2 MSTORE POP JUMP JUMPDEST PUSH0 PUSH2 0x685 DUP3 PUSH2 0x655 JUMP JUMPDEST PUSH1 0x10 DUP3 ADD SWAP2 POP PUSH2 0x695 DUP3 DUP5 PUSH2 0x5E2 JUMP JUMPDEST SWAP2 POP DUP2 SWAP1 POP SWAP3 SWAP2 POP POP JUMP INVALID LOG2 PUSH5 0x6970667358 0x22 SLT KECCAK256 CALLCODE JUMPI RETURNCONTRACT 0xB3 CALL RETURNCONTRACT 0xE5 PUSH10 0xE4DA6B29EEA82C749C09 0xD7 0xEB 0xC7 PUSH7 0xAF204482684C43 0xD4 CALLDATACOPY 0x4B PUSH5 0x736F6C6343 STOP ADDMOD 0x1E STOP CALLER PUSH1 0x80 PUSH1 0x40 MSTORE CALLVALUE DUP1 ISZERO PUSH1 0xE JUMPI PUSH0 PUSH0 REVERT JUMPDEST POP PUSH2 0x357 DUP1 PUSH2 0x1C PUSH0 CODECOPY PUSH0 RETURN INVALID PUSH1 0x80 PUSH1 0x40 MSTORE CALLVALUE DUP1 ISZERO PUSH2 0xF JUMPI PUSH0 PUSH0 REVERT JUMPDEST POP PUSH1 0x4 CALLDATASIZE LT PUSH2 0x3F JUMPI PUSH0 CALLDATALOAD PUSH1 0xE0 SHR DUP1 PUSH4 0x3C104699 EQ PUSH2 0x43 JUMPI DUP1 PUSH4 0x779D3EFC EQ PUSH2 0x73 JUMPI DUP1 PUSH4 0xF98EC922 EQ PUSH2 0xA3 JUMPI JUMPDEST PUSH0 PUSH0 REVERT JUMPDEST PUSH2 0x5D PUSH1 0x4 DUP1 CALLDATASIZE SUB DUP2 ADD SWAP1 PUSH2 0x58 SWAP2 SWAP1 PUSH2 0x1B8 JUMP JUMPDEST PUSH2 0xD3 JUMP JUMPDEST PUSH1 0x40 MLOAD PUSH2 0x6A SWAP2 SWAP1 PUSH2 0x1FB JUMP JUMPDEST PUSH1 0x40 MLOAD DUP1 SWAP2 SUB SWAP1 RETURN JUMPDEST PUSH2 0x8D PUSH1 0x4 DUP1 CALLDATASIZE SUB DUP2 ADD SWAP1 PUSH2 0x88 SWAP2 SWAP1 PUSH2 0x1B8 JUMP JUMPDEST PUSH2 0x11D JUMP JUMPDEST PUSH1 0x40 MLOAD PUSH2 0x9A SWAP2 SWAP1 PUSH2 0x1FB JUMP JUMPDEST PUSH1 0x40 MLOAD DUP1 SWAP2 SUB SWAP1 RETURN JUMPDEST PUSH2 0xBD PUSH1 0x4 DUP1 CALLDATASIZE SUB DUP2 ADD SWAP1 PUSH2 0xB8 SWAP2 SWAP1 PUSH2 0x1B8 JUMP JUMPDEST PUSH2 0x167 JUMP JUMPDEST PUSH1 0x40 MLOAD PUSH2 0xCA SWAP2 SWAP1 PUSH2 0x1FB JUMP JUMPDEST PUSH1 0x40 MLOAD DUP1 SWAP2 SUB SWAP1 RETURN JUMPDEST PUSH0 DUP2 PUSH2 0x114 JUMPI PUSH1 0x40 MLOAD PUSH32 0x8C379A000000000000000000000000000000000000000000000000000000000 DUP2 MSTORE PUSH1 0x4 ADD PUSH2 0x10B SWAP1 PUSH2 0x26E JUMP JUMPDEST PUSH1 0x40 MLOAD DUP1 SWAP2 SUB SWAP1 REVERT JUMPDEST PUSH1 0x1 SWAP1 POP SWAP2 SWAP1 POP JUMP JUMPDEST PUSH0 DUP2 PUSH2 0x15E JUMPI PUSH1 0x40 MLOAD PUSH32 0x8C379A000000000000000000000000000000000000000000000000000000000 DUP2 MSTORE PUSH1 0x4 ADD PUSH2 0x155 SWAP1 PUSH2 0x2D6 JUMP JUMPDEST PUSH1 0x40 MLOAD DUP1 SWAP2 SUB SWAP1 REVERT JUMPDEST PUSH1 0x1 SWAP1 POP SWAP2 SWAP1 POP JUMP JUMPDEST PUSH0 DUP2 PUSH2 0x176 JUMPI PUSH2 0x175 PUSH2 0x2F4 JUMP JUMPDEST JUMPDEST PUSH1 0x1 SWAP1 POP SWAP2 SWAP1 POP JUMP JUMPDEST PUSH0 PUSH0 REVERT JUMPDEST PUSH0 DUP2 ISZERO ISZERO SWAP1 POP SWAP2 SWAP1 POP JUMP JUMPDEST PUSH2 0x197 DUP2 PUSH2 0x183 JUMP JUMPDEST DUP2 EQ PUSH2 0x1A1 JUMPI PUSH0 PUSH0 REVERT JUMPDEST POP JUMP JUMPDEST PUSH0 DUP2 CALLDATALOAD SWAP1 POP PUSH2 0x1B2 DUP2 PUSH2 0x18E JUMP JUMPDEST SWAP3 SWAP2 POP POP JUMP JUMPDEST PUSH0 PUSH1 0x20 DUP3 DUP5 SUB SLT ISZERO PUSH2 0x1CD JUMPI PUSH2 0x1CC PUSH2 0x17F JUMP JUMPDEST JUMPDEST PUSH0 PUSH2 0x1DA DUP5 DUP3 DUP6 ADD PUSH2 0x1A4 JUMP JUMPDEST SWAP2 POP POP SWAP3 SWAP2 POP POP JUMP JUMPDEST PUSH0 DUP2 SWAP1 POP SWAP2 SWAP1 POP JUMP JUMPDEST PUSH2 0x1F5 DUP2 PUSH2 0x1E3 JUMP JUMPDEST DUP3 MSTORE POP POP JUMP JUMPDEST PUSH0 PUSH1 0x20 DUP3 ADD SWAP1 POP PUSH2 0x20E PUSH0 DUP4 ADD DUP5 PUSH2 0x1EC JUMP JUMPDEST SWAP3 SWAP2 POP POP JUMP JUMPDEST PUSH0 DUP3 DUP3 MSTORE PUSH1 0x20 DUP3 ADD SWAP1 POP SWAP3 SWAP2 POP POP JUMP JUMPDEST PUSH32 0x696E707574206973206E6F742027747275652700000000000000000000000000 PUSH0 DUP3 ADD MSTORE POP JUMP JUMPDEST PUSH0 PUSH2 0x258 PUSH1 0x13 DUP4 PUSH2 0x214 JUMP JUMPDEST SWAP2 POP PUSH2 0x263 DUP3 PUSH2 0x224 JUMP JUMPDEST PUSH1 0x20 DUP3 ADD SWAP1 POP SWAP2 SWAP1 POP JUMP JUMPDEST PUSH0 PUSH1 0x20 DUP3 ADD SWAP1 POP DUP2 DUP2 SUB PUSH0 DUP4 ADD MSTORE PUSH2 0x285 DUP2 PUSH2 0x24C JUMP JUMPDEST SWAP1 POP SWAP2 SWAP1 POP JUMP JUMPDEST PUSH32 0x5472616E736665724661696C6564000000000000000000000000000000000000 PUSH0 DUP3 ADD MSTORE POP JUMP JUMPDEST PUSH0 PUSH2 0x2C0 PUSH1 0xE DUP4 PUSH2 0x214 JUMP JUMPDEST SWAP2 POP PUSH2 0x2CB DUP3 PUSH2 0x28C JUMP JUMPDEST PUSH1 0x20 DUP3 ADD SWAP1 POP SWAP2 SWAP1 POP JUMP JUMPDEST PUSH0 PUSH1 0x20 DUP3 ADD SWAP1 POP DUP2 DUP2 SUB PUSH0 DUP4 ADD MSTORE PUSH2 0x2ED DUP2 PUSH2 0x2B4 JUMP JUMPDEST SWAP1 POP SWAP2 SWAP1 POP JUMP JUMPDEST PUSH32 0x4E487B7100000000000000000000000000000000000000000000000000000000 PUSH0 MSTORE PUSH1 0x1 PUSH1 0x4 MSTORE PUSH1 0x24 PUSH0 REVERT INVALID LOG2 PUSH5 0x6970667358 0x22 SLT KECCAK256 DUP1 CALLDATALOAD SWAP16 SWAP9 0xED 0xCF 0xA5 0x2D 0xCB ADD 0xE2 SWAP2 NOT DIV SWAP15 EXTSTATICCALL 0x4C SWAP13 0xB9 RJUMP 0x4E71 PUSH15 0xDE3A072DF48D9A2C4864736F6C6343 STOP ADDMOD 0x1E STOP CALLER "
				},
				"gasEstimates": {
					"creation": {
						"codeDepositCost": "350000",
						"executionCost": "infinite",
						"totalCost": "infinite"
					},
					"external": {
						"he()": "infinite",
						"trycatch(bool)": "infinite"
					}
				},
				"methodIdentifiers": {
					"he()": "33f1499e",
					"trycatch(bool)": "33f747f9"
				}
			},
			"storageLayout": {
				"storage": [
					{
						"astId": 70,
						"contract": "contracts/HandelError.sol:catchTryContract",
						"label": "he",
						"offset": 0,
						"slot": "0",
						"type": "t_contract(HandleError)67"
					}
				],
				"types": {
					"t_contract(HandleError)67": {
						"encoding": "inplace",
						"label": "contract HandleError",
						"numberOfBytes": "20"
					}
				}
			},
			"userdoc": {
				"kind": "user",
				"methods": {},
				"version": 1
			}
		}
	}
}