{
	"contracts/HandelError.sol": {
		"HandleError": {
			"abi": [
				{
					"inputs": [
						{
							"internalType": "uint256",
							"name": "available",
							"type": "uint256"
						},
						{
							"internalType": "uint256",
							"name": "required",
							"type": "uint256"
						}
					],
					"name": "InsufficientBalance",
					"type": "error"
				},
				{
					"inputs": [
						{
							"internalType": "address",
							"name": "from",
							"type": "address"
						},
						{
							"internalType": "address",
							"name": "to",
							"type": "address"
						},
						{
							"internalType": "uint256",
							"name": "amount",
							"type": "uint256"
						},
						{
							"internalType": "string",
							"name": "reason",
							"type": "string"
						}
					],
					"name": "TransferFailed",
					"type": "error"
				},
				{
					"inputs": [],
					"name": "Unauthorized",
					"type": "error"
				},
				{
					"inputs": [
						{
							"internalType": "bool",
							"name": "condition",
							"type": "bool"
						}
					],
					"name": "assertError",
					"outputs": [
						{
							"internalType": "uint256",
							"name": "",
							"type": "uint256"
						}
					],
					"stateMutability": "pure",
					"type": "function"
				},
				{
					"inputs": [
						{
							"internalType": "bool",
							"name": "condition",
							"type": "bool"
						}
					],
					"name": "requireError",
					"outputs": [
						{
							"internalType": "uint256",
							"name": "",
							"type": "uint256"
						}
					],
					"stateMutability": "pure",
					"type": "function"
				},
				{
					"inputs": [
						{
							"internalType": "bool",
							"name": "condition",
							"type": "bool"
						}
					],
					"name": "revertError",
					"outputs": [
						{
							"internalType": "uint256",
							"name": "",
							"type": "uint256"
						}
					],
					"stateMutability": "pure",
					"type": "function"
				}
			],
			"devdoc": {
				"kind": "dev",
				"methods": {},
				"version": 1
			},
			"evm": {
				"assembly": "    /* \"contracts/HandelError.sol\":61:1062  contract HandleError {... */\n  mstore(0x40, 0x80)\n  callvalue\n  dup1\n  iszero\n  tag_1\n  jumpi\n  revert(0x00, 0x00)\ntag_1:\n  pop\n  dataSize(sub_0)\n  dup1\n  dataOffset(sub_0)\n  0x00\n  codecopy\n  0x00\n  return\nstop\n\nsub_0: assembly {\n        /* \"contracts/HandelError.sol\":61:1062  contract HandleError {... */\n      mstore(0x40, 0x80)\n      callvalue\n      dup1\n      iszero\n      tag_1\n      jumpi\n      revert(0x00, 0x00)\n    tag_1:\n      pop\n      jumpi(tag_2, lt(calldatasize, 0x04))\n      shr(0xe0, calldataload(0x00))\n      dup1\n      0x3c104699\n      eq\n      tag_3\n      jumpi\n      dup1\n      0x779d3efc\n      eq\n      tag_4\n      jumpi\n      dup1\n      0xf98ec922\n      eq\n      tag_5\n      jumpi\n    tag_2:\n      revert(0x00, 0x00)\n        /* \"contracts/HandelError.sol\":89:236  function requireError(bool condition) public pure returns (uint256) {... */\n    tag_3:\n      tag_6\n      0x04\n      dup1\n      calldatasize\n      sub\n      dup2\n      add\n      swap1\n      tag_7\n      swap2\n      swap1\n      tag_8\n      jump\t// in\n    tag_7:\n      tag_9\n      jump\t// in\n    tag_6:\n      mload(0x40)\n      tag_10\n      swap2\n      swap1\n      tag_11\n      jump\t// in\n    tag_10:\n      mload(0x40)\n      dup1\n      swap2\n      sub\n      swap1\n      return\n        /* \"contracts/HandelError.sol\":670:1059  function revertError(bool condition) public pure returns (uint256) {... */\n    tag_4:\n      tag_12\n      0x04\n      dup1\n      calldatasize\n      sub\n      dup2\n      add\n      swap1\n      tag_13\n      swap2\n      swap1\n      tag_8\n      jump\t// in\n    tag_13:\n      tag_14\n      jump\t// in\n    tag_12:\n      mload(0x40)\n      tag_15\n      swap2\n      swap1\n      tag_11\n      jump\t// in\n    tag_15:\n      mload(0x40)\n      dup1\n      swap2\n      sub\n      swap1\n      return\n        /* \"contracts/HandelError.sol\":244:389  function assertError(bool condition) public pure returns (uint256) {... */\n    tag_5:\n      tag_16\n      0x04\n      dup1\n      calldatasize\n      sub\n      dup2\n      add\n      swap1\n      tag_17\n      swap2\n      swap1\n      tag_8\n      jump\t// in\n    tag_17:\n      tag_18\n      jump\t// in\n    tag_16:\n      mload(0x40)\n      tag_19\n      swap2\n      swap1\n      tag_11\n      jump\t// in\n    tag_19:\n      mload(0x40)\n      dup1\n      swap2\n      sub\n      swap1\n      return\n        /* \"contracts/HandelError.sol\":89:236  function requireError(bool condition) public pure returns (uint256) {... */\n    tag_9:\n        /* \"contracts/HandelError.sol\":148:155  uint256 */\n      0x00\n        /* \"contracts/HandelError.sol\":176:185  condition */\n      dup2\n        /* \"contracts/HandelError.sol\":168:209  require(condition, \"input is not 'true'\") */\n      tag_21\n      jumpi\n      mload(0x40)\n      0x08c379a000000000000000000000000000000000000000000000000000000000\n      dup2\n      mstore\n      0x04\n      add\n      tag_22\n      swap1\n      tag_23\n      jump\t// in\n    tag_22:\n      mload(0x40)\n      dup1\n      swap2\n      sub\n      swap1\n      revert\n    tag_21:\n        /* \"contracts/HandelError.sol\":227:228  1 */\n      0x01\n        /* \"contracts/HandelError.sol\":220:228  return 1 */\n      swap1\n      pop\n        /* \"contracts/HandelError.sol\":89:236  function requireError(bool condition) public pure returns (uint256) {... */\n      swap2\n      swap1\n      pop\n      jump\t// out\n        /* \"contracts/HandelError.sol\":670:1059  function revertError(bool condition) public pure returns (uint256) {... */\n    tag_14:\n        /* \"contracts/HandelError.sol\":728:735  uint256 */\n      0x00\n        /* \"contracts/HandelError.sol\":753:762  condition */\n      dup2\n        /* \"contracts/HandelError.sol\":748:1033  if (!condition) {... */\n      tag_25\n      jumpi\n        /* \"contracts/HandelError.sol\":997:1021  revert(\"TransferFailed\") */\n      mload(0x40)\n      0x08c379a000000000000000000000000000000000000000000000000000000000\n      dup2\n      mstore\n      0x04\n      add\n      tag_26\n      swap1\n      tag_27\n      jump\t// in\n    tag_26:\n      mload(0x40)\n      dup1\n      swap2\n      sub\n      swap1\n      revert\n        /* \"contracts/HandelError.sol\":748:1033  if (!condition) {... */\n    tag_25:\n        /* \"contracts/HandelError.sol\":1050:1051  1 */\n      0x01\n        /* \"contracts/HandelError.sol\":1043:1051  return 1 */\n      swap1\n      pop\n        /* \"contracts/HandelError.sol\":670:1059  function revertError(bool condition) public pure returns (uint256) {... */\n      swap2\n      swap1\n      pop\n      jump\t// out\n        /* \"contracts/HandelError.sol\":244:389  function assertError(bool condition) public pure returns (uint256) {... */\n    tag_18:\n        /* \"contracts/HandelError.sol\":302:309  uint256 */\n      0x00\n        /* \"contracts/HandelError.sol\":329:338  condition */\n      dup2\n        /* \"contracts/HandelError.sol\":322:339  assert(condition) */\n      tag_29\n      jumpi\n      tag_30\n      tag_31\n      jump\t// in\n    tag_30:\n    tag_29:\n        /* \"contracts/HandelError.sol\":380:381  1 */\n      0x01\n        /* \"contracts/HandelError.sol\":373:381  return 1 */\n      swap1\n      pop\n        /* \"contracts/HandelError.sol\":244:389  function assertError(bool condition) public pure returns (uint256) {... */\n      swap2\n      swap1\n      pop\n      jump\t// out\n        /* \"#utility.yul\":88:205   */\n    tag_33:\n        /* \"#utility.yul\":197:198   */\n      0x00\n        /* \"#utility.yul\":194:195   */\n      0x00\n        /* \"#utility.yul\":187:199   */\n      revert\n        /* \"#utility.yul\":334:424   */\n    tag_35:\n        /* \"#utility.yul\":368:375   */\n      0x00\n        /* \"#utility.yul\":411:416   */\n      dup2\n        /* \"#utility.yul\":404:417   */\n      iszero\n        /* \"#utility.yul\":397:418   */\n      iszero\n        /* \"#utility.yul\":386:418   */\n      swap1\n      pop\n        /* \"#utility.yul\":334:424   */\n      swap2\n      swap1\n      pop\n      jump\t// out\n        /* \"#utility.yul\":430:546   */\n    tag_36:\n        /* \"#utility.yul\":500:521   */\n      tag_51\n        /* \"#utility.yul\":515:520   */\n      dup2\n        /* \"#utility.yul\":500:521   */\n      tag_35\n      jump\t// in\n    tag_51:\n        /* \"#utility.yul\":493:498   */\n      dup2\n        /* \"#utility.yul\":490:522   */\n      eq\n        /* \"#utility.yul\":480:540   */\n      tag_52\n      jumpi\n        /* \"#utility.yul\":536:537   */\n      0x00\n        /* \"#utility.yul\":533:534   */\n      0x00\n        /* \"#utility.yul\":526:538   */\n      revert\n        /* \"#utility.yul\":480:540   */\n    tag_52:\n        /* \"#utility.yul\":430:546   */\n      pop\n      jump\t// out\n        /* \"#utility.yul\":552:685   */\n    tag_37:\n        /* \"#utility.yul\":595:600   */\n      0x00\n        /* \"#utility.yul\":633:639   */\n      dup2\n        /* \"#utility.yul\":620:640   */\n      calldataload\n        /* \"#utility.yul\":611:640   */\n      swap1\n      pop\n        /* \"#utility.yul\":649:679   */\n      tag_54\n        /* \"#utility.yul\":673:678   */\n      dup2\n        /* \"#utility.yul\":649:679   */\n      tag_36\n      jump\t// in\n    tag_54:\n        /* \"#utility.yul\":552:685   */\n      swap3\n      swap2\n      pop\n      pop\n      jump\t// out\n        /* \"#utility.yul\":691:1014   */\n    tag_8:\n        /* \"#utility.yul\":747:753   */\n      0x00\n        /* \"#utility.yul\":796:798   */\n      0x20\n        /* \"#utility.yul\":784:793   */\n      dup3\n        /* \"#utility.yul\":775:782   */\n      dup5\n        /* \"#utility.yul\":771:794   */\n      sub\n        /* \"#utility.yul\":767:799   */\n      slt\n        /* \"#utility.yul\":764:883   */\n      iszero\n      tag_56\n      jumpi\n        /* \"#utility.yul\":802:881   */\n      tag_57\n      tag_33\n      jump\t// in\n    tag_57:\n        /* \"#utility.yul\":764:883   */\n    tag_56:\n        /* \"#utility.yul\":922:923   */\n      0x00\n        /* \"#utility.yul\":947:997   */\n      tag_58\n        /* \"#utility.yul\":989:996   */\n      dup5\n        /* \"#utility.yul\":980:986   */\n      dup3\n        /* \"#utility.yul\":969:978   */\n      dup6\n        /* \"#utility.yul\":965:987   */\n      add\n        /* \"#utility.yul\":947:997   */\n      tag_37\n      jump\t// in\n    tag_58:\n        /* \"#utility.yul\":937:997   */\n      swap2\n      pop\n        /* \"#utility.yul\":893:1007   */\n      pop\n        /* \"#utility.yul\":691:1014   */\n      swap3\n      swap2\n      pop\n      pop\n      jump\t// out\n        /* \"#utility.yul\":1020:1097   */\n    tag_38:\n        /* \"#utility.yul\":1057:1064   */\n      0x00\n        /* \"#utility.yul\":1086:1091   */\n      dup2\n        /* \"#utility.yul\":1075:1091   */\n      swap1\n      pop\n        /* \"#utility.yul\":1020:1097   */\n      swap2\n      swap1\n      pop\n      jump\t// out\n        /* \"#utility.yul\":1103:1221   */\n    tag_39:\n        /* \"#utility.yul\":1190:1214   */\n      tag_61\n        /* \"#utility.yul\":1208:1213   */\n      dup2\n        /* \"#utility.yul\":1190:1214   */\n      tag_38\n      jump\t// in\n    tag_61:\n        /* \"#utility.yul\":1185:1188   */\n      dup3\n        /* \"#utility.yul\":1178:1215   */\n      mstore\n        /* \"#utility.yul\":1103:1221   */\n      pop\n      pop\n      jump\t// out\n        /* \"#utility.yul\":1227:1449   */\n    tag_11:\n        /* \"#utility.yul\":1320:1324   */\n      0x00\n        /* \"#utility.yul\":1358:1360   */\n      0x20\n        /* \"#utility.yul\":1347:1356   */\n      dup3\n        /* \"#utility.yul\":1343:1361   */\n      add\n        /* \"#utility.yul\":1335:1361   */\n      swap1\n      pop\n        /* \"#utility.yul\":1371:1442   */\n      tag_63\n        /* \"#utility.yul\":1439:1440   */\n      0x00\n        /* \"#utility.yul\":1428:1437   */\n      dup4\n        /* \"#utility.yul\":1424:1441   */\n      add\n        /* \"#utility.yul\":1415:1421   */\n      dup5\n        /* \"#utility.yul\":1371:1442   */\n      tag_39\n      jump\t// in\n    tag_63:\n        /* \"#utility.yul\":1227:1449   */\n      swap3\n      swap2\n      pop\n      pop\n      jump\t// out\n        /* \"#utility.yul\":1455:1624   */\n    tag_40:\n        /* \"#utility.yul\":1539:1550   */\n      0x00\n        /* \"#utility.yul\":1573:1579   */\n      dup3\n        /* \"#utility.yul\":1568:1571   */\n      dup3\n        /* \"#utility.yul\":1561:1580   */\n      mstore\n        /* \"#utility.yul\":1613:1617   */\n      0x20\n        /* \"#utility.yul\":1608:1611   */\n      dup3\n        /* \"#utility.yul\":1604:1618   */\n      add\n        /* \"#utility.yul\":1589:1618   */\n      swap1\n      pop\n        /* \"#utility.yul\":1455:1624   */\n      swap3\n      swap2\n      pop\n      pop\n      jump\t// out\n        /* \"#utility.yul\":1630:1799   */\n    tag_41:\n        /* \"#utility.yul\":1770:1791   */\n      0x696e707574206973206e6f742027747275652700000000000000000000000000\n        /* \"#utility.yul\":1766:1767   */\n      0x00\n        /* \"#utility.yul\":1758:1764   */\n      dup3\n        /* \"#utility.yul\":1754:1768   */\n      add\n        /* \"#utility.yul\":1747:1792   */\n      mstore\n        /* \"#utility.yul\":1630:1799   */\n      pop\n      jump\t// out\n        /* \"#utility.yul\":1805:2171   */\n    tag_42:\n        /* \"#utility.yul\":1947:1950   */\n      0x00\n        /* \"#utility.yul\":1968:2035   */\n      tag_67\n        /* \"#utility.yul\":2032:2034   */\n      0x13\n        /* \"#utility.yul\":2027:2030   */\n      dup4\n        /* \"#utility.yul\":1968:2035   */\n      tag_40\n      jump\t// in\n    tag_67:\n        /* \"#utility.yul\":1961:2035   */\n      swap2\n      pop\n        /* \"#utility.yul\":2044:2137   */\n      tag_68\n        /* \"#utility.yul\":2133:2136   */\n      dup3\n        /* \"#utility.yul\":2044:2137   */\n      tag_41\n      jump\t// in\n    tag_68:\n        /* \"#utility.yul\":2162:2164   */\n      0x20\n        /* \"#utility.yul\":2157:2160   */\n      dup3\n        /* \"#utility.yul\":2153:2165   */\n      add\n        /* \"#utility.yul\":2146:2165   */\n      swap1\n      pop\n        /* \"#utility.yul\":1805:2171   */\n      swap2\n      swap1\n      pop\n      jump\t// out\n        /* \"#utility.yul\":2177:2596   */\n    tag_23:\n        /* \"#utility.yul\":2343:2347   */\n      0x00\n        /* \"#utility.yul\":2381:2383   */\n      0x20\n        /* \"#utility.yul\":2370:2379   */\n      dup3\n        /* \"#utility.yul\":2366:2384   */\n      add\n        /* \"#utility.yul\":2358:2384   */\n      swap1\n      pop\n        /* \"#utility.yul\":2430:2439   */\n      dup2\n        /* \"#utility.yul\":2424:2428   */\n      dup2\n        /* \"#utility.yul\":2420:2440   */\n      sub\n        /* \"#utility.yul\":2416:2417   */\n      0x00\n        /* \"#utility.yul\":2405:2414   */\n      dup4\n        /* \"#utility.yul\":2401:2418   */\n      add\n        /* \"#utility.yul\":2394:2441   */\n      mstore\n        /* \"#utility.yul\":2458:2589   */\n      tag_70\n        /* \"#utility.yul\":2584:2588   */\n      dup2\n        /* \"#utility.yul\":2458:2589   */\n      tag_42\n      jump\t// in\n    tag_70:\n        /* \"#utility.yul\":2450:2589   */\n      swap1\n      pop\n        /* \"#utility.yul\":2177:2596   */\n      swap2\n      swap1\n      pop\n      jump\t// out\n        /* \"#utility.yul\":2602:2766   */\n    tag_43:\n        /* \"#utility.yul\":2742:2758   */\n      0x5472616e736665724661696c6564000000000000000000000000000000000000\n        /* \"#utility.yul\":2738:2739   */\n      0x00\n        /* \"#utility.yul\":2730:2736   */\n      dup3\n        /* \"#utility.yul\":2726:2740   */\n      add\n        /* \"#utility.yul\":2719:2759   */\n      mstore\n        /* \"#utility.yul\":2602:2766   */\n      pop\n      jump\t// out\n        /* \"#utility.yul\":2772:3138   */\n    tag_44:\n        /* \"#utility.yul\":2914:2917   */\n      0x00\n        /* \"#utility.yul\":2935:3002   */\n      tag_73\n        /* \"#utility.yul\":2999:3001   */\n      0x0e\n        /* \"#utility.yul\":2994:2997   */\n      dup4\n        /* \"#utility.yul\":2935:3002   */\n      tag_40\n      jump\t// in\n    tag_73:\n        /* \"#utility.yul\":2928:3002   */\n      swap2\n      pop\n        /* \"#utility.yul\":3011:3104   */\n      tag_74\n        /* \"#utility.yul\":3100:3103   */\n      dup3\n        /* \"#utility.yul\":3011:3104   */\n      tag_43\n      jump\t// in\n    tag_74:\n        /* \"#utility.yul\":3129:3131   */\n      0x20\n        /* \"#utility.yul\":3124:3127   */\n      dup3\n        /* \"#utility.yul\":3120:3132   */\n      add\n        /* \"#utility.yul\":3113:3132   */\n      swap1\n      pop\n        /* \"#utility.yul\":2772:3138   */\n      swap2\n      swap1\n      pop\n      jump\t// out\n        /* \"#utility.yul\":3144:3563   */\n    tag_27:\n        /* \"#utility.yul\":3310:3314   */\n      0x00\n        /* \"#utility.yul\":3348:3350   */\n      0x20\n        /* \"#utility.yul\":3337:3346   */\n      dup3\n        /* \"#utility.yul\":3333:3351   */\n      add\n        /* \"#utility.yul\":3325:3351   */\n      swap1\n      pop\n        /* \"#utility.yul\":3397:3406   */\n      dup2\n        /* \"#utility.yul\":3391:3395   */\n      dup2\n        /* \"#utility.yul\":3387:3407   */\n      sub\n        /* \"#utility.yul\":3383:3384   */\n      0x00\n        /* \"#utility.yul\":3372:3381   */\n      dup4\n        /* \"#utility.yul\":3368:3385   */\n      add\n        /* \"#utility.yul\":3361:3408   */\n      mstore\n        /* \"#utility.yul\":3425:3556   */\n      tag_76\n        /* \"#utility.yul\":3551:3555   */\n      dup2\n        /* \"#utility.yul\":3425:3556   */\n      tag_44\n      jump\t// in\n    tag_76:\n        /* \"#utility.yul\":3417:3556   */\n      swap1\n      pop\n        /* \"#utility.yul\":3144:3563   */\n      swap2\n      swap1\n      pop\n      jump\t// out\n        /* \"#utility.yul\":3569:3749   */\n    tag_31:\n        /* \"#utility.yul\":3617:3694   */\n      0x4e487b7100000000000000000000000000000000000000000000000000000000\n        /* \"#utility.yul\":3614:3615   */\n      0x00\n        /* \"#utility.yul\":3607:3695   */\n      mstore\n        /* \"#utility.yul\":3714:3718   */\n      0x01\n        /* \"#utility.yul\":3711:3712   */\n      0x04\n        /* \"#utility.yul\":3704:3719   */\n      mstore\n        /* \"#utility.yul\":3738:3742   */\n      0x24\n        /* \"#utility.yul\":3735:3736   */\n      0x00\n        /* \"#utility.yul\":3728:3743   */\n      revert\n\n    auxdata: 0xa264697066735822122080359f98edcfa52dcb01e29119049efb4c9cb9e04e716ede3a072df48d9a2c4864736f6c634300081e0033\n}\n",
				"bytecode": {
					"linkReferences": {},
					"object": "6080604052348015600e575f5ffd5b506103578061001c5f395ff3fe608060405234801561000f575f5ffd5b506004361061003f575f3560e01c80633c10469914610043578063779d3efc14610073578063f98ec922146100a3575b5f5ffd5b61005d600480360381019061005891906101b8565b6100d3565b60405161006a91906101fb565b60405180910390f35b61008d600480360381019061008891906101b8565b61011d565b60405161009a91906101fb565b60405180910390f35b6100bd60048036038101906100b891906101b8565b610167565b6040516100ca91906101fb565b60405180910390f35b5f81610114576040517f08c379a000000000000000000000000000000000000000000000000000000000815260040161010b9061026e565b60405180910390fd5b60019050919050565b5f8161015e576040517f08c379a0000000000000000000000000000000000000000000000000000000008152600401610155906102d6565b60405180910390fd5b60019050919050565b5f81610176576101756102f4565b5b60019050919050565b5f5ffd5b5f8115159050919050565b61019781610183565b81146101a1575f5ffd5b50565b5f813590506101b28161018e565b92915050565b5f602082840312156101cd576101cc61017f565b5b5f6101da848285016101a4565b91505092915050565b5f819050919050565b6101f5816101e3565b82525050565b5f60208201905061020e5f8301846101ec565b92915050565b5f82825260208201905092915050565b7f696e707574206973206e6f7420277472756527000000000000000000000000005f82015250565b5f610258601383610214565b915061026382610224565b602082019050919050565b5f6020820190508181035f8301526102858161024c565b9050919050565b7f5472616e736665724661696c65640000000000000000000000000000000000005f82015250565b5f6102c0600e83610214565b91506102cb8261028c565b602082019050919050565b5f6020820190508181035f8301526102ed816102b4565b9050919050565b7f4e487b71000000000000000000000000000000000000000000000000000000005f52600160045260245ffdfea264697066735822122080359f98edcfa52dcb01e29119049efb4c9cb9e04e716ede3a072df48d9a2c4864736f6c634300081e0033",
					"opcodes": "PUSH1 0x80 PUSH1 0x40 MSTORE CALLVALUE DUP1 ISZERO PUSH1 0xE JUMPI PUSH0 PUSH0 REVERT JUMPDEST POP PUSH2 0x357 DUP1 PUSH2 0x1C PUSH0 CODECOPY PUSH0 RETURN INVALID PUSH1 0x80 PUSH1 0x40 MSTORE CALLVALUE DUP1 ISZERO PUSH2 0xF JUMPI PUSH0 PUSH0 REVERT JUMPDEST POP PUSH1 0x4 CALLDATASIZE LT PUSH2 0x3F JUMPI PUSH0 CALLDATALOAD PUSH1 0xE0 SHR DUP1 PUSH4 0x3C104699 EQ PUSH2 0x43 JUMPI DUP1 PUSH4 0x779D3EFC EQ PUSH2 0x73 JUMPI DUP1 PUSH4 0xF98EC922 EQ PUSH2 0xA3 JUMPI JUMPDEST PUSH0 PUSH0 REVERT JUMPDEST PUSH2 0x5D PUSH1 0x4 DUP1 CALLDATASIZE SUB DUP2 ADD SWAP1 PUSH2 0x58 SWAP2 SWAP1 PUSH2 0x1B8 JUMP JUMPDEST PUSH2 0xD3 JUMP JUMPDEST PUSH1 0x40 MLOAD PUSH2 0x6A SWAP2 SWAP1 PUSH2 0x1FB JUMP JUMPDEST PUSH1 0x40 MLOAD DUP1 SWAP2 SUB SWAP1 RETURN JUMPDEST PUSH2 0x8D PUSH1 0x4 DUP1 CALLDATASIZE SUB DUP2 ADD SWAP1 PUSH2 0x88 SWAP2 SWAP1 PUSH2 0x1B8 JUMP JUMPDEST PUSH2 0x11D JUMP JUMPDEST PUSH1 0x40 MLOAD PUSH2 0x9A SWAP2 SWAP1 PUSH2 0x1FB JUMP JUMPDEST PUSH1 0x40 MLOAD DUP1 SWAP2 SUB SWAP1 RETURN JUMPDEST PUSH2 0xBD PUSH1 0x4 DUP1 CALLDATASIZE SUB DUP2 ADD SWAP1 PUSH2 0xB8 SWAP2 SWAP1 PUSH2 0x1B8 JUMP JUMPDEST PUSH2 0x167 JUMP JUMPDEST PUSH1 0x40 MLOAD PUSH2 0xCA SWAP2 SWAP1 PUSH2 0x1FB JUMP JUMPDEST PUSH1 0x40 MLOAD DUP1 SWAP2 SUB SWAP1 RETURN JUMPDEST PUSH0 DUP2 PUSH2 0x114 JUMPI PUSH1 0x40 MLOAD PUSH32 0x8C379A000000000000000000000000000000000000000000000000000000000 DUP2 MSTORE PUSH1 0x4 ADD PUSH2 0x10B SWAP1 PUSH2 0x26E JUMP JUMPDEST PUSH1 0x40 MLOAD DUP1 SWAP2 SUB SWAP1 REVERT JUMPDEST PUSH1 0x1 SWAP1 POP SWAP2 SWAP1 POP JUMP JUMPDEST PUSH0 DUP2 PUSH2 0x15E JUMPI PUSH1 0x40 MLOAD PUSH32 0x8C379A000000000000000000000000000000000000000000000000000000000 DUP2 MSTORE PUSH1 0x4 ADD PUSH2 0x155 SWAP1 PUSH2 0x2D6 JUMP JUMPDEST PUSH1 0x40 MLOAD DUP1 SWAP2 SUB SWAP1 REVERT JUMPDEST PUSH1 0x1 SWAP1 POP SWAP2 SWAP1 POP JUMP JUMPDEST PUSH0 DUP2 PUSH2 0x176 JUMPI PUSH2 0x175 PUSH2 0x2F4 JUMP JUMPDEST JUMPDEST PUSH1 0x1 SWAP1 POP SWAP2 SWAP1 POP JUMP JUMPDEST PUSH0 PUSH0 REVERT JUMPDEST PUSH0 DUP2 ISZERO ISZERO SWAP1 POP SWAP2 SWAP1 POP JUMP JUMPDEST PUSH2 0x197 DUP2 PUSH2 0x183 JUMP JUMPDEST DUP2 EQ PUSH2 0x1A1 JUMPI PUSH0 PUSH0 REVERT JUMPDEST POP JUMP JUMPDEST PUSH0 DUP2 CALLDATALOAD SWAP1 POP PUSH2 0x1B2 DUP2 PUSH2 0x18E JUMP JUMPDEST SWAP3 SWAP2 POP POP JUMP JUMPDEST PUSH0 PUSH1 0x20 DUP3 DUP5 SUB SLT ISZERO PUSH2 0x1CD JUMPI PUSH2 0x1CC PUSH2 0x17F JUMP JUMPDEST JUMPDEST PUSH0 PUSH2 0x1DA DUP5 DUP3 DUP6 ADD PUSH2 0x1A4 JUMP JUMPDEST SWAP2 POP POP SWAP3 SWAP2 POP POP JUMP JUMPDEST PUSH0 DUP2 SWAP1 POP SWAP2 SWAP1 POP JUMP JUMPDEST PUSH2 0x1F5 DUP2 PUSH2 0x1E3 JUMP JUMPDEST DUP3 MSTORE POP POP JUMP JUMPDEST PUSH0 PUSH1 0x20 DUP3 ADD SWAP1 POP PUSH2 0x20E PUSH0 DUP4 ADD DUP5 PUSH2 0x1EC JUMP JUMPDEST SWAP3 SWAP2 POP POP JUMP JUMPDEST PUSH0 DUP3 DUP3 MSTORE PUSH1 0x20 DUP3 ADD SWAP1 POP SWAP3 SWAP2 POP POP JUMP JUMPDEST PUSH32 0x696E707574206973206E6F742027747275652700000000000000000000000000 PUSH0 DUP3 ADD MSTORE POP JUMP JUMPDEST PUSH0 PUSH2 0x258 PUSH1 0x13 DUP4 PUSH2 0x214 JUMP JUMPDEST SWAP2 POP PUSH2 0x263 DUP3 PUSH2 0x224 JUMP JUMPDEST PUSH1 0x20 DUP3 ADD SWAP1 POP SWAP2 SWAP1 POP JUMP JUMPDEST PUSH0 PUSH1 0x20 DUP3 ADD SWAP1 POP DUP2 DUP2 SUB PUSH0 DUP4 ADD MSTORE PUSH2 0x285 DUP2 PUSH2 0x24C JUMP JUMPDEST SWAP1 POP SWAP2 SWAP1 POP JUMP JUMPDEST PUSH32 0x5472616E736665724661696C6564000000000000000000000000000000000000 PUSH0 DUP3 ADD MSTORE POP JUMP JUMPDEST PUSH0 PUSH2 0x2C0 PUSH1 0xE DUP4 PUSH2 0x214 JUMP JUMPDEST SWAP2 POP PUSH2 0x2CB DUP3 PUSH2 0x28C JUMP JUMPDEST PUSH1 0x20 DUP3 ADD SWAP1 POP SWAP2 SWAP1 POP JUMP JUMPDEST PUSH0 PUSH1 0x20 DUP3 ADD SWAP1 POP DUP2 DUP2 SUB PUSH0 DUP4 ADD MSTORE PUSH2 0x2ED DUP2 PUSH2 0x2B4 JUMP JUMPDEST SWAP1 POP SWAP2 SWAP1 POP JUMP JUMPDEST PUSH32 0x4E487B7100000000000000000000000000000000000000000000000000000000 PUSH0 MSTORE PUSH1 0x1 PUSH1 0x4 MSTORE PUSH1 0x24 PUSH0 REVERT INVALID LOG2 PUSH5 0x6970667358 0x22 SLT KECCAK256 DUP1 CALLDATALOAD SWAP16 SWAP9 0xED 0xCF 0xA5 0x2D 0xCB ADD 0xE2 SWAP2 NOT DIV SWAP15 EXTSTATICCALL 0x4C SWAP13 0xB9 RJUMP 0x4E71 PUSH15 0xDE3A072DF48D9A2C4864736F6C6343 STOP ADDMOD 0x1E STOP CALLER "
				},
				"gasEstimates": {
					"creation": {
						"codeDepositCost": "171000",
						"executionCost": "212",
						"totalCost": "171212"
					},
					"external": {
						"assertError(bool)": "638",
						"requireError(bool)": "686",
						"revertError(bool)": "708"
					}
				},
				"methodIdentifiers": {
					"assertError(bool)": "f98ec922",
					"requireError(bool)": "3c104699",
					"revertError(bool)": "779d3efc"
				}
			},
			"storageLayout": {
				"storage": [],
				"types": null
			},
			"userdoc": {
				"kind": "user",
				"methods": {},
				"version": 1
			}
		}
	}
}