{
	"contracts/AddressExample.sol": {
		"AddressExample": {
			"abi": [
				{
					"inputs": [
						{
							"internalType": "address",
							"name": "addr",
							"type": "address"
						},
						{
							"internalType": "bytes",
							"name": "data",
							"type": "bytes"
						}
					],
					"name": "callContract",
					"outputs": [
						{
							"internalType": "bool",
							"name": "",
							"type": "bool"
						},
						{
							"internalType": "bytes",
							"name": "",
							"type": "bytes"
						}
					],
					"stateMutability": "nonpayable",
					"type": "function"
				},
				{
					"inputs": [],
					"name": "caller",
					"outputs": [
						{
							"internalType": "address",
							"name": "",
							"type": "address"
						}
					],
					"stateMutability": "view",
					"type": "function"
				},
				{
					"inputs": [
						{
							"internalType": "address",
							"name": "addr1",
							"type": "address"
						},
						{
							"internalType": "address",
							"name": "addr2",
							"type": "address"
						}
					],
					"name": "compareAddress",
					"outputs": [
						{
							"internalType": "bool",
							"name": "",
							"type": "bool"
						}
					],
					"stateMutability": "pure",
					"type": "function"
				},
				{
					"inputs": [
						{
							"internalType": "address",
							"name": "addr",
							"type": "address"
						}
					],
					"name": "getBalance",
					"outputs": [
						{
							"internalType": "uint256",
							"name": "",
							"type": "uint256"
						}
					],
					"stateMutability": "view",
					"type": "function"
				},
				{
					"inputs": [],
					"name": "myAddress",
					"outputs": [
						{
							"internalType": "address",
							"name": "",
							"type": "address"
						}
					],
					"stateMutability": "view",
					"type": "function"
				},
				{
					"inputs": [
						{
							"internalType": "address",
							"name": "recipient",
							"type": "address"
						}
					],
					"name": "sendEther",
					"outputs": [],
					"stateMutability": "payable",
					"type": "function"
				},
				{
					"inputs": [
						{
							"internalType": "address",
							"name": "addr",
							"type": "address"
						}
					],
					"name": "toBytes",
					"outputs": [
						{
							"internalType": "bytes",
							"name": "",
							"type": "bytes"
						}
					],
					"stateMutability": "pure",
					"type": "function"
				}
			],
			"devdoc": {
				"kind": "dev",
				"methods": {},
				"version": 1
			},
			"evm": {
				"assembly": "    /* \"contracts/AddressExample.sol\":61:1115  contract AddressExample {... */\n  mstore(0x40, 0x80)\n    /* \"contracts/AddressExample.sol\":219:229  msg.sender */\n  caller\n    /* \"contracts/AddressExample.sol\":195:229  address public caller = msg.sender */\n  0x01\n  exp(0x0100, 0x00)\n  dup2\n  sload\n  dup2\n  0xffffffffffffffffffffffffffffffffffffffff\n  mul\n  not\n  and\n  swap1\n  dup4\n  0xffffffffffffffffffffffffffffffffffffffff\n  and\n  mul\n  or\n  swap1\n  sstore\n  pop\n    /* \"contracts/AddressExample.sol\":61:1115  contract AddressExample {... */\n  callvalue\n  dup1\n  iszero\n  tag_1\n  jumpi\n  revert(0x00, 0x00)\ntag_1:\n  pop\n  dataSize(sub_0)\n  dup1\n  dataOffset(sub_0)\n  0x00\n  codecopy\n  0x00\n  return\nstop\n\nsub_0: assembly {\n        /* \"contracts/AddressExample.sol\":61:1115  contract AddressExample {... */\n      mstore(0x40, 0x80)\n      jumpi(tag_1, lt(calldatasize, 0x04))\n      shr(0xe0, calldataload(0x00))\n      dup1\n      0x593b79fe\n      gt\n      tag_9\n      jumpi\n      dup1\n      0x593b79fe\n      eq\n      tag_5\n      jumpi\n      dup1\n      0x95e885c0\n      eq\n      tag_6\n      jumpi\n      dup1\n      0xf8b2cb4f\n      eq\n      tag_7\n      jumpi\n      dup1\n      0xfc9c8d39\n      eq\n      tag_8\n      jumpi\n      jump(tag_1)\n    tag_9:\n      dup1\n      0x03710668\n      eq\n      tag_2\n      jumpi\n      dup1\n      0x26b85ee1\n      eq\n      tag_3\n      jumpi\n      dup1\n      0x48c981e2\n      eq\n      tag_4\n      jumpi\n    tag_1:\n      revert(0x00, 0x00)\n        /* \"contracts/AddressExample.sol\":875:1112  function callContract(address addr, bytes memory data) public returns (bool, bytes memory) {... */\n    tag_2:\n      callvalue\n      dup1\n      iszero\n      tag_10\n      jumpi\n      revert(0x00, 0x00)\n    tag_10:\n      pop\n      tag_11\n      0x04\n      dup1\n      calldatasize\n      sub\n      dup2\n      add\n      swap1\n      tag_12\n      swap2\n      swap1\n      tag_13\n      jump\t// in\n    tag_12:\n      tag_14\n      jump\t// in\n    tag_11:\n      mload(0x40)\n      tag_15\n      swap3\n      swap2\n      swap1\n      tag_16\n      jump\t// in\n    tag_15:\n      mload(0x40)\n      dup1\n      swap2\n      sub\n      swap1\n      return\n        /* \"contracts/AddressExample.sol\":125:149  address public myAddress */\n    tag_3:\n      callvalue\n      dup1\n      iszero\n      tag_17\n      jumpi\n      revert(0x00, 0x00)\n    tag_17:\n      pop\n      tag_18\n      tag_19\n      jump\t// in\n    tag_18:\n      mload(0x40)\n      tag_20\n      swap2\n      swap1\n      tag_21\n      jump\t// in\n    tag_20:\n      mload(0x40)\n      dup1\n      swap2\n      sub\n      swap1\n      return\n        /* \"contracts/AddressExample.sol\":708:818  function sendEther(address recipient) public payable {... */\n    tag_4:\n      tag_22\n      0x04\n      dup1\n      calldatasize\n      sub\n      dup2\n      add\n      swap1\n      tag_23\n      swap2\n      swap1\n      tag_24\n      jump\t// in\n    tag_23:\n      tag_25\n      jump\t// in\n    tag_22:\n      stop\n        /* \"contracts/AddressExample.sol\":426:540  function toBytes(address addr) public pure returns (bytes memory) {... */\n    tag_5:\n      callvalue\n      dup1\n      iszero\n      tag_26\n      jumpi\n      revert(0x00, 0x00)\n    tag_26:\n      pop\n      tag_27\n      0x04\n      dup1\n      calldatasize\n      sub\n      dup2\n      add\n      swap1\n      tag_28\n      swap2\n      swap1\n      tag_24\n      jump\t// in\n    tag_28:\n      tag_29\n      jump\t// in\n    tag_27:\n      mload(0x40)\n      tag_30\n      swap2\n      swap1\n      tag_31\n      jump\t// in\n    tag_30:\n      mload(0x40)\n      dup1\n      swap2\n      sub\n      swap1\n      return\n        /* \"contracts/AddressExample.sol\":269:390  function compareAddress(address addr1, address addr2) public pure returns (bool) {... */\n    tag_6:\n      callvalue\n      dup1\n      iszero\n      tag_32\n      jumpi\n      revert(0x00, 0x00)\n    tag_32:\n      pop\n      tag_33\n      0x04\n      dup1\n      calldatasize\n      sub\n      dup2\n      add\n      swap1\n      tag_34\n      swap2\n      swap1\n      tag_35\n      jump\t// in\n    tag_34:\n      tag_36\n      jump\t// in\n    tag_33:\n      mload(0x40)\n      tag_37\n      swap2\n      swap1\n      tag_38\n      jump\t// in\n    tag_37:\n      mload(0x40)\n      dup1\n      swap2\n      sub\n      swap1\n      return\n        /* \"contracts/AddressExample.sol\":576:678  function getBalance(address addr) public view returns (uint256) {... */\n    tag_7:\n      callvalue\n      dup1\n      iszero\n      tag_39\n      jumpi\n      revert(0x00, 0x00)\n    tag_39:\n      pop\n      tag_40\n      0x04\n      dup1\n      calldatasize\n      sub\n      dup2\n      add\n      swap1\n      tag_41\n      swap2\n      swap1\n      tag_24\n      jump\t// in\n    tag_41:\n      tag_42\n      jump\t// in\n    tag_40:\n      mload(0x40)\n      tag_43\n      swap2\n      swap1\n      tag_44\n      jump\t// in\n    tag_43:\n      mload(0x40)\n      dup1\n      swap2\n      sub\n      swap1\n      return\n        /* \"contracts/AddressExample.sol\":195:229  address public caller = msg.sender */\n    tag_8:\n      callvalue\n      dup1\n      iszero\n      tag_45\n      jumpi\n      revert(0x00, 0x00)\n    tag_45:\n      pop\n      tag_46\n      tag_47\n      jump\t// in\n    tag_46:\n      mload(0x40)\n      tag_48\n      swap2\n      swap1\n      tag_21\n      jump\t// in\n    tag_48:\n      mload(0x40)\n      dup1\n      swap2\n      sub\n      swap1\n      return\n        /* \"contracts/AddressExample.sol\":875:1112  function callContract(address addr, bytes memory data) public returns (bool, bytes memory) {... */\n    tag_14:\n        /* \"contracts/AddressExample.sol\":946:950  bool */\n      0x00\n        /* \"contracts/AddressExample.sol\":952:964  bytes memory */\n      0x60\n        /* \"contracts/AddressExample.sol\":977:989  bool success */\n      0x00\n        /* \"contracts/AddressExample.sol\":991:1007  bytes memory res */\n      0x00\n        /* \"contracts/AddressExample.sol\":1011:1015  addr */\n      dup6\n        /* \"contracts/AddressExample.sol\":1011:1020  addr.call */\n      0xffffffffffffffffffffffffffffffffffffffff\n      and\n        /* \"contracts/AddressExample.sol\":1021:1025  data */\n      dup6\n        /* \"contracts/AddressExample.sol\":1011:1026  addr.call(data) */\n      mload(0x40)\n      tag_50\n      swap2\n      swap1\n      tag_51\n      jump\t// in\n    tag_50:\n      0x00\n      mload(0x40)\n      dup1\n      dup4\n      sub\n      dup2\n      0x00\n      dup7\n      gas\n      call\n      swap2\n      pop\n      pop\n      returndatasize\n      dup1\n      0x00\n      dup2\n      eq\n      tag_54\n      jumpi\n      mload(0x40)\n      swap2\n      pop\n      and(add(returndatasize, 0x3f), not(0x1f))\n      dup3\n      add\n      0x40\n      mstore\n      returndatasize\n      dup3\n      mstore\n      returndatasize\n      0x00\n      0x20\n      dup5\n      add\n      returndatacopy\n      jump(tag_53)\n    tag_54:\n      0x60\n      swap2\n      pop\n    tag_53:\n      pop\n        /* \"contracts/AddressExample.sol\":976:1026  (bool success, bytes memory res) = addr.call(data) */\n      swap2\n      pop\n      swap2\n      pop\n        /* \"contracts/AddressExample.sol\":1091:1098  success */\n      dup2\n        /* \"contracts/AddressExample.sol\":1100:1103  res */\n      dup2\n        /* \"contracts/AddressExample.sol\":1083:1104  return (success, res) */\n      swap4\n      pop\n      swap4\n      pop\n      pop\n      pop\n        /* \"contracts/AddressExample.sol\":875:1112  function callContract(address addr, bytes memory data) public returns (bool, bytes memory) {... */\n      swap3\n      pop\n      swap3\n      swap1\n      pop\n      jump\t// out\n        /* \"contracts/AddressExample.sol\":125:149  address public myAddress */\n    tag_19:\n      0x00\n      0x00\n      swap1\n      sload\n      swap1\n      0x0100\n      exp\n      swap1\n      div\n      0xffffffffffffffffffffffffffffffffffffffff\n      and\n      dup2\n      jump\t// out\n        /* \"contracts/AddressExample.sol\":708:818  function sendEther(address recipient) public payable {... */\n    tag_25:\n        /* \"contracts/AddressExample.sol\":780:789  recipient */\n      dup1\n        /* \"contracts/AddressExample.sol\":772:799  payable(recipient).transfer */\n      0xffffffffffffffffffffffffffffffffffffffff\n      and\n        /* \"contracts/AddressExample.sol\":772:810  payable(recipient).transfer(msg.value) */\n      0x08fc\n        /* \"contracts/AddressExample.sol\":800:809  msg.value */\n      callvalue\n        /* \"contracts/AddressExample.sol\":772:810  payable(recipient).transfer(msg.value) */\n      swap1\n      dup2\n      iszero\n      mul\n      swap1\n      mload(0x40)\n      0x00\n      mload(0x40)\n      dup1\n      dup4\n      sub\n      dup2\n      dup6\n      dup9\n      dup9\n      call\n      swap4\n      pop\n      pop\n      pop\n      pop\n      iszero\n      dup1\n      iszero\n      tag_57\n      jumpi\n      returndatacopy(0x00, 0x00, returndatasize)\n      revert(0x00, returndatasize)\n    tag_57:\n      pop\n        /* \"contracts/AddressExample.sol\":708:818  function sendEther(address recipient) public payable {... */\n      pop\n      jump\t// out\n        /* \"contracts/AddressExample.sol\":426:540  function toBytes(address addr) public pure returns (bytes memory) {... */\n    tag_29:\n        /* \"contracts/AddressExample.sol\":478:490  bytes memory */\n      0x60\n        /* \"contracts/AddressExample.sol\":527:531  addr */\n      dup2\n        /* \"contracts/AddressExample.sol\":510:532  abi.encodePacked(addr) */\n      add(0x20, mload(0x40))\n      tag_59\n      swap2\n      swap1\n      tag_60\n      jump\t// in\n    tag_59:\n      mload(0x40)\n      0x20\n      dup2\n      dup4\n      sub\n      sub\n      dup2\n      mstore\n      swap1\n      0x40\n      mstore\n        /* \"contracts/AddressExample.sol\":503:532  return abi.encodePacked(addr) */\n      swap1\n      pop\n        /* \"contracts/AddressExample.sol\":426:540  function toBytes(address addr) public pure returns (bytes memory) {... */\n      swap2\n      swap1\n      pop\n      jump\t// out\n        /* \"contracts/AddressExample.sol\":269:390  function compareAddress(address addr1, address addr2) public pure returns (bool) {... */\n    tag_36:\n        /* \"contracts/AddressExample.sol\":344:348  bool */\n      0x00\n        /* \"contracts/AddressExample.sol\":377:382  addr2 */\n      dup2\n        /* \"contracts/AddressExample.sol\":368:382  addr1 == addr2 */\n      0xffffffffffffffffffffffffffffffffffffffff\n      and\n        /* \"contracts/AddressExample.sol\":368:373  addr1 */\n      dup4\n        /* \"contracts/AddressExample.sol\":368:382  addr1 == addr2 */\n      0xffffffffffffffffffffffffffffffffffffffff\n      and\n      eq\n        /* \"contracts/AddressExample.sol\":361:382  return addr1 == addr2 */\n      swap1\n      pop\n        /* \"contracts/AddressExample.sol\":269:390  function compareAddress(address addr1, address addr2) public pure returns (bool) {... */\n      swap3\n      swap2\n      pop\n      pop\n      jump\t// out\n        /* \"contracts/AddressExample.sol\":576:678  function getBalance(address addr) public view returns (uint256) {... */\n    tag_42:\n        /* \"contracts/AddressExample.sol\":631:638  uint256 */\n      0x00\n        /* \"contracts/AddressExample.sol\":658:662  addr */\n      dup2\n        /* \"contracts/AddressExample.sol\":658:670  addr.balance */\n      0xffffffffffffffffffffffffffffffffffffffff\n      and\n      balance\n        /* \"contracts/AddressExample.sol\":651:670  return addr.balance */\n      swap1\n      pop\n        /* \"contracts/AddressExample.sol\":576:678  function getBalance(address addr) public view returns (uint256) {... */\n      swap2\n      swap1\n      pop\n      jump\t// out\n        /* \"contracts/AddressExample.sol\":195:229  address public caller = msg.sender */\n    tag_47:\n      0x01\n      0x00\n      swap1\n      sload\n      swap1\n      0x0100\n      exp\n      swap1\n      div\n      0xffffffffffffffffffffffffffffffffffffffff\n      and\n      dup2\n      jump\t// out\n        /* \"#utility.yul\":7:82   */\n    tag_63:\n        /* \"#utility.yul\":40:46   */\n      0x00\n        /* \"#utility.yul\":73:75   */\n      0x40\n        /* \"#utility.yul\":67:76   */\n      mload\n        /* \"#utility.yul\":57:76   */\n      swap1\n      pop\n        /* \"#utility.yul\":7:82   */\n      swap1\n      jump\t// out\n        /* \"#utility.yul\":88:205   */\n    tag_64:\n        /* \"#utility.yul\":197:198   */\n      0x00\n        /* \"#utility.yul\":194:195   */\n      0x00\n        /* \"#utility.yul\":187:199   */\n      revert\n        /* \"#utility.yul\":211:328   */\n    tag_65:\n        /* \"#utility.yul\":320:321   */\n      0x00\n        /* \"#utility.yul\":317:318   */\n      0x00\n        /* \"#utility.yul\":310:322   */\n      revert\n        /* \"#utility.yul\":334:460   */\n    tag_66:\n        /* \"#utility.yul\":371:378   */\n      0x00\n        /* \"#utility.yul\":411:453   */\n      0xffffffffffffffffffffffffffffffffffffffff\n        /* \"#utility.yul\":404:409   */\n      dup3\n        /* \"#utility.yul\":400:454   */\n      and\n        /* \"#utility.yul\":389:454   */\n      swap1\n      pop\n        /* \"#utility.yul\":334:460   */\n      swap2\n      swap1\n      pop\n      jump\t// out\n        /* \"#utility.yul\":466:562   */\n    tag_67:\n        /* \"#utility.yul\":503:510   */\n      0x00\n        /* \"#utility.yul\":532:556   */\n      tag_101\n        /* \"#utility.yul\":550:555   */\n      dup3\n        /* \"#utility.yul\":532:556   */\n      tag_66\n      jump\t// in\n    tag_101:\n        /* \"#utility.yul\":521:556   */\n      swap1\n      pop\n        /* \"#utility.yul\":466:562   */\n      swap2\n      swap1\n      pop\n      jump\t// out\n        /* \"#utility.yul\":568:690   */\n    tag_68:\n        /* \"#utility.yul\":641:665   */\n      tag_103\n        /* \"#utility.yul\":659:664   */\n      dup2\n        /* \"#utility.yul\":641:665   */\n      tag_67\n      jump\t// in\n    tag_103:\n        /* \"#utility.yul\":634:639   */\n      dup2\n        /* \"#utility.yul\":631:666   */\n      eq\n        /* \"#utility.yul\":621:684   */\n      tag_104\n      jumpi\n        /* \"#utility.yul\":680:681   */\n      0x00\n        /* \"#utility.yul\":677:678   */\n      0x00\n        /* \"#utility.yul\":670:682   */\n      revert\n        /* \"#utility.yul\":621:684   */\n    tag_104:\n        /* \"#utility.yul\":568:690   */\n      pop\n      jump\t// out\n        /* \"#utility.yul\":696:835   */\n    tag_69:\n        /* \"#utility.yul\":742:747   */\n      0x00\n        /* \"#utility.yul\":780:786   */\n      dup2\n        /* \"#utility.yul\":767:787   */\n      calldataload\n        /* \"#utility.yul\":758:787   */\n      swap1\n      pop\n        /* \"#utility.yul\":796:829   */\n      tag_106\n        /* \"#utility.yul\":823:828   */\n      dup2\n        /* \"#utility.yul\":796:829   */\n      tag_68\n      jump\t// in\n    tag_106:\n        /* \"#utility.yul\":696:835   */\n      swap3\n      swap2\n      pop\n      pop\n      jump\t// out\n        /* \"#utility.yul\":841:958   */\n    tag_70:\n        /* \"#utility.yul\":950:951   */\n      0x00\n        /* \"#utility.yul\":947:948   */\n      0x00\n        /* \"#utility.yul\":940:952   */\n      revert\n        /* \"#utility.yul\":964:1081   */\n    tag_71:\n        /* \"#utility.yul\":1073:1074   */\n      0x00\n        /* \"#utility.yul\":1070:1071   */\n      0x00\n        /* \"#utility.yul\":1063:1075   */\n      revert\n        /* \"#utility.yul\":1087:1189   */\n    tag_72:\n        /* \"#utility.yul\":1128:1134   */\n      0x00\n        /* \"#utility.yul\":1179:1181   */\n      0x1f\n        /* \"#utility.yul\":1175:1182   */\n      not\n        /* \"#utility.yul\":1170:1172   */\n      0x1f\n        /* \"#utility.yul\":1163:1168   */\n      dup4\n        /* \"#utility.yul\":1159:1173   */\n      add\n        /* \"#utility.yul\":1155:1183   */\n      and\n        /* \"#utility.yul\":1145:1183   */\n      swap1\n      pop\n        /* \"#utility.yul\":1087:1189   */\n      swap2\n      swap1\n      pop\n      jump\t// out\n        /* \"#utility.yul\":1195:1375   */\n    tag_73:\n        /* \"#utility.yul\":1243:1320   */\n      0x4e487b7100000000000000000000000000000000000000000000000000000000\n        /* \"#utility.yul\":1240:1241   */\n      0x00\n        /* \"#utility.yul\":1233:1321   */\n      mstore\n        /* \"#utility.yul\":1340:1344   */\n      0x41\n        /* \"#utility.yul\":1337:1338   */\n      0x04\n        /* \"#utility.yul\":1330:1345   */\n      mstore\n        /* \"#utility.yul\":1364:1368   */\n      0x24\n        /* \"#utility.yul\":1361:1362   */\n      0x00\n        /* \"#utility.yul\":1354:1369   */\n      revert\n        /* \"#utility.yul\":1381:1662   */\n    tag_74:\n        /* \"#utility.yul\":1464:1491   */\n      tag_112\n        /* \"#utility.yul\":1486:1490   */\n      dup3\n        /* \"#utility.yul\":1464:1491   */\n      tag_72\n      jump\t// in\n    tag_112:\n        /* \"#utility.yul\":1456:1462   */\n      dup2\n        /* \"#utility.yul\":1452:1492   */\n      add\n        /* \"#utility.yul\":1594:1600   */\n      dup2\n        /* \"#utility.yul\":1582:1592   */\n      dup2\n        /* \"#utility.yul\":1579:1601   */\n      lt\n        /* \"#utility.yul\":1558:1576   */\n      0xffffffffffffffff\n        /* \"#utility.yul\":1546:1556   */\n      dup3\n        /* \"#utility.yul\":1543:1577   */\n      gt\n        /* \"#utility.yul\":1540:1602   */\n      or\n        /* \"#utility.yul\":1537:1625   */\n      iszero\n      tag_113\n      jumpi\n        /* \"#utility.yul\":1605:1623   */\n      tag_114\n      tag_73\n      jump\t// in\n    tag_114:\n        /* \"#utility.yul\":1537:1625   */\n    tag_113:\n        /* \"#utility.yul\":1645:1655   */\n      dup1\n        /* \"#utility.yul\":1641:1643   */\n      0x40\n        /* \"#utility.yul\":1634:1656   */\n      mstore\n        /* \"#utility.yul\":1424:1662   */\n      pop\n        /* \"#utility.yul\":1381:1662   */\n      pop\n      pop\n      jump\t// out\n        /* \"#utility.yul\":1668:1797   */\n    tag_75:\n        /* \"#utility.yul\":1702:1708   */\n      0x00\n        /* \"#utility.yul\":1729:1749   */\n      tag_116\n      tag_63\n      jump\t// in\n    tag_116:\n        /* \"#utility.yul\":1719:1749   */\n      swap1\n      pop\n        /* \"#utility.yul\":1758:1791   */\n      tag_117\n        /* \"#utility.yul\":1786:1790   */\n      dup3\n        /* \"#utility.yul\":1778:1784   */\n      dup3\n        /* \"#utility.yul\":1758:1791   */\n      tag_74\n      jump\t// in\n    tag_117:\n        /* \"#utility.yul\":1668:1797   */\n      swap2\n      swap1\n      pop\n      jump\t// out\n        /* \"#utility.yul\":1803:2110   */\n    tag_76:\n        /* \"#utility.yul\":1864:1868   */\n      0x00\n        /* \"#utility.yul\":1954:1972   */\n      0xffffffffffffffff\n        /* \"#utility.yul\":1946:1952   */\n      dup3\n        /* \"#utility.yul\":1943:1973   */\n      gt\n        /* \"#utility.yul\":1940:1996   */\n      iszero\n      tag_119\n      jumpi\n        /* \"#utility.yul\":1976:1994   */\n      tag_120\n      tag_73\n      jump\t// in\n    tag_120:\n        /* \"#utility.yul\":1940:1996   */\n    tag_119:\n        /* \"#utility.yul\":2014:2043   */\n      tag_121\n        /* \"#utility.yul\":2036:2042   */\n      dup3\n        /* \"#utility.yul\":2014:2043   */\n      tag_72\n      jump\t// in\n    tag_121:\n        /* \"#utility.yul\":2006:2043   */\n      swap1\n      pop\n        /* \"#utility.yul\":2098:2102   */\n      0x20\n        /* \"#utility.yul\":2092:2096   */\n      dup2\n        /* \"#utility.yul\":2088:2103   */\n      add\n        /* \"#utility.yul\":2080:2103   */\n      swap1\n      pop\n        /* \"#utility.yul\":1803:2110   */\n      swap2\n      swap1\n      pop\n      jump\t// out\n        /* \"#utility.yul\":2116:2264   */\n    tag_77:\n        /* \"#utility.yul\":2214:2220   */\n      dup3\n        /* \"#utility.yul\":2209:2212   */\n      dup2\n        /* \"#utility.yul\":2204:2207   */\n      dup4\n        /* \"#utility.yul\":2191:2221   */\n      calldatacopy\n        /* \"#utility.yul\":2255:2256   */\n      0x00\n        /* \"#utility.yul\":2246:2252   */\n      dup4\n        /* \"#utility.yul\":2241:2244   */\n      dup4\n        /* \"#utility.yul\":2237:2253   */\n      add\n        /* \"#utility.yul\":2230:2257   */\n      mstore\n        /* \"#utility.yul\":2116:2264   */\n      pop\n      pop\n      pop\n      jump\t// out\n        /* \"#utility.yul\":2270:2693   */\n    tag_78:\n        /* \"#utility.yul\":2347:2352   */\n      0x00\n        /* \"#utility.yul\":2372:2437   */\n      tag_124\n        /* \"#utility.yul\":2388:2436   */\n      tag_125\n        /* \"#utility.yul\":2429:2435   */\n      dup5\n        /* \"#utility.yul\":2388:2436   */\n      tag_76\n      jump\t// in\n    tag_125:\n        /* \"#utility.yul\":2372:2437   */\n      tag_75\n      jump\t// in\n    tag_124:\n        /* \"#utility.yul\":2363:2437   */\n      swap1\n      pop\n        /* \"#utility.yul\":2460:2466   */\n      dup3\n        /* \"#utility.yul\":2453:2458   */\n      dup2\n        /* \"#utility.yul\":2446:2467   */\n      mstore\n        /* \"#utility.yul\":2498:2502   */\n      0x20\n        /* \"#utility.yul\":2491:2496   */\n      dup2\n        /* \"#utility.yul\":2487:2503   */\n      add\n        /* \"#utility.yul\":2536:2539   */\n      dup5\n        /* \"#utility.yul\":2527:2533   */\n      dup5\n        /* \"#utility.yul\":2522:2525   */\n      dup5\n        /* \"#utility.yul\":2518:2534   */\n      add\n        /* \"#utility.yul\":2515:2540   */\n      gt\n        /* \"#utility.yul\":2512:2624   */\n      iszero\n      tag_126\n      jumpi\n        /* \"#utility.yul\":2543:2622   */\n      tag_127\n      tag_71\n      jump\t// in\n    tag_127:\n        /* \"#utility.yul\":2512:2624   */\n    tag_126:\n        /* \"#utility.yul\":2633:2687   */\n      tag_128\n        /* \"#utility.yul\":2680:2686   */\n      dup5\n        /* \"#utility.yul\":2675:2678   */\n      dup3\n        /* \"#utility.yul\":2670:2673   */\n      dup6\n        /* \"#utility.yul\":2633:2687   */\n      tag_77\n      jump\t// in\n    tag_128:\n        /* \"#utility.yul\":2353:2693   */\n      pop\n        /* \"#utility.yul\":2270:2693   */\n      swap4\n      swap3\n      pop\n      pop\n      pop\n      jump\t// out\n        /* \"#utility.yul\":2712:3050   */\n    tag_79:\n        /* \"#utility.yul\":2767:2772   */\n      0x00\n        /* \"#utility.yul\":2816:2819   */\n      dup3\n        /* \"#utility.yul\":2809:2813   */\n      0x1f\n        /* \"#utility.yul\":2801:2807   */\n      dup4\n        /* \"#utility.yul\":2797:2814   */\n      add\n        /* \"#utility.yul\":2793:2820   */\n      slt\n        /* \"#utility.yul\":2783:2905   */\n      tag_130\n      jumpi\n        /* \"#utility.yul\":2824:2903   */\n      tag_131\n      tag_70\n      jump\t// in\n    tag_131:\n        /* \"#utility.yul\":2783:2905   */\n    tag_130:\n        /* \"#utility.yul\":2941:2947   */\n      dup2\n        /* \"#utility.yul\":2928:2948   */\n      calldataload\n        /* \"#utility.yul\":2966:3044   */\n      tag_132\n        /* \"#utility.yul\":3040:3043   */\n      dup5\n        /* \"#utility.yul\":3032:3038   */\n      dup3\n        /* \"#utility.yul\":3025:3029   */\n      0x20\n        /* \"#utility.yul\":3017:3023   */\n      dup7\n        /* \"#utility.yul\":3013:3030   */\n      add\n        /* \"#utility.yul\":2966:3044   */\n      tag_78\n      jump\t// in\n    tag_132:\n        /* \"#utility.yul\":2957:3044   */\n      swap2\n      pop\n        /* \"#utility.yul\":2773:3050   */\n      pop\n        /* \"#utility.yul\":2712:3050   */\n      swap3\n      swap2\n      pop\n      pop\n      jump\t// out\n        /* \"#utility.yul\":3056:3708   */\n    tag_13:\n        /* \"#utility.yul\":3133:3139   */\n      0x00\n        /* \"#utility.yul\":3141:3147   */\n      0x00\n        /* \"#utility.yul\":3190:3192   */\n      0x40\n        /* \"#utility.yul\":3178:3187   */\n      dup4\n        /* \"#utility.yul\":3169:3176   */\n      dup6\n        /* \"#utility.yul\":3165:3188   */\n      sub\n        /* \"#utility.yul\":3161:3193   */\n      slt\n        /* \"#utility.yul\":3158:3277   */\n      iszero\n      tag_134\n      jumpi\n        /* \"#utility.yul\":3196:3275   */\n      tag_135\n      tag_64\n      jump\t// in\n    tag_135:\n        /* \"#utility.yul\":3158:3277   */\n    tag_134:\n        /* \"#utility.yul\":3316:3317   */\n      0x00\n        /* \"#utility.yul\":3341:3394   */\n      tag_136\n        /* \"#utility.yul\":3386:3393   */\n      dup6\n        /* \"#utility.yul\":3377:3383   */\n      dup3\n        /* \"#utility.yul\":3366:3375   */\n      dup7\n        /* \"#utility.yul\":3362:3384   */\n      add\n        /* \"#utility.yul\":3341:3394   */\n      tag_69\n      jump\t// in\n    tag_136:\n        /* \"#utility.yul\":3331:3394   */\n      swap3\n      pop\n        /* \"#utility.yul\":3287:3404   */\n      pop\n        /* \"#utility.yul\":3471:3473   */\n      0x20\n        /* \"#utility.yul\":3460:3469   */\n      dup4\n        /* \"#utility.yul\":3456:3474   */\n      add\n        /* \"#utility.yul\":3443:3475   */\n      calldataload\n        /* \"#utility.yul\":3502:3520   */\n      0xffffffffffffffff\n        /* \"#utility.yul\":3494:3500   */\n      dup2\n        /* \"#utility.yul\":3491:3521   */\n      gt\n        /* \"#utility.yul\":3488:3605   */\n      iszero\n      tag_137\n      jumpi\n        /* \"#utility.yul\":3524:3603   */\n      tag_138\n      tag_65\n      jump\t// in\n    tag_138:\n        /* \"#utility.yul\":3488:3605   */\n    tag_137:\n        /* \"#utility.yul\":3629:3691   */\n      tag_139\n        /* \"#utility.yul\":3683:3690   */\n      dup6\n        /* \"#utility.yul\":3674:3680   */\n      dup3\n        /* \"#utility.yul\":3663:3672   */\n      dup7\n        /* \"#utility.yul\":3659:3681   */\n      add\n        /* \"#utility.yul\":3629:3691   */\n      tag_79\n      jump\t// in\n    tag_139:\n        /* \"#utility.yul\":3619:3691   */\n      swap2\n      pop\n        /* \"#utility.yul\":3414:3701   */\n      pop\n        /* \"#utility.yul\":3056:3708   */\n      swap3\n      pop\n      swap3\n      swap1\n      pop\n      jump\t// out\n        /* \"#utility.yul\":3714:3804   */\n    tag_80:\n        /* \"#utility.yul\":3748:3755   */\n      0x00\n        /* \"#utility.yul\":3791:3796   */\n      dup2\n        /* \"#utility.yul\":3784:3797   */\n      iszero\n        /* \"#utility.yul\":3777:3798   */\n      iszero\n        /* \"#utility.yul\":3766:3798   */\n      swap1\n      pop\n        /* \"#utility.yul\":3714:3804   */\n      swap2\n      swap1\n      pop\n      jump\t// out\n        /* \"#utility.yul\":3810:3919   */\n    tag_81:\n        /* \"#utility.yul\":3891:3912   */\n      tag_142\n        /* \"#utility.yul\":3906:3911   */\n      dup2\n        /* \"#utility.yul\":3891:3912   */\n      tag_80\n      jump\t// in\n    tag_142:\n        /* \"#utility.yul\":3886:3889   */\n      dup3\n        /* \"#utility.yul\":3879:3913   */\n      mstore\n        /* \"#utility.yul\":3810:3919   */\n      pop\n      pop\n      jump\t// out\n        /* \"#utility.yul\":3925:4023   */\n    tag_82:\n        /* \"#utility.yul\":3976:3982   */\n      0x00\n        /* \"#utility.yul\":4010:4015   */\n      dup2\n        /* \"#utility.yul\":4004:4016   */\n      mload\n        /* \"#utility.yul\":3994:4016   */\n      swap1\n      pop\n        /* \"#utility.yul\":3925:4023   */\n      swap2\n      swap1\n      pop\n      jump\t// out\n        /* \"#utility.yul\":4029:4197   */\n    tag_83:\n        /* \"#utility.yul\":4112:4123   */\n      0x00\n        /* \"#utility.yul\":4146:4152   */\n      dup3\n        /* \"#utility.yul\":4141:4144   */\n      dup3\n        /* \"#utility.yul\":4134:4153   */\n      mstore\n        /* \"#utility.yul\":4186:4190   */\n      0x20\n        /* \"#utility.yul\":4181:4184   */\n      dup3\n        /* \"#utility.yul\":4177:4191   */\n      add\n        /* \"#utility.yul\":4162:4191   */\n      swap1\n      pop\n        /* \"#utility.yul\":4029:4197   */\n      swap3\n      swap2\n      pop\n      pop\n      jump\t// out\n        /* \"#utility.yul\":4203:4342   */\n    tag_84:\n        /* \"#utility.yul\":4292:4298   */\n      dup3\n        /* \"#utility.yul\":4287:4290   */\n      dup2\n        /* \"#utility.yul\":4282:4285   */\n      dup4\n        /* \"#utility.yul\":4276:4299   */\n      mcopy\n        /* \"#utility.yul\":4333:4334   */\n      0x00\n        /* \"#utility.yul\":4324:4330   */\n      dup4\n        /* \"#utility.yul\":4319:4322   */\n      dup4\n        /* \"#utility.yul\":4315:4331   */\n      add\n        /* \"#utility.yul\":4308:4335   */\n      mstore\n        /* \"#utility.yul\":4203:4342   */\n      pop\n      pop\n      pop\n      jump\t// out\n        /* \"#utility.yul\":4348:4721   */\n    tag_85:\n        /* \"#utility.yul\":4434:4437   */\n      0x00\n        /* \"#utility.yul\":4462:4500   */\n      tag_147\n        /* \"#utility.yul\":4494:4499   */\n      dup3\n        /* \"#utility.yul\":4462:4500   */\n      tag_82\n      jump\t// in\n    tag_147:\n        /* \"#utility.yul\":4516:4586   */\n      tag_148\n        /* \"#utility.yul\":4579:4585   */\n      dup2\n        /* \"#utility.yul\":4574:4577   */\n      dup6\n        /* \"#utility.yul\":4516:4586   */\n      tag_83\n      jump\t// in\n    tag_148:\n        /* \"#utility.yul\":4509:4586   */\n      swap4\n      pop\n        /* \"#utility.yul\":4595:4660   */\n      tag_149\n        /* \"#utility.yul\":4653:4659   */\n      dup2\n        /* \"#utility.yul\":4648:4651   */\n      dup6\n        /* \"#utility.yul\":4641:4645   */\n      0x20\n        /* \"#utility.yul\":4634:4639   */\n      dup7\n        /* \"#utility.yul\":4630:4646   */\n      add\n        /* \"#utility.yul\":4595:4660   */\n      tag_84\n      jump\t// in\n    tag_149:\n        /* \"#utility.yul\":4685:4714   */\n      tag_150\n        /* \"#utility.yul\":4707:4713   */\n      dup2\n        /* \"#utility.yul\":4685:4714   */\n      tag_72\n      jump\t// in\n    tag_150:\n        /* \"#utility.yul\":4680:4683   */\n      dup5\n        /* \"#utility.yul\":4676:4715   */\n      add\n        /* \"#utility.yul\":4669:4715   */\n      swap2\n      pop\n        /* \"#utility.yul\":4438:4721   */\n      pop\n        /* \"#utility.yul\":4348:4721   */\n      swap3\n      swap2\n      pop\n      pop\n      jump\t// out\n        /* \"#utility.yul\":4727:5134   */\n    tag_16:\n        /* \"#utility.yul\":4860:4864   */\n      0x00\n        /* \"#utility.yul\":4898:4900   */\n      0x40\n        /* \"#utility.yul\":4887:4896   */\n      dup3\n        /* \"#utility.yul\":4883:4901   */\n      add\n        /* \"#utility.yul\":4875:4901   */\n      swap1\n      pop\n        /* \"#utility.yul\":4911:4976   */\n      tag_152\n        /* \"#utility.yul\":4973:4974   */\n      0x00\n        /* \"#utility.yul\":4962:4971   */\n      dup4\n        /* \"#utility.yul\":4958:4975   */\n      add\n        /* \"#utility.yul\":4949:4955   */\n      dup6\n        /* \"#utility.yul\":4911:4976   */\n      tag_81\n      jump\t// in\n    tag_152:\n        /* \"#utility.yul\":5023:5032   */\n      dup2\n        /* \"#utility.yul\":5017:5021   */\n      dup2\n        /* \"#utility.yul\":5013:5033   */\n      sub\n        /* \"#utility.yul\":5008:5010   */\n      0x20\n        /* \"#utility.yul\":4997:5006   */\n      dup4\n        /* \"#utility.yul\":4993:5011   */\n      add\n        /* \"#utility.yul\":4986:5034   */\n      mstore\n        /* \"#utility.yul\":5051:5127   */\n      tag_153\n        /* \"#utility.yul\":5122:5126   */\n      dup2\n        /* \"#utility.yul\":5113:5119   */\n      dup5\n        /* \"#utility.yul\":5051:5127   */\n      tag_85\n      jump\t// in\n    tag_153:\n        /* \"#utility.yul\":5043:5127   */\n      swap1\n      pop\n        /* \"#utility.yul\":4727:5134   */\n      swap4\n      swap3\n      pop\n      pop\n      pop\n      jump\t// out\n        /* \"#utility.yul\":5140:5258   */\n    tag_86:\n        /* \"#utility.yul\":5227:5251   */\n      tag_155\n        /* \"#utility.yul\":5245:5250   */\n      dup2\n        /* \"#utility.yul\":5227:5251   */\n      tag_67\n      jump\t// in\n    tag_155:\n        /* \"#utility.yul\":5222:5225   */\n      dup3\n        /* \"#utility.yul\":5215:5252   */\n      mstore\n        /* \"#utility.yul\":5140:5258   */\n      pop\n      pop\n      jump\t// out\n        /* \"#utility.yul\":5264:5486   */\n    tag_21:\n        /* \"#utility.yul\":5357:5361   */\n      0x00\n        /* \"#utility.yul\":5395:5397   */\n      0x20\n        /* \"#utility.yul\":5384:5393   */\n      dup3\n        /* \"#utility.yul\":5380:5398   */\n      add\n        /* \"#utility.yul\":5372:5398   */\n      swap1\n      pop\n        /* \"#utility.yul\":5408:5479   */\n      tag_157\n        /* \"#utility.yul\":5476:5477   */\n      0x00\n        /* \"#utility.yul\":5465:5474   */\n      dup4\n        /* \"#utility.yul\":5461:5478   */\n      add\n        /* \"#utility.yul\":5452:5458   */\n      dup5\n        /* \"#utility.yul\":5408:5479   */\n      tag_86\n      jump\t// in\n    tag_157:\n        /* \"#utility.yul\":5264:5486   */\n      swap3\n      swap2\n      pop\n      pop\n      jump\t// out\n        /* \"#utility.yul\":5492:5821   */\n    tag_24:\n        /* \"#utility.yul\":5551:5557   */\n      0x00\n        /* \"#utility.yul\":5600:5602   */\n      0x20\n        /* \"#utility.yul\":5588:5597   */\n      dup3\n        /* \"#utility.yul\":5579:5586   */\n      dup5\n        /* \"#utility.yul\":5575:5598   */\n      sub\n        /* \"#utility.yul\":5571:5603   */\n      slt\n        /* \"#utility.yul\":5568:5687   */\n      iszero\n      tag_159\n      jumpi\n        /* \"#utility.yul\":5606:5685   */\n      tag_160\n      tag_64\n      jump\t// in\n    tag_160:\n        /* \"#utility.yul\":5568:5687   */\n    tag_159:\n        /* \"#utility.yul\":5726:5727   */\n      0x00\n        /* \"#utility.yul\":5751:5804   */\n      tag_161\n        /* \"#utility.yul\":5796:5803   */\n      dup5\n        /* \"#utility.yul\":5787:5793   */\n      dup3\n        /* \"#utility.yul\":5776:5785   */\n      dup6\n        /* \"#utility.yul\":5772:5794   */\n      add\n        /* \"#utility.yul\":5751:5804   */\n      tag_69\n      jump\t// in\n    tag_161:\n        /* \"#utility.yul\":5741:5804   */\n      swap2\n      pop\n        /* \"#utility.yul\":5697:5814   */\n      pop\n        /* \"#utility.yul\":5492:5821   */\n      swap3\n      swap2\n      pop\n      pop\n      jump\t// out\n        /* \"#utility.yul\":5827:6136   */\n    tag_31:\n        /* \"#utility.yul\":5938:5942   */\n      0x00\n        /* \"#utility.yul\":5976:5978   */\n      0x20\n        /* \"#utility.yul\":5965:5974   */\n      dup3\n        /* \"#utility.yul\":5961:5979   */\n      add\n        /* \"#utility.yul\":5953:5979   */\n      swap1\n      pop\n        /* \"#utility.yul\":6025:6034   */\n      dup2\n        /* \"#utility.yul\":6019:6023   */\n      dup2\n        /* \"#utility.yul\":6015:6035   */\n      sub\n        /* \"#utility.yul\":6011:6012   */\n      0x00\n        /* \"#utility.yul\":6000:6009   */\n      dup4\n        /* \"#utility.yul\":5996:6013   */\n      add\n        /* \"#utility.yul\":5989:6036   */\n      mstore\n        /* \"#utility.yul\":6053:6129   */\n      tag_163\n        /* \"#utility.yul\":6124:6128   */\n      dup2\n        /* \"#utility.yul\":6115:6121   */\n      dup5\n        /* \"#utility.yul\":6053:6129   */\n      tag_85\n      jump\t// in\n    tag_163:\n        /* \"#utility.yul\":6045:6129   */\n      swap1\n      pop\n        /* \"#utility.yul\":5827:6136   */\n      swap3\n      swap2\n      pop\n      pop\n      jump\t// out\n        /* \"#utility.yul\":6142:6616   */\n    tag_35:\n        /* \"#utility.yul\":6210:6216   */\n      0x00\n        /* \"#utility.yul\":6218:6224   */\n      0x00\n        /* \"#utility.yul\":6267:6269   */\n      0x40\n        /* \"#utility.yul\":6255:6264   */\n      dup4\n        /* \"#utility.yul\":6246:6253   */\n      dup6\n        /* \"#utility.yul\":6242:6265   */\n      sub\n        /* \"#utility.yul\":6238:6270   */\n      slt\n        /* \"#utility.yul\":6235:6354   */\n      iszero\n      tag_165\n      jumpi\n        /* \"#utility.yul\":6273:6352   */\n      tag_166\n      tag_64\n      jump\t// in\n    tag_166:\n        /* \"#utility.yul\":6235:6354   */\n    tag_165:\n        /* \"#utility.yul\":6393:6394   */\n      0x00\n        /* \"#utility.yul\":6418:6471   */\n      tag_167\n        /* \"#utility.yul\":6463:6470   */\n      dup6\n        /* \"#utility.yul\":6454:6460   */\n      dup3\n        /* \"#utility.yul\":6443:6452   */\n      dup7\n        /* \"#utility.yul\":6439:6461   */\n      add\n        /* \"#utility.yul\":6418:6471   */\n      tag_69\n      jump\t// in\n    tag_167:\n        /* \"#utility.yul\":6408:6471   */\n      swap3\n      pop\n        /* \"#utility.yul\":6364:6481   */\n      pop\n        /* \"#utility.yul\":6520:6522   */\n      0x20\n        /* \"#utility.yul\":6546:6599   */\n      tag_168\n        /* \"#utility.yul\":6591:6598   */\n      dup6\n        /* \"#utility.yul\":6582:6588   */\n      dup3\n        /* \"#utility.yul\":6571:6580   */\n      dup7\n        /* \"#utility.yul\":6567:6589   */\n      add\n        /* \"#utility.yul\":6546:6599   */\n      tag_69\n      jump\t// in\n    tag_168:\n        /* \"#utility.yul\":6536:6599   */\n      swap2\n      pop\n        /* \"#utility.yul\":6491:6609   */\n      pop\n        /* \"#utility.yul\":6142:6616   */\n      swap3\n      pop\n      swap3\n      swap1\n      pop\n      jump\t// out\n        /* \"#utility.yul\":6622:6832   */\n    tag_38:\n        /* \"#utility.yul\":6709:6713   */\n      0x00\n        /* \"#utility.yul\":6747:6749   */\n      0x20\n        /* \"#utility.yul\":6736:6745   */\n      dup3\n        /* \"#utility.yul\":6732:6750   */\n      add\n        /* \"#utility.yul\":6724:6750   */\n      swap1\n      pop\n        /* \"#utility.yul\":6760:6825   */\n      tag_170\n        /* \"#utility.yul\":6822:6823   */\n      0x00\n        /* \"#utility.yul\":6811:6820   */\n      dup4\n        /* \"#utility.yul\":6807:6824   */\n      add\n        /* \"#utility.yul\":6798:6804   */\n      dup5\n        /* \"#utility.yul\":6760:6825   */\n      tag_81\n      jump\t// in\n    tag_170:\n        /* \"#utility.yul\":6622:6832   */\n      swap3\n      swap2\n      pop\n      pop\n      jump\t// out\n        /* \"#utility.yul\":6838:6915   */\n    tag_87:\n        /* \"#utility.yul\":6875:6882   */\n      0x00\n        /* \"#utility.yul\":6904:6909   */\n      dup2\n        /* \"#utility.yul\":6893:6909   */\n      swap1\n      pop\n        /* \"#utility.yul\":6838:6915   */\n      swap2\n      swap1\n      pop\n      jump\t// out\n        /* \"#utility.yul\":6921:7039   */\n    tag_88:\n        /* \"#utility.yul\":7008:7032   */\n      tag_173\n        /* \"#utility.yul\":7026:7031   */\n      dup2\n        /* \"#utility.yul\":7008:7032   */\n      tag_87\n      jump\t// in\n    tag_173:\n        /* \"#utility.yul\":7003:7006   */\n      dup3\n        /* \"#utility.yul\":6996:7033   */\n      mstore\n        /* \"#utility.yul\":6921:7039   */\n      pop\n      pop\n      jump\t// out\n        /* \"#utility.yul\":7045:7267   */\n    tag_44:\n        /* \"#utility.yul\":7138:7142   */\n      0x00\n        /* \"#utility.yul\":7176:7178   */\n      0x20\n        /* \"#utility.yul\":7165:7174   */\n      dup3\n        /* \"#utility.yul\":7161:7179   */\n      add\n        /* \"#utility.yul\":7153:7179   */\n      swap1\n      pop\n        /* \"#utility.yul\":7189:7260   */\n      tag_175\n        /* \"#utility.yul\":7257:7258   */\n      0x00\n        /* \"#utility.yul\":7246:7255   */\n      dup4\n        /* \"#utility.yul\":7242:7259   */\n      add\n        /* \"#utility.yul\":7233:7239   */\n      dup5\n        /* \"#utility.yul\":7189:7260   */\n      tag_88\n      jump\t// in\n    tag_175:\n        /* \"#utility.yul\":7045:7267   */\n      swap3\n      swap2\n      pop\n      pop\n      jump\t// out\n        /* \"#utility.yul\":7273:7420   */\n    tag_89:\n        /* \"#utility.yul\":7374:7385   */\n      0x00\n        /* \"#utility.yul\":7411:7414   */\n      dup2\n        /* \"#utility.yul\":7396:7414   */\n      swap1\n      pop\n        /* \"#utility.yul\":7273:7420   */\n      swap3\n      swap2\n      pop\n      pop\n      jump\t// out\n        /* \"#utility.yul\":7426:7812   */\n    tag_90:\n        /* \"#utility.yul\":7530:7533   */\n      0x00\n        /* \"#utility.yul\":7558:7596   */\n      tag_178\n        /* \"#utility.yul\":7590:7595   */\n      dup3\n        /* \"#utility.yul\":7558:7596   */\n      tag_82\n      jump\t// in\n    tag_178:\n        /* \"#utility.yul\":7612:7700   */\n      tag_179\n        /* \"#utility.yul\":7693:7699   */\n      dup2\n        /* \"#utility.yul\":7688:7691   */\n      dup6\n        /* \"#utility.yul\":7612:7700   */\n      tag_89\n      jump\t// in\n    tag_179:\n        /* \"#utility.yul\":7605:7700   */\n      swap4\n      pop\n        /* \"#utility.yul\":7709:7774   */\n      tag_180\n        /* \"#utility.yul\":7767:7773   */\n      dup2\n        /* \"#utility.yul\":7762:7765   */\n      dup6\n        /* \"#utility.yul\":7755:7759   */\n      0x20\n        /* \"#utility.yul\":7748:7753   */\n      dup7\n        /* \"#utility.yul\":7744:7760   */\n      add\n        /* \"#utility.yul\":7709:7774   */\n      tag_84\n      jump\t// in\n    tag_180:\n        /* \"#utility.yul\":7799:7805   */\n      dup1\n        /* \"#utility.yul\":7794:7797   */\n      dup5\n        /* \"#utility.yul\":7790:7806   */\n      add\n        /* \"#utility.yul\":7783:7806   */\n      swap2\n      pop\n        /* \"#utility.yul\":7534:7812   */\n      pop\n        /* \"#utility.yul\":7426:7812   */\n      swap3\n      swap2\n      pop\n      pop\n      jump\t// out\n        /* \"#utility.yul\":7818:8089   */\n    tag_51:\n        /* \"#utility.yul\":7948:7951   */\n      0x00\n        /* \"#utility.yul\":7970:8063   */\n      tag_182\n        /* \"#utility.yul\":8059:8062   */\n      dup3\n        /* \"#utility.yul\":8050:8056   */\n      dup5\n        /* \"#utility.yul\":7970:8063   */\n      tag_90\n      jump\t// in\n    tag_182:\n        /* \"#utility.yul\":7963:8063   */\n      swap2\n      pop\n        /* \"#utility.yul\":8080:8083   */\n      dup2\n        /* \"#utility.yul\":8073:8083   */\n      swap1\n      pop\n        /* \"#utility.yul\":7818:8089   */\n      swap3\n      swap2\n      pop\n      pop\n      jump\t// out\n        /* \"#utility.yul\":8095:8189   */\n    tag_91:\n        /* \"#utility.yul\":8128:8136   */\n      0x00\n        /* \"#utility.yul\":8176:8181   */\n      dup2\n        /* \"#utility.yul\":8172:8174   */\n      0x60\n        /* \"#utility.yul\":8168:8182   */\n      shl\n        /* \"#utility.yul\":8147:8182   */\n      swap1\n      pop\n        /* \"#utility.yul\":8095:8189   */\n      swap2\n      swap1\n      pop\n      jump\t// out\n        /* \"#utility.yul\":8195:8289   */\n    tag_92:\n        /* \"#utility.yul\":8234:8241   */\n      0x00\n        /* \"#utility.yul\":8263:8283   */\n      tag_185\n        /* \"#utility.yul\":8277:8282   */\n      dup3\n        /* \"#utility.yul\":8263:8283   */\n      tag_91\n      jump\t// in\n    tag_185:\n        /* \"#utility.yul\":8252:8283   */\n      swap1\n      pop\n        /* \"#utility.yul\":8195:8289   */\n      swap2\n      swap1\n      pop\n      jump\t// out\n        /* \"#utility.yul\":8295:8395   */\n    tag_93:\n        /* \"#utility.yul\":8334:8341   */\n      0x00\n        /* \"#utility.yul\":8363:8389   */\n      tag_187\n        /* \"#utility.yul\":8383:8388   */\n      dup3\n        /* \"#utility.yul\":8363:8389   */\n      tag_92\n      jump\t// in\n    tag_187:\n        /* \"#utility.yul\":8352:8389   */\n      swap1\n      pop\n        /* \"#utility.yul\":8295:8395   */\n      swap2\n      swap1\n      pop\n      jump\t// out\n        /* \"#utility.yul\":8401:8558   */\n    tag_94:\n        /* \"#utility.yul\":8506:8551   */\n      tag_189\n        /* \"#utility.yul\":8526:8550   */\n      tag_190\n        /* \"#utility.yul\":8544:8549   */\n      dup3\n        /* \"#utility.yul\":8526:8550   */\n      tag_67\n      jump\t// in\n    tag_190:\n        /* \"#utility.yul\":8506:8551   */\n      tag_93\n      jump\t// in\n    tag_189:\n        /* \"#utility.yul\":8501:8504   */\n      dup3\n        /* \"#utility.yul\":8494:8552   */\n      mstore\n        /* \"#utility.yul\":8401:8558   */\n      pop\n      pop\n      jump\t// out\n        /* \"#utility.yul\":8564:8820   */\n    tag_60:\n        /* \"#utility.yul\":8676:8679   */\n      0x00\n        /* \"#utility.yul\":8691:8766   */\n      tag_192\n        /* \"#utility.yul\":8762:8765   */\n      dup3\n        /* \"#utility.yul\":8753:8759   */\n      dup5\n        /* \"#utility.yul\":8691:8766   */\n      tag_94\n      jump\t// in\n    tag_192:\n        /* \"#utility.yul\":8791:8793   */\n      0x14\n        /* \"#utility.yul\":8786:8789   */\n      dup3\n        /* \"#utility.yul\":8782:8794   */\n      add\n        /* \"#utility.yul\":8775:8794   */\n      swap2\n      pop\n        /* \"#utility.yul\":8811:8814   */\n      dup2\n        /* \"#utility.yul\":8804:8814   */\n      swap1\n      pop\n        /* \"#utility.yul\":8564:8820   */\n      swap3\n      swap2\n      pop\n      pop\n      jump\t// out\n\n    auxdata: 0xa2646970667358221220ebcffbf4ec5960b02a3f5b46b0f67fc77ee33abaa04574b0222398b156e4951264736f6c634300081e0033\n}\n",
				"bytecode": {
					"linkReferences": {},
					"object": "60806040523360015f6101000a81548173ffffffffffffffffffffffffffffffffffffffff021916908373ffffffffffffffffffffffffffffffffffffffff160217905550348015604e575f5ffd5b506107ea8061005c5f395ff3fe60806040526004361061006f575f3560e01c8063593b79fe1161004d578063593b79fe146100f657806395e885c014610132578063f8b2cb4f1461016e578063fc9c8d39146101aa5761006f565b8063037106681461007357806326b85ee1146100b057806348c981e2146100da575b5f5ffd5b34801561007e575f5ffd5b5061009960048036038101906100949190610508565b6101d4565b6040516100a79291906105dc565b60405180910390f35b3480156100bb575f5ffd5b506100c4610250565b6040516100d19190610619565b60405180910390f35b6100f460048036038101906100ef9190610632565b610274565b005b348015610101575f5ffd5b5061011c60048036038101906101179190610632565b6102bb565b604051610129919061065d565b60405180910390f35b34801561013d575f5ffd5b506101586004803603810190610153919061067d565b6102e4565b60405161016591906106bb565b60405180910390f35b348015610179575f5ffd5b50610194600480360381019061018f9190610632565b61031c565b6040516101a191906106ec565b60405180910390f35b3480156101b5575f5ffd5b506101be61033c565b6040516101cb9190610619565b60405180910390f35b5f60605f5f8573ffffffffffffffffffffffffffffffffffffffff16856040516101fe919061073f565b5f604051808303815f865af19150503d805f8114610237576040519150601f19603f3d011682016040523d82523d5f602084013e61023c565b606091505b509150915081819350935050509250929050565b5f5f9054906101000a900473ffffffffffffffffffffffffffffffffffffffff1681565b8073ffffffffffffffffffffffffffffffffffffffff166108fc3490811502906040515f60405180830381858888f193505050501580156102b7573d5f5f3e3d5ffd5b5050565b6060816040516020016102ce919061079a565b6040516020818303038152906040529050919050565b5f8173ffffffffffffffffffffffffffffffffffffffff168373ffffffffffffffffffffffffffffffffffffffff1614905092915050565b5f8173ffffffffffffffffffffffffffffffffffffffff16319050919050565b60015f9054906101000a900473ffffffffffffffffffffffffffffffffffffffff1681565b5f604051905090565b5f5ffd5b5f5ffd5b5f73ffffffffffffffffffffffffffffffffffffffff82169050919050565b5f61039b82610372565b9050919050565b6103ab81610391565b81146103b5575f5ffd5b50565b5f813590506103c6816103a2565b92915050565b5f5ffd5b5f5ffd5b5f601f19601f8301169050919050565b7f4e487b71000000000000000000000000000000000000000000000000000000005f52604160045260245ffd5b61041a826103d4565b810181811067ffffffffffffffff82111715610439576104386103e4565b5b80604052505050565b5f61044b610361565b90506104578282610411565b919050565b5f67ffffffffffffffff821115610476576104756103e4565b5b61047f826103d4565b9050602081019050919050565b828183375f83830152505050565b5f6104ac6104a78461045c565b610442565b9050828152602081018484840111156104c8576104c76103d0565b5b6104d384828561048c565b509392505050565b5f82601f8301126104ef576104ee6103cc565b5b81356104ff84826020860161049a565b91505092915050565b5f5f6040838503121561051e5761051d61036a565b5b5f61052b858286016103b8565b925050602083013567ffffffffffffffff81111561054c5761054b61036e565b5b610558858286016104db565b9150509250929050565b5f8115159050919050565b61057681610562565b82525050565b5f81519050919050565b5f82825260208201905092915050565b8281835e5f83830152505050565b5f6105ae8261057c565b6105b88185610586565b93506105c8818560208601610596565b6105d1816103d4565b840191505092915050565b5f6040820190506105ef5f83018561056d565b818103602083015261060181846105a4565b90509392505050565b61061381610391565b82525050565b5f60208201905061062c5f83018461060a565b92915050565b5f602082840312156106475761064661036a565b5b5f610654848285016103b8565b91505092915050565b5f6020820190508181035f83015261067581846105a4565b905092915050565b5f5f604083850312156106935761069261036a565b5b5f6106a0858286016103b8565b92505060206106b1858286016103b8565b9150509250929050565b5f6020820190506106ce5f83018461056d565b92915050565b5f819050919050565b6106e6816106d4565b82525050565b5f6020820190506106ff5f8301846106dd565b92915050565b5f81905092915050565b5f6107198261057c565b6107238185610705565b9350610733818560208601610596565b80840191505092915050565b5f61074a828461070f565b915081905092915050565b5f8160601b9050919050565b5f61076b82610755565b9050919050565b5f61077c82610761565b9050919050565b61079461078f82610391565b610772565b82525050565b5f6107a58284610783565b6014820191508190509291505056fea2646970667358221220ebcffbf4ec5960b02a3f5b46b0f67fc77ee33abaa04574b0222398b156e4951264736f6c634300081e0033",
					"opcodes": "PUSH1 0x80 PUSH1 0x40 MSTORE CALLER PUSH1 0x1 PUSH0 PUSH2 0x100 EXP DUP2 SLOAD DUP2 PUSH20 0xFFFFFFFFFFFFFFFFFFFFFFFFFFFFFFFFFFFFFFFF MUL NOT AND SWAP1 DUP4 PUSH20 0xFFFFFFFFFFFFFFFFFFFFFFFFFFFFFFFFFFFFFFFF AND MUL OR SWAP1 SSTORE POP CALLVALUE DUP1 ISZERO PUSH1 0x4E JUMPI PUSH0 PUSH0 REVERT JUMPDEST POP PUSH2 0x7EA DUP1 PUSH2 0x5C PUSH0 CODECOPY PUSH0 RETURN INVALID PUSH1 0x80 PUSH1 0x40 MSTORE PUSH1 0x4 CALLDATASIZE LT PUSH2 0x6F JUMPI PUSH0 CALLDATALOAD PUSH1 0xE0 SHR DUP1 PUSH4 0x593B79FE GT PUSH2 0x4D JUMPI DUP1 PUSH4 0x593B79FE EQ PUSH2 0xF6 JUMPI DUP1 PUSH4 0x95E885C0 EQ PUSH2 0x132 JUMPI DUP1 PUSH4 0xF8B2CB4F EQ PUSH2 0x16E JUMPI DUP1 PUSH4 0xFC9C8D39 EQ PUSH2 0x1AA JUMPI PUSH2 0x6F JUMP JUMPDEST DUP1 PUSH4 0x3710668 EQ PUSH2 0x73 JUMPI DUP1 PUSH4 0x26B85EE1 EQ PUSH2 0xB0 JUMPI DUP1 PUSH4 0x48C981E2 EQ PUSH2 0xDA JUMPI JUMPDEST PUSH0 PUSH0 REVERT JUMPDEST CALLVALUE DUP1 ISZERO PUSH2 0x7E JUMPI PUSH0 PUSH0 REVERT JUMPDEST POP PUSH2 0x99 PUSH1 0x4 DUP1 CALLDATASIZE SUB DUP2 ADD SWAP1 PUSH2 0x94 SWAP2 SWAP1 PUSH2 0x508 JUMP JUMPDEST PUSH2 0x1D4 JUMP JUMPDEST PUSH1 0x40 MLOAD PUSH2 0xA7 SWAP3 SWAP2 SWAP1 PUSH2 0x5DC JUMP JUMPDEST PUSH1 0x40 MLOAD DUP1 SWAP2 SUB SWAP1 RETURN JUMPDEST CALLVALUE DUP1 ISZERO PUSH2 0xBB JUMPI PUSH0 PUSH0 REVERT JUMPDEST POP PUSH2 0xC4 PUSH2 0x250 JUMP JUMPDEST PUSH1 0x40 MLOAD PUSH2 0xD1 SWAP2 SWAP1 PUSH2 0x619 JUMP JUMPDEST PUSH1 0x40 MLOAD DUP1 SWAP2 SUB SWAP1 RETURN JUMPDEST PUSH2 0xF4 PUSH1 0x4 DUP1 CALLDATASIZE SUB DUP2 ADD SWAP1 PUSH2 0xEF SWAP2 SWAP1 PUSH2 0x632 JUMP JUMPDEST PUSH2 0x274 JUMP JUMPDEST STOP JUMPDEST CALLVALUE DUP1 ISZERO PUSH2 0x101 JUMPI PUSH0 PUSH0 REVERT JUMPDEST POP PUSH2 0x11C PUSH1 0x4 DUP1 CALLDATASIZE SUB DUP2 ADD SWAP1 PUSH2 0x117 SWAP2 SWAP1 PUSH2 0x632 JUMP JUMPDEST PUSH2 0x2BB JUMP JUMPDEST PUSH1 0x40 MLOAD PUSH2 0x129 SWAP2 SWAP1 PUSH2 0x65D JUMP JUMPDEST PUSH1 0x40 MLOAD DUP1 SWAP2 SUB SWAP1 RETURN JUMPDEST CALLVALUE DUP1 ISZERO PUSH2 0x13D JUMPI PUSH0 PUSH0 REVERT JUMPDEST POP PUSH2 0x158 PUSH1 0x4 DUP1 CALLDATASIZE SUB DUP2 ADD SWAP1 PUSH2 0x153 SWAP2 SWAP1 PUSH2 0x67D JUMP JUMPDEST PUSH2 0x2E4 JUMP JUMPDEST PUSH1 0x40 MLOAD PUSH2 0x165 SWAP2 SWAP1 PUSH2 0x6BB JUMP JUMPDEST PUSH1 0x40 MLOAD DUP1 SWAP2 SUB SWAP1 RETURN JUMPDEST CALLVALUE DUP1 ISZERO PUSH2 0x179 JUMPI PUSH0 PUSH0 REVERT JUMPDEST POP PUSH2 0x194 PUSH1 0x4 DUP1 CALLDATASIZE SUB DUP2 ADD SWAP1 PUSH2 0x18F SWAP2 SWAP1 PUSH2 0x632 JUMP JUMPDEST PUSH2 0x31C JUMP JUMPDEST PUSH1 0x40 MLOAD PUSH2 0x1A1 SWAP2 SWAP1 PUSH2 0x6EC JUMP JUMPDEST PUSH1 0x40 MLOAD DUP1 SWAP2 SUB SWAP1 RETURN JUMPDEST CALLVALUE DUP1 ISZERO PUSH2 0x1B5 JUMPI PUSH0 PUSH0 REVERT JUMPDEST POP PUSH2 0x1BE PUSH2 0x33C JUMP JUMPDEST PUSH1 0x40 MLOAD PUSH2 0x1CB SWAP2 SWAP1 PUSH2 0x619 JUMP JUMPDEST PUSH1 0x40 MLOAD DUP1 SWAP2 SUB SWAP1 RETURN JUMPDEST PUSH0 PUSH1 0x60 PUSH0 PUSH0 DUP6 PUSH20 0xFFFFFFFFFFFFFFFFFFFFFFFFFFFFFFFFFFFFFFFF AND DUP6 PUSH1 0x40 MLOAD PUSH2 0x1FE SWAP2 SWAP1 PUSH2 0x73F JUMP JUMPDEST PUSH0 PUSH1 0x40 MLOAD DUP1 DUP4 SUB DUP2 PUSH0 DUP7 GAS CALL SWAP2 POP POP RETURNDATASIZE DUP1 PUSH0 DUP2 EQ PUSH2 0x237 JUMPI PUSH1 0x40 MLOAD SWAP2 POP PUSH1 0x1F NOT PUSH1 0x3F RETURNDATASIZE ADD AND DUP3 ADD PUSH1 0x40 MSTORE RETURNDATASIZE DUP3 MSTORE RETURNDATASIZE PUSH0 PUSH1 0x20 DUP5 ADD RETURNDATACOPY PUSH2 0x23C JUMP JUMPDEST PUSH1 0x60 SWAP2 POP JUMPDEST POP SWAP2 POP SWAP2 POP DUP2 DUP2 SWAP4 POP SWAP4 POP POP POP SWAP3 POP SWAP3 SWAP1 POP JUMP JUMPDEST PUSH0 PUSH0 SWAP1 SLOAD SWAP1 PUSH2 0x100 EXP SWAP1 DIV PUSH20 0xFFFFFFFFFFFFFFFFFFFFFFFFFFFFFFFFFFFFFFFF AND DUP2 JUMP JUMPDEST DUP1 PUSH20 0xFFFFFFFFFFFFFFFFFFFFFFFFFFFFFFFFFFFFFFFF AND PUSH2 0x8FC CALLVALUE SWAP1 DUP2 ISZERO MUL SWAP1 PUSH1 0x40 MLOAD PUSH0 PUSH1 0x40 MLOAD DUP1 DUP4 SUB DUP2 DUP6 DUP9 DUP9 CALL SWAP4 POP POP POP POP ISZERO DUP1 ISZERO PUSH2 0x2B7 JUMPI RETURNDATASIZE PUSH0 PUSH0 RETURNDATACOPY RETURNDATASIZE PUSH0 REVERT JUMPDEST POP POP JUMP JUMPDEST PUSH1 0x60 DUP2 PUSH1 0x40 MLOAD PUSH1 0x20 ADD PUSH2 0x2CE SWAP2 SWAP1 PUSH2 0x79A JUMP JUMPDEST PUSH1 0x40 MLOAD PUSH1 0x20 DUP2 DUP4 SUB SUB DUP2 MSTORE SWAP1 PUSH1 0x40 MSTORE SWAP1 POP SWAP2 SWAP1 POP JUMP JUMPDEST PUSH0 DUP2 PUSH20 0xFFFFFFFFFFFFFFFFFFFFFFFFFFFFFFFFFFFFFFFF AND DUP4 PUSH20 0xFFFFFFFFFFFFFFFFFFFFFFFFFFFFFFFFFFFFFFFF AND EQ SWAP1 POP SWAP3 SWAP2 POP POP JUMP JUMPDEST PUSH0 DUP2 PUSH20 0xFFFFFFFFFFFFFFFFFFFFFFFFFFFFFFFFFFFFFFFF AND BALANCE SWAP1 POP SWAP2 SWAP1 POP JUMP JUMPDEST PUSH1 0x1 PUSH0 SWAP1 SLOAD SWAP1 PUSH2 0x100 EXP SWAP1 DIV PUSH20 0xFFFFFFFFFFFFFFFFFFFFFFFFFFFFFFFFFFFFFFFF AND DUP2 JUMP JUMPDEST PUSH0 PUSH1 0x40 MLOAD SWAP1 POP SWAP1 JUMP JUMPDEST PUSH0 PUSH0 REVERT JUMPDEST PUSH0 PUSH0 REVERT JUMPDEST PUSH0 PUSH20 0xFFFFFFFFFFFFFFFFFFFFFFFFFFFFFFFFFFFFFFFF DUP3 AND SWAP1 POP SWAP2 SWAP1 POP JUMP JUMPDEST PUSH0 PUSH2 0x39B DUP3 PUSH2 0x372 JUMP JUMPDEST SWAP1 POP SWAP2 SWAP1 POP JUMP JUMPDEST PUSH2 0x3AB DUP2 PUSH2 0x391 JUMP JUMPDEST DUP2 EQ PUSH2 0x3B5 JUMPI PUSH0 PUSH0 REVERT JUMPDEST POP JUMP JUMPDEST PUSH0 DUP2 CALLDATALOAD SWAP1 POP PUSH2 0x3C6 DUP2 PUSH2 0x3A2 JUMP JUMPDEST SWAP3 SWAP2 POP POP JUMP JUMPDEST PUSH0 PUSH0 REVERT JUMPDEST PUSH0 PUSH0 REVERT JUMPDEST PUSH0 PUSH1 0x1F NOT PUSH1 0x1F DUP4 ADD AND SWAP1 POP SWAP2 SWAP1 POP JUMP JUMPDEST PUSH32 0x4E487B7100000000000000000000000000000000000000000000000000000000 PUSH0 MSTORE PUSH1 0x41 PUSH1 0x4 MSTORE PUSH1 0x24 PUSH0 REVERT JUMPDEST PUSH2 0x41A DUP3 PUSH2 0x3D4 JUMP JUMPDEST DUP2 ADD DUP2 DUP2 LT PUSH8 0xFFFFFFFFFFFFFFFF DUP3 GT OR ISZERO PUSH2 0x439 JUMPI PUSH2 0x438 PUSH2 0x3E4 JUMP JUMPDEST JUMPDEST DUP1 PUSH1 0x40 MSTORE POP POP POP JUMP JUMPDEST PUSH0 PUSH2 0x44B PUSH2 0x361 JUMP JUMPDEST SWAP1 POP PUSH2 0x457 DUP3 DUP3 PUSH2 0x411 JUMP JUMPDEST SWAP2 SWAP1 POP JUMP JUMPDEST PUSH0 PUSH8 0xFFFFFFFFFFFFFFFF DUP3 GT ISZERO PUSH2 0x476 JUMPI PUSH2 0x475 PUSH2 0x3E4 JUMP JUMPDEST JUMPDEST PUSH2 0x47F DUP3 PUSH2 0x3D4 JUMP JUMPDEST SWAP1 POP PUSH1 0x20 DUP2 ADD SWAP1 POP SWAP2 SWAP1 POP JUMP JUMPDEST DUP3 DUP2 DUP4 CALLDATACOPY PUSH0 DUP4 DUP4 ADD MSTORE POP POP POP JUMP JUMPDEST PUSH0 PUSH2 0x4AC PUSH2 0x4A7 DUP5 PUSH2 0x45C JUMP JUMPDEST PUSH2 0x442 JUMP JUMPDEST SWAP1 POP DUP3 DUP2 MSTORE PUSH1 0x20 DUP2 ADD DUP5 DUP5 DUP5 ADD GT ISZERO PUSH2 0x4C8 JUMPI PUSH2 0x4C7 PUSH2 0x3D0 JUMP JUMPDEST JUMPDEST PUSH2 0x4D3 DUP5 DUP3 DUP6 PUSH2 0x48C JUMP JUMPDEST POP SWAP4 SWAP3 POP POP POP JUMP JUMPDEST PUSH0 DUP3 PUSH1 0x1F DUP4 ADD SLT PUSH2 0x4EF JUMPI PUSH2 0x4EE PUSH2 0x3CC JUMP JUMPDEST JUMPDEST DUP2 CALLDATALOAD PUSH2 0x4FF DUP5 DUP3 PUSH1 0x20 DUP7 ADD PUSH2 0x49A JUMP JUMPDEST SWAP2 POP POP SWAP3 SWAP2 POP POP JUMP JUMPDEST PUSH0 PUSH0 PUSH1 0x40 DUP4 DUP6 SUB SLT ISZERO PUSH2 0x51E JUMPI PUSH2 0x51D PUSH2 0x36A JUMP JUMPDEST JUMPDEST PUSH0 PUSH2 0x52B DUP6 DUP3 DUP7 ADD PUSH2 0x3B8 JUMP JUMPDEST SWAP3 POP POP PUSH1 0x20 DUP4 ADD CALLDATALOAD PUSH8 0xFFFFFFFFFFFFFFFF DUP2 GT ISZERO PUSH2 0x54C JUMPI PUSH2 0x54B PUSH2 0x36E JUMP JUMPDEST JUMPDEST PUSH2 0x558 DUP6 DUP3 DUP7 ADD PUSH2 0x4DB JUMP JUMPDEST SWAP2 POP POP SWAP3 POP SWAP3 SWAP1 POP JUMP JUMPDEST PUSH0 DUP2 ISZERO ISZERO SWAP1 POP SWAP2 SWAP1 POP JUMP JUMPDEST PUSH2 0x576 DUP2 PUSH2 0x562 JUMP JUMPDEST DUP3 MSTORE POP POP JUMP JUMPDEST PUSH0 DUP2 MLOAD SWAP1 POP SWAP2 SWAP1 POP JUMP JUMPDEST PUSH0 DUP3 DUP3 MSTORE PUSH1 0x20 DUP3 ADD SWAP1 POP SWAP3 SWAP2 POP POP JUMP JUMPDEST DUP3 DUP2 DUP4 MCOPY PUSH0 DUP4 DUP4 ADD MSTORE POP POP POP JUMP JUMPDEST PUSH0 PUSH2 0x5AE DUP3 PUSH2 0x57C JUMP JUMPDEST PUSH2 0x5B8 DUP2 DUP6 PUSH2 0x586 JUMP JUMPDEST SWAP4 POP PUSH2 0x5C8 DUP2 DUP6 PUSH1 0x20 DUP7 ADD PUSH2 0x596 JUMP JUMPDEST PUSH2 0x5D1 DUP2 PUSH2 0x3D4 JUMP JUMPDEST DUP5 ADD SWAP2 POP POP SWAP3 SWAP2 POP POP JUMP JUMPDEST PUSH0 PUSH1 0x40 DUP3 ADD SWAP1 POP PUSH2 0x5EF PUSH0 DUP4 ADD DUP6 PUSH2 0x56D JUMP JUMPDEST DUP2 DUP2 SUB PUSH1 0x20 DUP4 ADD MSTORE PUSH2 0x601 DUP2 DUP5 PUSH2 0x5A4 JUMP JUMPDEST SWAP1 POP SWAP4 SWAP3 POP POP POP JUMP JUMPDEST PUSH2 0x613 DUP2 PUSH2 0x391 JUMP JUMPDEST DUP3 MSTORE POP POP JUMP JUMPDEST PUSH0 PUSH1 0x20 DUP3 ADD SWAP1 POP PUSH2 0x62C PUSH0 DUP4 ADD DUP5 PUSH2 0x60A JUMP JUMPDEST SWAP3 SWAP2 POP POP JUMP JUMPDEST PUSH0 PUSH1 0x20 DUP3 DUP5 SUB SLT ISZERO PUSH2 0x647 JUMPI PUSH2 0x646 PUSH2 0x36A JUMP JUMPDEST JUMPDEST PUSH0 PUSH2 0x654 DUP5 DUP3 DUP6 ADD PUSH2 0x3B8 JUMP JUMPDEST SWAP2 POP POP SWAP3 SWAP2 POP POP JUMP JUMPDEST PUSH0 PUSH1 0x20 DUP3 ADD SWAP1 POP DUP2 DUP2 SUB PUSH0 DUP4 ADD MSTORE PUSH2 0x675 DUP2 DUP5 PUSH2 0x5A4 JUMP JUMPDEST SWAP1 POP SWAP3 SWAP2 POP POP JUMP JUMPDEST PUSH0 PUSH0 PUSH1 0x40 DUP4 DUP6 SUB SLT ISZERO PUSH2 0x693 JUMPI PUSH2 0x692 PUSH2 0x36A JUMP JUMPDEST JUMPDEST PUSH0 PUSH2 0x6A0 DUP6 DUP3 DUP7 ADD PUSH2 0x3B8 JUMP JUMPDEST SWAP3 POP POP PUSH1 0x20 PUSH2 0x6B1 DUP6 DUP3 DUP7 ADD PUSH2 0x3B8 JUMP JUMPDEST SWAP2 POP POP SWAP3 POP SWAP3 SWAP1 POP JUMP JUMPDEST PUSH0 PUSH1 0x20 DUP3 ADD SWAP1 POP PUSH2 0x6CE PUSH0 DUP4 ADD DUP5 PUSH2 0x56D JUMP JUMPDEST SWAP3 SWAP2 POP POP JUMP JUMPDEST PUSH0 DUP2 SWAP1 POP SWAP2 SWAP1 POP JUMP JUMPDEST PUSH2 0x6E6 DUP2 PUSH2 0x6D4 JUMP JUMPDEST DUP3 MSTORE POP POP JUMP JUMPDEST PUSH0 PUSH1 0x20 DUP3 ADD SWAP1 POP PUSH2 0x6FF PUSH0 DUP4 ADD DUP5 PUSH2 0x6DD JUMP JUMPDEST SWAP3 SWAP2 POP POP JUMP JUMPDEST PUSH0 DUP2 SWAP1 POP SWAP3 SWAP2 POP POP JUMP JUMPDEST PUSH0 PUSH2 0x719 DUP3 PUSH2 0x57C JUMP JUMPDEST PUSH2 0x723 DUP2 DUP6 PUSH2 0x705 JUMP JUMPDEST SWAP4 POP PUSH2 0x733 DUP2 DUP6 PUSH1 0x20 DUP7 ADD PUSH2 0x596 JUMP JUMPDEST DUP1 DUP5 ADD SWAP2 POP POP SWAP3 SWAP2 POP POP JUMP JUMPDEST PUSH0 PUSH2 0x74A DUP3 DUP5 PUSH2 0x70F JUMP JUMPDEST SWAP2 POP DUP2 SWAP1 POP SWAP3 SWAP2 POP POP JUMP JUMPDEST PUSH0 DUP2 PUSH1 0x60 SHL SWAP1 POP SWAP2 SWAP1 POP JUMP JUMPDEST PUSH0 PUSH2 0x76B DUP3 PUSH2 0x755 JUMP JUMPDEST SWAP1 POP SWAP2 SWAP1 POP JUMP JUMPDEST PUSH0 PUSH2 0x77C DUP3 PUSH2 0x761 JUMP JUMPDEST SWAP1 POP SWAP2 SWAP1 POP JUMP JUMPDEST PUSH2 0x794 PUSH2 0x78F DUP3 PUSH2 0x391 JUMP JUMPDEST PUSH2 0x772 JUMP JUMPDEST DUP3 MSTORE POP POP JUMP JUMPDEST PUSH0 PUSH2 0x7A5 DUP3 DUP5 PUSH2 0x783 JUMP JUMPDEST PUSH1 0x14 DUP3 ADD SWAP2 POP DUP2 SWAP1 POP SWAP3 SWAP2 POP POP JUMP INVALID LOG2 PUSH5 0x6970667358 0x22 SLT KECCAK256 0xEB 0xCF EXTSTATICCALL DELEGATECALL EOFCREATE 0x59 PUSH1 0xB0 0x2A EXTCODEHASH JUMPDEST CHAINID 0xB0 0xF6 PUSH32 0xC77EE33ABAA04574B0222398B156E4951264736F6C634300081E003300000000 "
				},
				"gasEstimates": {
					"creation": {
						"codeDepositCost": "405200",
						"executionCost": "24706",
						"totalCost": "429906"
					},
					"external": {
						"callContract(address,bytes)": "infinite",
						"caller()": "2574",
						"compareAddress(address,address)": "infinite",
						"getBalance(address)": "3291",
						"myAddress()": "2530",
						"sendEther(address)": "infinite",
						"toBytes(address)": "infinite"
					}
				},
				"methodIdentifiers": {
					"callContract(address,bytes)": "03710668",
					"caller()": "fc9c8d39",
					"compareAddress(address,address)": "95e885c0",
					"getBalance(address)": "f8b2cb4f",
					"myAddress()": "26b85ee1",
					"sendEther(address)": "48c981e2",
					"toBytes(address)": "593b79fe"
				}
			},
			"storageLayout": {
				"storage": [
					{
						"astId": 3,
						"contract": "contracts/AddressExample.sol:AddressExample",
						"label": "myAddress",
						"offset": 0,
						"slot": "0",
						"type": "t_address"
					},
					{
						"astId": 7,
						"contract": "contracts/AddressExample.sol:AddressExample",
						"label": "caller",
						"offset": 0,
						"slot": "1",
						"type": "t_address"
					}
				],
				"types": {
					"t_address": {
						"encoding": "inplace",
						"label": "address",
						"numberOfBytes": "20"
					}
				}
			},
			"userdoc": {
				"kind": "user",
				"methods": {},
				"version": 1
			}
		}
	}
}